{
	"contracts/20_VariosContractos.sol": {
		"RegistroNotas": {
			"abi": [
				{
					"inputs": [
						{
							"internalType": "address",
							"name": "_addressCalculadora",
							"type": "address"
						}
					],
					"stateMutability": "nonpayable",
					"type": "constructor"
				},
				{
					"inputs": [
						{
							"internalType": "address",
							"name": "owner",
							"type": "address"
						}
					],
					"name": "OwnableInvalidOwner",
					"type": "error"
				},
				{
					"inputs": [
						{
							"internalType": "address",
							"name": "account",
							"type": "address"
						}
					],
					"name": "OwnableUnauthorizedAccount",
					"type": "error"
				},
				{
					"anonymous": false,
					"inputs": [
						{
							"indexed": true,
							"internalType": "address",
							"name": "previousOwner",
							"type": "address"
						},
						{
							"indexed": true,
							"internalType": "address",
							"name": "newOwner",
							"type": "address"
						}
					],
					"name": "OwnershipTransferred",
					"type": "event"
				},
				{
					"inputs": [
						{
							"internalType": "address",
							"name": "_addressCalculadora",
							"type": "address"
						}
					],
					"name": "actualizarCalculadora",
					"outputs": [],
					"stateMutability": "nonpayable",
					"type": "function"
				},
				{
					"inputs": [],
					"name": "addressCalculadora",
					"outputs": [
						{
							"internalType": "address",
							"name": "",
							"type": "address"
						}
					],
					"stateMutability": "view",
					"type": "function"
				},
				{
					"inputs": [],
					"name": "miNotaFinal",
					"outputs": [
						{
							"internalType": "uint256",
							"name": "",
							"type": "uint256"
						}
					],
					"stateMutability": "view",
					"type": "function"
				},
				{
					"inputs": [
						{
							"internalType": "address",
							"name": "",
							"type": "address"
						}
					],
					"name": "notasAlumnos",
					"outputs": [
						{
							"internalType": "uint256",
							"name": "",
							"type": "uint256"
						}
					],
					"stateMutability": "view",
					"type": "function"
				},
				{
					"inputs": [],
					"name": "owner",
					"outputs": [
						{
							"internalType": "address",
							"name": "",
							"type": "address"
						}
					],
					"stateMutability": "view",
					"type": "function"
				},
				{
					"inputs": [
						{
							"internalType": "address",
							"name": "_alumno",
							"type": "address"
						},
						{
							"internalType": "uint256",
							"name": "_practica",
							"type": "uint256"
						},
						{
							"internalType": "uint256",
							"name": "_teoria",
							"type": "uint256"
						},
						{
							"internalType": "uint256",
							"name": "_proyecto",
							"type": "uint256"
						}
					],
					"name": "registrarNota",
					"outputs": [],
					"stateMutability": "nonpayable",
					"type": "function"
				},
				{
					"inputs": [],
					"name": "renounceOwnership",
					"outputs": [],
					"stateMutability": "nonpayable",
					"type": "function"
				},
				{
					"inputs": [
						{
							"internalType": "address",
							"name": "newOwner",
							"type": "address"
						}
					],
					"name": "transferOwnership",
					"outputs": [],
					"stateMutability": "nonpayable",
					"type": "function"
				}
			],
			"devdoc": {
				"errors": {
					"OwnableInvalidOwner(address)": [
						{
							"details": "The owner is not a valid owner account. (eg. `address(0)`)"
						}
					],
					"OwnableUnauthorizedAccount(address)": [
						{
							"details": "The caller account is not authorized to perform an operation."
						}
					]
				},
				"kind": "dev",
				"methods": {
					"owner()": {
						"details": "Returns the address of the current owner."
					},
					"renounceOwnership()": {
						"details": "Leaves the contract without owner. It will not be possible to call `onlyOwner` functions. Can only be called by the current owner. NOTE: Renouncing ownership will leave the contract without an owner, thereby disabling any functionality that is only available to the owner."
					},
					"transferOwnership(address)": {
						"details": "Transfers ownership of the contract to a new account (`newOwner`). Can only be called by the current owner."
					}
				},
				"version": 1
			},
			"evm": {
				"assembly": "    /* \"contracts/20_VariosContractos.sol\":830:2152  contract RegistroNotas is Ownable {... */\n  mstore(0x40, 0x80)\n    /* \"contracts/20_VariosContractos.sol\":1074:1204  constructor(address _addressCalculadora) ... */\n  callvalue\n  dup1\n  iszero\n  tag_1\n  jumpi\n  revert(0x00, 0x00)\ntag_1:\n  pop\n  mload(0x40)\n  sub(codesize, bytecodeSize)\n  dup1\n  bytecodeSize\n  dup4\n  codecopy\n  dup2\n  dup2\n  add\n  0x40\n  mstore\n  dup2\n  add\n  swap1\n  tag_2\n  swap2\n  swap1\n  tag_3\n  jump\t// in\ntag_2:\n    /* \"contracts/20_VariosContractos.sol\":1133:1143  msg.sender */\n  caller\n    /* \"@openzeppelin/contracts/access/Ownable.sol\":1297:1298  0 */\n  0x00\n    /* \"@openzeppelin/contracts/access/Ownable.sol\":1273:1299  initialOwner == address(0) */\n  0xffffffffffffffffffffffffffffffffffffffff\n  and\n    /* \"@openzeppelin/contracts/access/Ownable.sol\":1273:1285  initialOwner */\n  dup2\n    /* \"@openzeppelin/contracts/access/Ownable.sol\":1273:1299  initialOwner == address(0) */\n  0xffffffffffffffffffffffffffffffffffffffff\n  and\n  sub\n    /* \"@openzeppelin/contracts/access/Ownable.sol\":1269:1364  if (initialOwner == address(0)) {... */\n  tag_7\n  jumpi\n    /* \"@openzeppelin/contracts/access/Ownable.sol\":1350:1351  0 */\n  0x00\n    /* \"@openzeppelin/contracts/access/Ownable.sol\":1322:1353  OwnableInvalidOwner(address(0)) */\n  mload(0x40)\n  0x1e4fbdf700000000000000000000000000000000000000000000000000000000\n  dup2\n  mstore\n  0x04\n  add\n  tag_8\n  swap2\n  swap1\n  tag_9\n  jump\t// in\ntag_8:\n  mload(0x40)\n  dup1\n  swap2\n  sub\n  swap1\n  revert\n    /* \"@openzeppelin/contracts/access/Ownable.sol\":1269:1364  if (initialOwner == address(0)) {... */\ntag_7:\n    /* \"@openzeppelin/contracts/access/Ownable.sol\":1373:1405  _transferOwnership(initialOwner) */\n  tag_10\n    /* \"@openzeppelin/contracts/access/Ownable.sol\":1392:1404  initialOwner */\n  dup2\n    /* \"@openzeppelin/contracts/access/Ownable.sol\":1373:1391  _transferOwnership */\n  shl(0x20, tag_11)\n    /* \"@openzeppelin/contracts/access/Ownable.sol\":1373:1405  _transferOwnership(initialOwner) */\n  0x20\n  shr\n  jump\t// in\ntag_10:\n    /* \"@openzeppelin/contracts/access/Ownable.sol\":1225:1412  constructor(address initialOwner) {... */\n  pop\n    /* \"contracts/20_VariosContractos.sol\":1177:1196  _addressCalculadora */\n  dup1\n    /* \"contracts/20_VariosContractos.sol\":1156:1174  addressCalculadora */\n  0x01\n  0x00\n    /* \"contracts/20_VariosContractos.sol\":1156:1196  addressCalculadora = _addressCalculadora */\n  0x0100\n  exp\n  dup2\n  sload\n  dup2\n  0xffffffffffffffffffffffffffffffffffffffff\n  mul\n  not\n  and\n  swap1\n  dup4\n  0xffffffffffffffffffffffffffffffffffffffff\n  and\n  mul\n  or\n  swap1\n  sstore\n  pop\n    /* \"contracts/20_VariosContractos.sol\":1074:1204  constructor(address _addressCalculadora) ... */\n  pop\n    /* \"contracts/20_VariosContractos.sol\":830:2152  contract RegistroNotas is Ownable {... */\n  jump(tag_13)\n    /* \"@openzeppelin/contracts/access/Ownable.sol\":2912:3099  function _transferOwnership(address newOwner) internal virtual {... */\ntag_11:\n    /* \"@openzeppelin/contracts/access/Ownable.sol\":2985:3001  address oldOwner */\n  0x00\n    /* \"@openzeppelin/contracts/access/Ownable.sol\":3004:3010  _owner */\n  0x00\n  0x00\n  swap1\n  sload\n  swap1\n  0x0100\n  exp\n  swap1\n  div\n  0xffffffffffffffffffffffffffffffffffffffff\n  and\n    /* \"@openzeppelin/contracts/access/Ownable.sol\":2985:3010  address oldOwner = _owner */\n  swap1\n  pop\n    /* \"@openzeppelin/contracts/access/Ownable.sol\":3029:3037  newOwner */\n  dup2\n    /* \"@openzeppelin/contracts/access/Ownable.sol\":3020:3026  _owner */\n  0x00\n  0x00\n    /* \"@openzeppelin/contracts/access/Ownable.sol\":3020:3037  _owner = newOwner */\n  0x0100\n  exp\n  dup2\n  sload\n  dup2\n  0xffffffffffffffffffffffffffffffffffffffff\n  mul\n  not\n  and\n  swap1\n  dup4\n  0xffffffffffffffffffffffffffffffffffffffff\n  and\n  mul\n  or\n  swap1\n  sstore\n  pop\n    /* \"@openzeppelin/contracts/access/Ownable.sol\":3083:3091  newOwner */\n  dup2\n    /* \"@openzeppelin/contracts/access/Ownable.sol\":3052:3092  OwnershipTransferred(oldOwner, newOwner) */\n  0xffffffffffffffffffffffffffffffffffffffff\n  and\n    /* \"@openzeppelin/contracts/access/Ownable.sol\":3073:3081  oldOwner */\n  dup2\n    /* \"@openzeppelin/contracts/access/Ownable.sol\":3052:3092  OwnershipTransferred(oldOwner, newOwner) */\n  0xffffffffffffffffffffffffffffffffffffffff\n  and\n  0x8be0079c531659141344cd1fd0a4f28419497f9722a3daafe3b4186f6b6457e0\n  mload(0x40)\n  mload(0x40)\n  dup1\n  swap2\n  sub\n  swap1\n  log3\n    /* \"@openzeppelin/contracts/access/Ownable.sol\":2975:3099  {... */\n  pop\n    /* \"@openzeppelin/contracts/access/Ownable.sol\":2912:3099  function _transferOwnership(address newOwner) internal virtual {... */\n  pop\n  jump\t// out\n    /* \"#utility.yul\":88:205   */\ntag_16:\n    /* \"#utility.yul\":197:198   */\n  0x00\n    /* \"#utility.yul\":194:195   */\n  0x00\n    /* \"#utility.yul\":187:199   */\n  revert\n    /* \"#utility.yul\":334:460   */\ntag_18:\n    /* \"#utility.yul\":371:378   */\n  0x00\n    /* \"#utility.yul\":411:453   */\n  0xffffffffffffffffffffffffffffffffffffffff\n    /* \"#utility.yul\":404:409   */\n  dup3\n    /* \"#utility.yul\":400:454   */\n  and\n    /* \"#utility.yul\":389:454   */\n  swap1\n  pop\n    /* \"#utility.yul\":334:460   */\n  swap2\n  swap1\n  pop\n  jump\t// out\n    /* \"#utility.yul\":466:562   */\ntag_19:\n    /* \"#utility.yul\":503:510   */\n  0x00\n    /* \"#utility.yul\":532:556   */\n  tag_29\n    /* \"#utility.yul\":550:555   */\n  dup3\n    /* \"#utility.yul\":532:556   */\n  tag_18\n  jump\t// in\ntag_29:\n    /* \"#utility.yul\":521:556   */\n  swap1\n  pop\n    /* \"#utility.yul\":466:562   */\n  swap2\n  swap1\n  pop\n  jump\t// out\n    /* \"#utility.yul\":568:690   */\ntag_20:\n    /* \"#utility.yul\":641:665   */\n  tag_31\n    /* \"#utility.yul\":659:664   */\n  dup2\n    /* \"#utility.yul\":641:665   */\n  tag_19\n  jump\t// in\ntag_31:\n    /* \"#utility.yul\":634:639   */\n  dup2\n    /* \"#utility.yul\":631:666   */\n  eq\n    /* \"#utility.yul\":621:684   */\n  tag_32\n  jumpi\n    /* \"#utility.yul\":680:681   */\n  0x00\n    /* \"#utility.yul\":677:678   */\n  0x00\n    /* \"#utility.yul\":670:682   */\n  revert\n    /* \"#utility.yul\":621:684   */\ntag_32:\n    /* \"#utility.yul\":568:690   */\n  pop\n  jump\t// out\n    /* \"#utility.yul\":696:839   */\ntag_21:\n    /* \"#utility.yul\":753:758   */\n  0x00\n    /* \"#utility.yul\":784:790   */\n  dup2\n    /* \"#utility.yul\":778:791   */\n  mload\n    /* \"#utility.yul\":769:791   */\n  swap1\n  pop\n    /* \"#utility.yul\":800:833   */\n  tag_34\n    /* \"#utility.yul\":827:832   */\n  dup2\n    /* \"#utility.yul\":800:833   */\n  tag_20\n  jump\t// in\ntag_34:\n    /* \"#utility.yul\":696:839   */\n  swap3\n  swap2\n  pop\n  pop\n  jump\t// out\n    /* \"#utility.yul\":845:1196   */\ntag_3:\n    /* \"#utility.yul\":915:921   */\n  0x00\n    /* \"#utility.yul\":964:966   */\n  0x20\n    /* \"#utility.yul\":952:961   */\n  dup3\n    /* \"#utility.yul\":943:950   */\n  dup5\n    /* \"#utility.yul\":939:962   */\n  sub\n    /* \"#utility.yul\":935:967   */\n  slt\n    /* \"#utility.yul\":932:1051   */\n  iszero\n  tag_36\n  jumpi\n    /* \"#utility.yul\":970:1049   */\n  tag_37\n  tag_16\n  jump\t// in\ntag_37:\n    /* \"#utility.yul\":932:1051   */\ntag_36:\n    /* \"#utility.yul\":1090:1091   */\n  0x00\n    /* \"#utility.yul\":1115:1179   */\n  tag_38\n    /* \"#utility.yul\":1171:1178   */\n  dup5\n    /* \"#utility.yul\":1162:1168   */\n  dup3\n    /* \"#utility.yul\":1151:1160   */\n  dup6\n    /* \"#utility.yul\":1147:1169   */\n  add\n    /* \"#utility.yul\":1115:1179   */\n  tag_21\n  jump\t// in\ntag_38:\n    /* \"#utility.yul\":1105:1179   */\n  swap2\n  pop\n    /* \"#utility.yul\":1061:1189   */\n  pop\n    /* \"#utility.yul\":845:1196   */\n  swap3\n  swap2\n  pop\n  pop\n  jump\t// out\n    /* \"#utility.yul\":1202:1320   */\ntag_22:\n    /* \"#utility.yul\":1289:1313   */\n  tag_40\n    /* \"#utility.yul\":1307:1312   */\n  dup2\n    /* \"#utility.yul\":1289:1313   */\n  tag_19\n  jump\t// in\ntag_40:\n    /* \"#utility.yul\":1284:1287   */\n  dup3\n    /* \"#utility.yul\":1277:1314   */\n  mstore\n    /* \"#utility.yul\":1202:1320   */\n  pop\n  pop\n  jump\t// out\n    /* \"#utility.yul\":1326:1548   */\ntag_9:\n    /* \"#utility.yul\":1419:1423   */\n  0x00\n    /* \"#utility.yul\":1457:1459   */\n  0x20\n    /* \"#utility.yul\":1446:1455   */\n  dup3\n    /* \"#utility.yul\":1442:1460   */\n  add\n    /* \"#utility.yul\":1434:1460   */\n  swap1\n  pop\n    /* \"#utility.yul\":1470:1541   */\n  tag_42\n    /* \"#utility.yul\":1538:1539   */\n  0x00\n    /* \"#utility.yul\":1527:1536   */\n  dup4\n    /* \"#utility.yul\":1523:1540   */\n  add\n    /* \"#utility.yul\":1514:1520   */\n  dup5\n    /* \"#utility.yul\":1470:1541   */\n  tag_22\n  jump\t// in\ntag_42:\n    /* \"#utility.yul\":1326:1548   */\n  swap3\n  swap2\n  pop\n  pop\n  jump\t// out\n    /* \"contracts/20_VariosContractos.sol\":830:2152  contract RegistroNotas is Ownable {... */\ntag_13:\n  dataSize(sub_0)\n  dup1\n  dataOffset(sub_0)\n  0x00\n  codecopy\n  0x00\n  return\nstop\n\nsub_0: assembly {\n        /* \"contracts/20_VariosContractos.sol\":830:2152  contract RegistroNotas is Ownable {... */\n      mstore(0x40, 0x80)\n      callvalue\n      dup1\n      iszero\n      tag_1\n      jumpi\n      revert(0x00, 0x00)\n    tag_1:\n      pop\n      jumpi(tag_2, lt(calldatasize, 0x04))\n      shr(0xe0, calldataload(0x00))\n      dup1\n      0x8da5cb5b\n      gt\n      tag_11\n      jumpi\n      dup1\n      0x8da5cb5b\n      eq\n      tag_7\n      jumpi\n      dup1\n      0x8dce6f14\n      eq\n      tag_8\n      jumpi\n      dup1\n      0xd00de47a\n      eq\n      tag_9\n      jumpi\n      dup1\n      0xf2fde38b\n      eq\n      tag_10\n      jumpi\n      jump(tag_2)\n    tag_11:\n      dup1\n      0x34f36305\n      eq\n      tag_3\n      jumpi\n      dup1\n      0x461b1d62\n      eq\n      tag_4\n      jumpi\n      dup1\n      0x715018a6\n      eq\n      tag_5\n      jumpi\n      dup1\n      0x7d65fcda\n      eq\n      tag_6\n      jumpi\n    tag_2:\n      revert(0x00, 0x00)\n        /* \"contracts/20_VariosContractos.sol\":922:955  address public addressCalculadora */\n    tag_3:\n      tag_12\n      tag_13\n      jump\t// in\n    tag_12:\n      mload(0x40)\n      tag_14\n      swap2\n      swap1\n      tag_15\n      jump\t// in\n    tag_14:\n      mload(0x40)\n      dup1\n      swap2\n      sub\n      swap1\n      return\n        /* \"contracts/20_VariosContractos.sol\":1466:1984  function registrarNota(... */\n    tag_4:\n      tag_16\n      0x04\n      dup1\n      calldatasize\n      sub\n      dup2\n      add\n      swap1\n      tag_17\n      swap2\n      swap1\n      tag_18\n      jump\t// in\n    tag_17:\n      tag_19\n      jump\t// in\n    tag_16:\n      stop\n        /* \"@openzeppelin/contracts/access/Ownable.sol\":2293:2394  function renounceOwnership() public virtual onlyOwner {... */\n    tag_5:\n      tag_20\n      tag_21\n      jump\t// in\n    tag_20:\n      stop\n        /* \"contracts/20_VariosContractos.sol\":1012:1059  mapping(address => uint256) public notasAlumnos */\n    tag_6:\n      tag_22\n      0x04\n      dup1\n      calldatasize\n      sub\n      dup2\n      add\n      swap1\n      tag_23\n      swap2\n      swap1\n      tag_24\n      jump\t// in\n    tag_23:\n      tag_25\n      jump\t// in\n    tag_22:\n      mload(0x40)\n      tag_26\n      swap2\n      swap1\n      tag_27\n      jump\t// in\n    tag_26:\n      mload(0x40)\n      dup1\n      swap2\n      sub\n      swap1\n      return\n        /* \"@openzeppelin/contracts/access/Ownable.sol\":1638:1723  function owner() public view virtual returns (address) {... */\n    tag_7:\n      tag_28\n      tag_29\n      jump\t// in\n    tag_28:\n      mload(0x40)\n      tag_30\n      swap2\n      swap1\n      tag_15\n      jump\t// in\n    tag_30:\n      mload(0x40)\n      dup1\n      swap2\n      sub\n      swap1\n      return\n        /* \"contracts/20_VariosContractos.sol\":1281:1419  function actualizarCalculadora(address _addressCalculadora) onlyOwner external {... */\n    tag_8:\n      tag_31\n      0x04\n      dup1\n      calldatasize\n      sub\n      dup2\n      add\n      swap1\n      tag_32\n      swap2\n      swap1\n      tag_24\n      jump\t// in\n    tag_32:\n      tag_33\n      jump\t// in\n    tag_31:\n      stop\n        /* \"contracts/20_VariosContractos.sol\":2044:2149  function miNotaFinal() external view returns (uint256) {... */\n    tag_9:\n      tag_34\n      tag_35\n      jump\t// in\n    tag_34:\n      mload(0x40)\n      tag_36\n      swap2\n      swap1\n      tag_27\n      jump\t// in\n    tag_36:\n      mload(0x40)\n      dup1\n      swap2\n      sub\n      swap1\n      return\n        /* \"@openzeppelin/contracts/access/Ownable.sol\":2543:2758  function transferOwnership(address newOwner) public virtual onlyOwner {... */\n    tag_10:\n      tag_37\n      0x04\n      dup1\n      calldatasize\n      sub\n      dup2\n      add\n      swap1\n      tag_38\n      swap2\n      swap1\n      tag_24\n      jump\t// in\n    tag_38:\n      tag_39\n      jump\t// in\n    tag_37:\n      stop\n        /* \"contracts/20_VariosContractos.sol\":922:955  address public addressCalculadora */\n    tag_13:\n      0x01\n      0x00\n      swap1\n      sload\n      swap1\n      0x0100\n      exp\n      swap1\n      div\n      0xffffffffffffffffffffffffffffffffffffffff\n      and\n      dup2\n      jump\t// out\n        /* \"contracts/20_VariosContractos.sol\":1466:1984  function registrarNota(... */\n    tag_19:\n        /* \"@openzeppelin/contracts/access/Ownable.sol\":1531:1544  _checkOwner() */\n      tag_41\n        /* \"@openzeppelin/contracts/access/Ownable.sol\":1531:1542  _checkOwner */\n      tag_42\n        /* \"@openzeppelin/contracts/access/Ownable.sol\":1531:1544  _checkOwner() */\n      jump\t// in\n    tag_41:\n        /* \"contracts/20_VariosContractos.sol\":1680:1681  0 */\n      0x00\n        /* \"contracts/20_VariosContractos.sol\":1650:1682  addressCalculadora != address(0) */\n      0xffffffffffffffffffffffffffffffffffffffff\n      and\n        /* \"contracts/20_VariosContractos.sol\":1650:1668  addressCalculadora */\n      0x01\n      0x00\n      swap1\n      sload\n      swap1\n      0x0100\n      exp\n      swap1\n      div\n      0xffffffffffffffffffffffffffffffffffffffff\n      and\n        /* \"contracts/20_VariosContractos.sol\":1650:1682  addressCalculadora != address(0) */\n      0xffffffffffffffffffffffffffffffffffffffff\n      and\n      sub\n        /* \"contracts/20_VariosContractos.sol\":1642:1713  require(addressCalculadora != address(0), \"Calculadora no configurada\") */\n      tag_44\n      jumpi\n      mload(0x40)\n      0x08c379a000000000000000000000000000000000000000000000000000000000\n      dup2\n      mstore\n      0x04\n      add\n      tag_45\n      swap1\n      tag_46\n      jump\t// in\n    tag_45:\n      mload(0x40)\n      dup1\n      swap2\n      sub\n      swap1\n      revert\n    tag_44:\n        /* \"contracts/20_VariosContractos.sol\":1764:1800  CalculadoraNotas contratoCalculadora */\n      0x00\n        /* \"contracts/20_VariosContractos.sol\":1820:1838  addressCalculadora */\n      0x01\n      0x00\n      swap1\n      sload\n      swap1\n      0x0100\n      exp\n      swap1\n      div\n      0xffffffffffffffffffffffffffffffffffffffff\n      and\n        /* \"contracts/20_VariosContractos.sol\":1764:1839  CalculadoraNotas contratoCalculadora = CalculadoraNotas(addressCalculadora) */\n      swap1\n      pop\n        /* \"contracts/20_VariosContractos.sol\":1852:1864  uint256 nota */\n      0x00\n        /* \"contracts/20_VariosContractos.sol\":1867:1886  contratoCalculadora */\n      dup2\n        /* \"contracts/20_VariosContractos.sol\":1867:1904  contratoCalculadora.calcularNotaFinal */\n      0xffffffffffffffffffffffffffffffffffffffff\n      and\n      0x80c15c51\n        /* \"contracts/20_VariosContractos.sol\":1905:1914  _practica */\n      dup7\n        /* \"contracts/20_VariosContractos.sol\":1916:1923  _teoria */\n      dup7\n        /* \"contracts/20_VariosContractos.sol\":1925:1934  _proyecto */\n      dup7\n        /* \"contracts/20_VariosContractos.sol\":1867:1935  contratoCalculadora.calcularNotaFinal(_practica, _teoria, _proyecto) */\n      mload(0x40)\n      dup5\n      0xffffffff\n      and\n      0xe0\n      shl\n      dup2\n      mstore\n      0x04\n      add\n      tag_47\n      swap4\n      swap3\n      swap2\n      swap1\n      tag_48\n      jump\t// in\n    tag_47:\n      0x20\n      mload(0x40)\n      dup1\n      dup4\n      sub\n      dup2\n      dup7\n      gas\n      staticcall\n      iszero\n      dup1\n      iszero\n      tag_50\n      jumpi\n      returndatacopy(0x00, 0x00, returndatasize)\n      revert(0x00, returndatasize)\n    tag_50:\n      pop\n      pop\n      pop\n      pop\n      mload(0x40)\n      returndatasize\n      not(0x1f)\n      0x1f\n      dup3\n      add\n      and\n      dup3\n      add\n      dup1\n      0x40\n      mstore\n      pop\n      dup2\n      add\n      swap1\n      tag_51\n      swap2\n      swap1\n      tag_52\n      jump\t// in\n    tag_51:\n        /* \"contracts/20_VariosContractos.sol\":1852:1935  uint256 nota = contratoCalculadora.calcularNotaFinal(_practica, _teoria, _proyecto) */\n      swap1\n      pop\n        /* \"contracts/20_VariosContractos.sol\":1972:1976  nota */\n      dup1\n        /* \"contracts/20_VariosContractos.sol\":1948:1960  notasAlumnos */\n      0x02\n        /* \"contracts/20_VariosContractos.sol\":1948:1969  notasAlumnos[_alumno] */\n      0x00\n        /* \"contracts/20_VariosContractos.sol\":1961:1968  _alumno */\n      dup9\n        /* \"contracts/20_VariosContractos.sol\":1948:1969  notasAlumnos[_alumno] */\n      0xffffffffffffffffffffffffffffffffffffffff\n      and\n      0xffffffffffffffffffffffffffffffffffffffff\n      and\n      dup2\n      mstore\n      0x20\n      add\n      swap1\n      dup2\n      mstore\n      0x20\n      add\n      0x00\n      keccak256\n        /* \"contracts/20_VariosContractos.sol\":1948:1976  notasAlumnos[_alumno] = nota */\n      dup2\n      swap1\n      sstore\n      pop\n        /* \"contracts/20_VariosContractos.sol\":1623:1984  {... */\n      pop\n      pop\n        /* \"contracts/20_VariosContractos.sol\":1466:1984  function registrarNota(... */\n      pop\n      pop\n      pop\n      pop\n      jump\t// out\n        /* \"@openzeppelin/contracts/access/Ownable.sol\":2293:2394  function renounceOwnership() public virtual onlyOwner {... */\n    tag_21:\n        /* \"@openzeppelin/contracts/access/Ownable.sol\":1531:1544  _checkOwner() */\n      tag_54\n        /* \"@openzeppelin/contracts/access/Ownable.sol\":1531:1542  _checkOwner */\n      tag_42\n        /* \"@openzeppelin/contracts/access/Ownable.sol\":1531:1544  _checkOwner() */\n      jump\t// in\n    tag_54:\n        /* \"@openzeppelin/contracts/access/Ownable.sol\":2357:2387  _transferOwnership(address(0)) */\n      tag_56\n        /* \"@openzeppelin/contracts/access/Ownable.sol\":2384:2385  0 */\n      0x00\n        /* \"@openzeppelin/contracts/access/Ownable.sol\":2357:2375  _transferOwnership */\n      tag_57\n        /* \"@openzeppelin/contracts/access/Ownable.sol\":2357:2387  _transferOwnership(address(0)) */\n      jump\t// in\n    tag_56:\n        /* \"@openzeppelin/contracts/access/Ownable.sol\":2293:2394  function renounceOwnership() public virtual onlyOwner {... */\n      jump\t// out\n        /* \"contracts/20_VariosContractos.sol\":1012:1059  mapping(address => uint256) public notasAlumnos */\n    tag_25:\n      mstore(0x20, 0x02)\n      dup1\n      0x00\n      mstore\n      keccak256(0x00, 0x40)\n      0x00\n      swap2\n      pop\n      swap1\n      pop\n      sload\n      dup2\n      jump\t// out\n        /* \"@openzeppelin/contracts/access/Ownable.sol\":1638:1723  function owner() public view virtual returns (address) {... */\n    tag_29:\n        /* \"@openzeppelin/contracts/access/Ownable.sol\":1684:1691  address */\n      0x00\n        /* \"@openzeppelin/contracts/access/Ownable.sol\":1710:1716  _owner */\n      0x00\n      0x00\n      swap1\n      sload\n      swap1\n      0x0100\n      exp\n      swap1\n      div\n      0xffffffffffffffffffffffffffffffffffffffff\n      and\n        /* \"@openzeppelin/contracts/access/Ownable.sol\":1703:1716  return _owner */\n      swap1\n      pop\n        /* \"@openzeppelin/contracts/access/Ownable.sol\":1638:1723  function owner() public view virtual returns (address) {... */\n      swap1\n      jump\t// out\n        /* \"contracts/20_VariosContractos.sol\":1281:1419  function actualizarCalculadora(address _addressCalculadora) onlyOwner external {... */\n    tag_33:\n        /* \"@openzeppelin/contracts/access/Ownable.sol\":1531:1544  _checkOwner() */\n      tag_60\n        /* \"@openzeppelin/contracts/access/Ownable.sol\":1531:1542  _checkOwner */\n      tag_42\n        /* \"@openzeppelin/contracts/access/Ownable.sol\":1531:1544  _checkOwner() */\n      jump\t// in\n    tag_60:\n        /* \"contracts/20_VariosContractos.sol\":1392:1411  _addressCalculadora */\n      dup1\n        /* \"contracts/20_VariosContractos.sol\":1371:1389  addressCalculadora */\n      0x01\n      0x00\n        /* \"contracts/20_VariosContractos.sol\":1371:1411  addressCalculadora = _addressCalculadora */\n      0x0100\n      exp\n      dup2\n      sload\n      dup2\n      0xffffffffffffffffffffffffffffffffffffffff\n      mul\n      not\n      and\n      swap1\n      dup4\n      0xffffffffffffffffffffffffffffffffffffffff\n      and\n      mul\n      or\n      swap1\n      sstore\n      pop\n        /* \"contracts/20_VariosContractos.sol\":1281:1419  function actualizarCalculadora(address _addressCalculadora) onlyOwner external {... */\n      pop\n      jump\t// out\n        /* \"contracts/20_VariosContractos.sol\":2044:2149  function miNotaFinal() external view returns (uint256) {... */\n    tag_35:\n        /* \"contracts/20_VariosContractos.sol\":2090:2097  uint256 */\n      0x00\n        /* \"contracts/20_VariosContractos.sol\":2117:2129  notasAlumnos */\n      0x02\n        /* \"contracts/20_VariosContractos.sol\":2117:2141  notasAlumnos[msg.sender] */\n      0x00\n        /* \"contracts/20_VariosContractos.sol\":2130:2140  msg.sender */\n      caller\n        /* \"contracts/20_VariosContractos.sol\":2117:2141  notasAlumnos[msg.sender] */\n      0xffffffffffffffffffffffffffffffffffffffff\n      and\n      0xffffffffffffffffffffffffffffffffffffffff\n      and\n      dup2\n      mstore\n      0x20\n      add\n      swap1\n      dup2\n      mstore\n      0x20\n      add\n      0x00\n      keccak256\n      sload\n        /* \"contracts/20_VariosContractos.sol\":2110:2141  return notasAlumnos[msg.sender] */\n      swap1\n      pop\n        /* \"contracts/20_VariosContractos.sol\":2044:2149  function miNotaFinal() external view returns (uint256) {... */\n      swap1\n      jump\t// out\n        /* \"@openzeppelin/contracts/access/Ownable.sol\":2543:2758  function transferOwnership(address newOwner) public virtual onlyOwner {... */\n    tag_39:\n        /* \"@openzeppelin/contracts/access/Ownable.sol\":1531:1544  _checkOwner() */\n      tag_64\n        /* \"@openzeppelin/contracts/access/Ownable.sol\":1531:1542  _checkOwner */\n      tag_42\n        /* \"@openzeppelin/contracts/access/Ownable.sol\":1531:1544  _checkOwner() */\n      jump\t// in\n    tag_64:\n        /* \"@openzeppelin/contracts/access/Ownable.sol\":2647:2648  0 */\n      0x00\n        /* \"@openzeppelin/contracts/access/Ownable.sol\":2627:2649  newOwner == address(0) */\n      0xffffffffffffffffffffffffffffffffffffffff\n      and\n        /* \"@openzeppelin/contracts/access/Ownable.sol\":2627:2635  newOwner */\n      dup2\n        /* \"@openzeppelin/contracts/access/Ownable.sol\":2627:2649  newOwner == address(0) */\n      0xffffffffffffffffffffffffffffffffffffffff\n      and\n      sub\n        /* \"@openzeppelin/contracts/access/Ownable.sol\":2623:2714  if (newOwner == address(0)) {... */\n      tag_66\n      jumpi\n        /* \"@openzeppelin/contracts/access/Ownable.sol\":2700:2701  0 */\n      0x00\n        /* \"@openzeppelin/contracts/access/Ownable.sol\":2672:2703  OwnableInvalidOwner(address(0)) */\n      mload(0x40)\n      0x1e4fbdf700000000000000000000000000000000000000000000000000000000\n      dup2\n      mstore\n      0x04\n      add\n      tag_67\n      swap2\n      swap1\n      tag_15\n      jump\t// in\n    tag_67:\n      mload(0x40)\n      dup1\n      swap2\n      sub\n      swap1\n      revert\n        /* \"@openzeppelin/contracts/access/Ownable.sol\":2623:2714  if (newOwner == address(0)) {... */\n    tag_66:\n        /* \"@openzeppelin/contracts/access/Ownable.sol\":2723:2751  _transferOwnership(newOwner) */\n      tag_68\n        /* \"@openzeppelin/contracts/access/Ownable.sol\":2742:2750  newOwner */\n      dup2\n        /* \"@openzeppelin/contracts/access/Ownable.sol\":2723:2741  _transferOwnership */\n      tag_57\n        /* \"@openzeppelin/contracts/access/Ownable.sol\":2723:2751  _transferOwnership(newOwner) */\n      jump\t// in\n    tag_68:\n        /* \"@openzeppelin/contracts/access/Ownable.sol\":2543:2758  function transferOwnership(address newOwner) public virtual onlyOwner {... */\n      pop\n      jump\t// out\n        /* \"@openzeppelin/contracts/access/Ownable.sol\":1796:1958  function _checkOwner() internal view virtual {... */\n    tag_42:\n        /* \"@openzeppelin/contracts/access/Ownable.sol\":1866:1878  _msgSender() */\n      tag_70\n        /* \"@openzeppelin/contracts/access/Ownable.sol\":1866:1876  _msgSender */\n      tag_71\n        /* \"@openzeppelin/contracts/access/Ownable.sol\":1866:1878  _msgSender() */\n      jump\t// in\n    tag_70:\n        /* \"@openzeppelin/contracts/access/Ownable.sol\":1855:1878  owner() != _msgSender() */\n      0xffffffffffffffffffffffffffffffffffffffff\n      and\n        /* \"@openzeppelin/contracts/access/Ownable.sol\":1855:1862  owner() */\n      tag_72\n        /* \"@openzeppelin/contracts/access/Ownable.sol\":1855:1860  owner */\n      tag_29\n        /* \"@openzeppelin/contracts/access/Ownable.sol\":1855:1862  owner() */\n      jump\t// in\n    tag_72:\n        /* \"@openzeppelin/contracts/access/Ownable.sol\":1855:1878  owner() != _msgSender() */\n      0xffffffffffffffffffffffffffffffffffffffff\n      and\n      eq\n        /* \"@openzeppelin/contracts/access/Ownable.sol\":1851:1952  if (owner() != _msgSender()) {... */\n      tag_73\n      jumpi\n        /* \"@openzeppelin/contracts/access/Ownable.sol\":1928:1940  _msgSender() */\n      tag_74\n        /* \"@openzeppelin/contracts/access/Ownable.sol\":1928:1938  _msgSender */\n      tag_71\n        /* \"@openzeppelin/contracts/access/Ownable.sol\":1928:1940  _msgSender() */\n      jump\t// in\n    tag_74:\n        /* \"@openzeppelin/contracts/access/Ownable.sol\":1901:1941  OwnableUnauthorizedAccount(_msgSender()) */\n      mload(0x40)\n      0x118cdaa700000000000000000000000000000000000000000000000000000000\n      dup2\n      mstore\n      0x04\n      add\n      tag_75\n      swap2\n      swap1\n      tag_15\n      jump\t// in\n    tag_75:\n      mload(0x40)\n      dup1\n      swap2\n      sub\n      swap1\n      revert\n        /* \"@openzeppelin/contracts/access/Ownable.sol\":1851:1952  if (owner() != _msgSender()) {... */\n    tag_73:\n        /* \"@openzeppelin/contracts/access/Ownable.sol\":1796:1958  function _checkOwner() internal view virtual {... */\n      jump\t// out\n        /* \"@openzeppelin/contracts/access/Ownable.sol\":2912:3099  function _transferOwnership(address newOwner) internal virtual {... */\n    tag_57:\n        /* \"@openzeppelin/contracts/access/Ownable.sol\":2985:3001  address oldOwner */\n      0x00\n        /* \"@openzeppelin/contracts/access/Ownable.sol\":3004:3010  _owner */\n      0x00\n      0x00\n      swap1\n      sload\n      swap1\n      0x0100\n      exp\n      swap1\n      div\n      0xffffffffffffffffffffffffffffffffffffffff\n      and\n        /* \"@openzeppelin/contracts/access/Ownable.sol\":2985:3010  address oldOwner = _owner */\n      swap1\n      pop\n        /* \"@openzeppelin/contracts/access/Ownable.sol\":3029:3037  newOwner */\n      dup2\n        /* \"@openzeppelin/contracts/access/Ownable.sol\":3020:3026  _owner */\n      0x00\n      0x00\n        /* \"@openzeppelin/contracts/access/Ownable.sol\":3020:3037  _owner = newOwner */\n      0x0100\n      exp\n      dup2\n      sload\n      dup2\n      0xffffffffffffffffffffffffffffffffffffffff\n      mul\n      not\n      and\n      swap1\n      dup4\n      0xffffffffffffffffffffffffffffffffffffffff\n      and\n      mul\n      or\n      swap1\n      sstore\n      pop\n        /* \"@openzeppelin/contracts/access/Ownable.sol\":3083:3091  newOwner */\n      dup2\n        /* \"@openzeppelin/contracts/access/Ownable.sol\":3052:3092  OwnershipTransferred(oldOwner, newOwner) */\n      0xffffffffffffffffffffffffffffffffffffffff\n      and\n        /* \"@openzeppelin/contracts/access/Ownable.sol\":3073:3081  oldOwner */\n      dup2\n        /* \"@openzeppelin/contracts/access/Ownable.sol\":3052:3092  OwnershipTransferred(oldOwner, newOwner) */\n      0xffffffffffffffffffffffffffffffffffffffff\n      and\n      0x8be0079c531659141344cd1fd0a4f28419497f9722a3daafe3b4186f6b6457e0\n      mload(0x40)\n      mload(0x40)\n      dup1\n      swap2\n      sub\n      swap1\n      log3\n        /* \"@openzeppelin/contracts/access/Ownable.sol\":2975:3099  {... */\n      pop\n        /* \"@openzeppelin/contracts/access/Ownable.sol\":2912:3099  function _transferOwnership(address newOwner) internal virtual {... */\n      pop\n      jump\t// out\n        /* \"@openzeppelin/contracts/utils/Context.sol\":656:752  function _msgSender() internal view virtual returns (address) {... */\n    tag_71:\n        /* \"@openzeppelin/contracts/utils/Context.sol\":709:716  address */\n      0x00\n        /* \"@openzeppelin/contracts/utils/Context.sol\":735:745  msg.sender */\n      caller\n        /* \"@openzeppelin/contracts/utils/Context.sol\":728:745  return msg.sender */\n      swap1\n      pop\n        /* \"@openzeppelin/contracts/utils/Context.sol\":656:752  function _msgSender() internal view virtual returns (address) {... */\n      swap1\n      jump\t// out\n        /* \"#utility.yul\":7:133   */\n    tag_78:\n        /* \"#utility.yul\":44:51   */\n      0x00\n        /* \"#utility.yul\":84:126   */\n      0xffffffffffffffffffffffffffffffffffffffff\n        /* \"#utility.yul\":77:82   */\n      dup3\n        /* \"#utility.yul\":73:127   */\n      and\n        /* \"#utility.yul\":62:127   */\n      swap1\n      pop\n        /* \"#utility.yul\":7:133   */\n      swap2\n      swap1\n      pop\n      jump\t// out\n        /* \"#utility.yul\":139:235   */\n    tag_79:\n        /* \"#utility.yul\":176:183   */\n      0x00\n        /* \"#utility.yul\":205:229   */\n      tag_97\n        /* \"#utility.yul\":223:228   */\n      dup3\n        /* \"#utility.yul\":205:229   */\n      tag_78\n      jump\t// in\n    tag_97:\n        /* \"#utility.yul\":194:229   */\n      swap1\n      pop\n        /* \"#utility.yul\":139:235   */\n      swap2\n      swap1\n      pop\n      jump\t// out\n        /* \"#utility.yul\":241:359   */\n    tag_80:\n        /* \"#utility.yul\":328:352   */\n      tag_99\n        /* \"#utility.yul\":346:351   */\n      dup2\n        /* \"#utility.yul\":328:352   */\n      tag_79\n      jump\t// in\n    tag_99:\n        /* \"#utility.yul\":323:326   */\n      dup3\n        /* \"#utility.yul\":316:353   */\n      mstore\n        /* \"#utility.yul\":241:359   */\n      pop\n      pop\n      jump\t// out\n        /* \"#utility.yul\":365:587   */\n    tag_15:\n        /* \"#utility.yul\":458:462   */\n      0x00\n        /* \"#utility.yul\":496:498   */\n      0x20\n        /* \"#utility.yul\":485:494   */\n      dup3\n        /* \"#utility.yul\":481:499   */\n      add\n        /* \"#utility.yul\":473:499   */\n      swap1\n      pop\n        /* \"#utility.yul\":509:580   */\n      tag_101\n        /* \"#utility.yul\":577:578   */\n      0x00\n        /* \"#utility.yul\":566:575   */\n      dup4\n        /* \"#utility.yul\":562:579   */\n      add\n        /* \"#utility.yul\":553:559   */\n      dup5\n        /* \"#utility.yul\":509:580   */\n      tag_80\n      jump\t// in\n    tag_101:\n        /* \"#utility.yul\":365:587   */\n      swap3\n      swap2\n      pop\n      pop\n      jump\t// out\n        /* \"#utility.yul\":674:791   */\n    tag_82:\n        /* \"#utility.yul\":783:784   */\n      0x00\n        /* \"#utility.yul\":780:781   */\n      0x00\n        /* \"#utility.yul\":773:785   */\n      revert\n        /* \"#utility.yul\":920:1042   */\n    tag_84:\n        /* \"#utility.yul\":993:1017   */\n      tag_106\n        /* \"#utility.yul\":1011:1016   */\n      dup2\n        /* \"#utility.yul\":993:1017   */\n      tag_79\n      jump\t// in\n    tag_106:\n        /* \"#utility.yul\":986:991   */\n      dup2\n        /* \"#utility.yul\":983:1018   */\n      eq\n        /* \"#utility.yul\":973:1036   */\n      tag_107\n      jumpi\n        /* \"#utility.yul\":1032:1033   */\n      0x00\n        /* \"#utility.yul\":1029:1030   */\n      0x00\n        /* \"#utility.yul\":1022:1034   */\n      revert\n        /* \"#utility.yul\":973:1036   */\n    tag_107:\n        /* \"#utility.yul\":920:1042   */\n      pop\n      jump\t// out\n        /* \"#utility.yul\":1048:1187   */\n    tag_85:\n        /* \"#utility.yul\":1094:1099   */\n      0x00\n        /* \"#utility.yul\":1132:1138   */\n      dup2\n        /* \"#utility.yul\":1119:1139   */\n      calldataload\n        /* \"#utility.yul\":1110:1139   */\n      swap1\n      pop\n        /* \"#utility.yul\":1148:1181   */\n      tag_109\n        /* \"#utility.yul\":1175:1180   */\n      dup2\n        /* \"#utility.yul\":1148:1181   */\n      tag_84\n      jump\t// in\n    tag_109:\n        /* \"#utility.yul\":1048:1187   */\n      swap3\n      swap2\n      pop\n      pop\n      jump\t// out\n        /* \"#utility.yul\":1193:1270   */\n    tag_86:\n        /* \"#utility.yul\":1230:1237   */\n      0x00\n        /* \"#utility.yul\":1259:1264   */\n      dup2\n        /* \"#utility.yul\":1248:1264   */\n      swap1\n      pop\n        /* \"#utility.yul\":1193:1270   */\n      swap2\n      swap1\n      pop\n      jump\t// out\n        /* \"#utility.yul\":1276:1398   */\n    tag_87:\n        /* \"#utility.yul\":1349:1373   */\n      tag_112\n        /* \"#utility.yul\":1367:1372   */\n      dup2\n        /* \"#utility.yul\":1349:1373   */\n      tag_86\n      jump\t// in\n    tag_112:\n        /* \"#utility.yul\":1342:1347   */\n      dup2\n        /* \"#utility.yul\":1339:1374   */\n      eq\n        /* \"#utility.yul\":1329:1392   */\n      tag_113\n      jumpi\n        /* \"#utility.yul\":1388:1389   */\n      0x00\n        /* \"#utility.yul\":1385:1386   */\n      0x00\n        /* \"#utility.yul\":1378:1390   */\n      revert\n        /* \"#utility.yul\":1329:1392   */\n    tag_113:\n        /* \"#utility.yul\":1276:1398   */\n      pop\n      jump\t// out\n        /* \"#utility.yul\":1404:1543   */\n    tag_88:\n        /* \"#utility.yul\":1450:1455   */\n      0x00\n        /* \"#utility.yul\":1488:1494   */\n      dup2\n        /* \"#utility.yul\":1475:1495   */\n      calldataload\n        /* \"#utility.yul\":1466:1495   */\n      swap1\n      pop\n        /* \"#utility.yul\":1504:1537   */\n      tag_115\n        /* \"#utility.yul\":1531:1536   */\n      dup2\n        /* \"#utility.yul\":1504:1537   */\n      tag_87\n      jump\t// in\n    tag_115:\n        /* \"#utility.yul\":1404:1543   */\n      swap3\n      swap2\n      pop\n      pop\n      jump\t// out\n        /* \"#utility.yul\":1549:2314   */\n    tag_18:\n        /* \"#utility.yul\":1635:1641   */\n      0x00\n        /* \"#utility.yul\":1643:1649   */\n      0x00\n        /* \"#utility.yul\":1651:1657   */\n      0x00\n        /* \"#utility.yul\":1659:1665   */\n      0x00\n        /* \"#utility.yul\":1708:1711   */\n      0x80\n        /* \"#utility.yul\":1696:1705   */\n      dup6\n        /* \"#utility.yul\":1687:1694   */\n      dup8\n        /* \"#utility.yul\":1683:1706   */\n      sub\n        /* \"#utility.yul\":1679:1712   */\n      slt\n        /* \"#utility.yul\":1676:1796   */\n      iszero\n      tag_117\n      jumpi\n        /* \"#utility.yul\":1715:1794   */\n      tag_118\n      tag_82\n      jump\t// in\n    tag_118:\n        /* \"#utility.yul\":1676:1796   */\n    tag_117:\n        /* \"#utility.yul\":1835:1836   */\n      0x00\n        /* \"#utility.yul\":1860:1913   */\n      tag_119\n        /* \"#utility.yul\":1905:1912   */\n      dup8\n        /* \"#utility.yul\":1896:1902   */\n      dup3\n        /* \"#utility.yul\":1885:1894   */\n      dup9\n        /* \"#utility.yul\":1881:1903   */\n      add\n        /* \"#utility.yul\":1860:1913   */\n      tag_85\n      jump\t// in\n    tag_119:\n        /* \"#utility.yul\":1850:1913   */\n      swap5\n      pop\n        /* \"#utility.yul\":1806:1923   */\n      pop\n        /* \"#utility.yul\":1962:1964   */\n      0x20\n        /* \"#utility.yul\":1988:2041   */\n      tag_120\n        /* \"#utility.yul\":2033:2040   */\n      dup8\n        /* \"#utility.yul\":2024:2030   */\n      dup3\n        /* \"#utility.yul\":2013:2022   */\n      dup9\n        /* \"#utility.yul\":2009:2031   */\n      add\n        /* \"#utility.yul\":1988:2041   */\n      tag_88\n      jump\t// in\n    tag_120:\n        /* \"#utility.yul\":1978:2041   */\n      swap4\n      pop\n        /* \"#utility.yul\":1933:2051   */\n      pop\n        /* \"#utility.yul\":2090:2092   */\n      0x40\n        /* \"#utility.yul\":2116:2169   */\n      tag_121\n        /* \"#utility.yul\":2161:2168   */\n      dup8\n        /* \"#utility.yul\":2152:2158   */\n      dup3\n        /* \"#utility.yul\":2141:2150   */\n      dup9\n        /* \"#utility.yul\":2137:2159   */\n      add\n        /* \"#utility.yul\":2116:2169   */\n      tag_88\n      jump\t// in\n    tag_121:\n        /* \"#utility.yul\":2106:2169   */\n      swap3\n      pop\n        /* \"#utility.yul\":2061:2179   */\n      pop\n        /* \"#utility.yul\":2218:2220   */\n      0x60\n        /* \"#utility.yul\":2244:2297   */\n      tag_122\n        /* \"#utility.yul\":2289:2296   */\n      dup8\n        /* \"#utility.yul\":2280:2286   */\n      dup3\n        /* \"#utility.yul\":2269:2278   */\n      dup9\n        /* \"#utility.yul\":2265:2287   */\n      add\n        /* \"#utility.yul\":2244:2297   */\n      tag_88\n      jump\t// in\n    tag_122:\n        /* \"#utility.yul\":2234:2297   */\n      swap2\n      pop\n        /* \"#utility.yul\":2189:2307   */\n      pop\n        /* \"#utility.yul\":1549:2314   */\n      swap3\n      swap6\n      swap2\n      swap5\n      pop\n      swap3\n      pop\n      jump\t// out\n        /* \"#utility.yul\":2320:2649   */\n    tag_24:\n        /* \"#utility.yul\":2379:2385   */\n      0x00\n        /* \"#utility.yul\":2428:2430   */\n      0x20\n        /* \"#utility.yul\":2416:2425   */\n      dup3\n        /* \"#utility.yul\":2407:2414   */\n      dup5\n        /* \"#utility.yul\":2403:2426   */\n      sub\n        /* \"#utility.yul\":2399:2431   */\n      slt\n        /* \"#utility.yul\":2396:2515   */\n      iszero\n      tag_124\n      jumpi\n        /* \"#utility.yul\":2434:2513   */\n      tag_125\n      tag_82\n      jump\t// in\n    tag_125:\n        /* \"#utility.yul\":2396:2515   */\n    tag_124:\n        /* \"#utility.yul\":2554:2555   */\n      0x00\n        /* \"#utility.yul\":2579:2632   */\n      tag_126\n        /* \"#utility.yul\":2624:2631   */\n      dup5\n        /* \"#utility.yul\":2615:2621   */\n      dup3\n        /* \"#utility.yul\":2604:2613   */\n      dup6\n        /* \"#utility.yul\":2600:2622   */\n      add\n        /* \"#utility.yul\":2579:2632   */\n      tag_85\n      jump\t// in\n    tag_126:\n        /* \"#utility.yul\":2569:2632   */\n      swap2\n      pop\n        /* \"#utility.yul\":2525:2642   */\n      pop\n        /* \"#utility.yul\":2320:2649   */\n      swap3\n      swap2\n      pop\n      pop\n      jump\t// out\n        /* \"#utility.yul\":2655:2773   */\n    tag_89:\n        /* \"#utility.yul\":2742:2766   */\n      tag_128\n        /* \"#utility.yul\":2760:2765   */\n      dup2\n        /* \"#utility.yul\":2742:2766   */\n      tag_86\n      jump\t// in\n    tag_128:\n        /* \"#utility.yul\":2737:2740   */\n      dup3\n        /* \"#utility.yul\":2730:2767   */\n      mstore\n        /* \"#utility.yul\":2655:2773   */\n      pop\n      pop\n      jump\t// out\n        /* \"#utility.yul\":2779:3001   */\n    tag_27:\n        /* \"#utility.yul\":2872:2876   */\n      0x00\n        /* \"#utility.yul\":2910:2912   */\n      0x20\n        /* \"#utility.yul\":2899:2908   */\n      dup3\n        /* \"#utility.yul\":2895:2913   */\n      add\n        /* \"#utility.yul\":2887:2913   */\n      swap1\n      pop\n        /* \"#utility.yul\":2923:2994   */\n      tag_130\n        /* \"#utility.yul\":2991:2992   */\n      0x00\n        /* \"#utility.yul\":2980:2989   */\n      dup4\n        /* \"#utility.yul\":2976:2993   */\n      add\n        /* \"#utility.yul\":2967:2973   */\n      dup5\n        /* \"#utility.yul\":2923:2994   */\n      tag_89\n      jump\t// in\n    tag_130:\n        /* \"#utility.yul\":2779:3001   */\n      swap3\n      swap2\n      pop\n      pop\n      jump\t// out\n        /* \"#utility.yul\":3007:3176   */\n    tag_90:\n        /* \"#utility.yul\":3091:3102   */\n      0x00\n        /* \"#utility.yul\":3125:3131   */\n      dup3\n        /* \"#utility.yul\":3120:3123   */\n      dup3\n        /* \"#utility.yul\":3113:3132   */\n      mstore\n        /* \"#utility.yul\":3165:3169   */\n      0x20\n        /* \"#utility.yul\":3160:3163   */\n      dup3\n        /* \"#utility.yul\":3156:3170   */\n      add\n        /* \"#utility.yul\":3141:3170   */\n      swap1\n      pop\n        /* \"#utility.yul\":3007:3176   */\n      swap3\n      swap2\n      pop\n      pop\n      jump\t// out\n        /* \"#utility.yul\":3182:3358   */\n    tag_91:\n        /* \"#utility.yul\":3322:3350   */\n      0x43616c63756c61646f7261206e6f20636f6e6669677572616461000000000000\n        /* \"#utility.yul\":3318:3319   */\n      0x00\n        /* \"#utility.yul\":3310:3316   */\n      dup3\n        /* \"#utility.yul\":3306:3320   */\n      add\n        /* \"#utility.yul\":3299:3351   */\n      mstore\n        /* \"#utility.yul\":3182:3358   */\n      pop\n      jump\t// out\n        /* \"#utility.yul\":3364:3730   */\n    tag_92:\n        /* \"#utility.yul\":3506:3509   */\n      0x00\n        /* \"#utility.yul\":3527:3594   */\n      tag_134\n        /* \"#utility.yul\":3591:3593   */\n      0x1a\n        /* \"#utility.yul\":3586:3589   */\n      dup4\n        /* \"#utility.yul\":3527:3594   */\n      tag_90\n      jump\t// in\n    tag_134:\n        /* \"#utility.yul\":3520:3594   */\n      swap2\n      pop\n        /* \"#utility.yul\":3603:3696   */\n      tag_135\n        /* \"#utility.yul\":3692:3695   */\n      dup3\n        /* \"#utility.yul\":3603:3696   */\n      tag_91\n      jump\t// in\n    tag_135:\n        /* \"#utility.yul\":3721:3723   */\n      0x20\n        /* \"#utility.yul\":3716:3719   */\n      dup3\n        /* \"#utility.yul\":3712:3724   */\n      add\n        /* \"#utility.yul\":3705:3724   */\n      swap1\n      pop\n        /* \"#utility.yul\":3364:3730   */\n      swap2\n      swap1\n      pop\n      jump\t// out\n        /* \"#utility.yul\":3736:4155   */\n    tag_46:\n        /* \"#utility.yul\":3902:3906   */\n      0x00\n        /* \"#utility.yul\":3940:3942   */\n      0x20\n        /* \"#utility.yul\":3929:3938   */\n      dup3\n        /* \"#utility.yul\":3925:3943   */\n      add\n        /* \"#utility.yul\":3917:3943   */\n      swap1\n      pop\n        /* \"#utility.yul\":3989:3998   */\n      dup2\n        /* \"#utility.yul\":3983:3987   */\n      dup2\n        /* \"#utility.yul\":3979:3999   */\n      sub\n        /* \"#utility.yul\":3975:3976   */\n      0x00\n        /* \"#utility.yul\":3964:3973   */\n      dup4\n        /* \"#utility.yul\":3960:3977   */\n      add\n        /* \"#utility.yul\":3953:4000   */\n      mstore\n        /* \"#utility.yul\":4017:4148   */\n      tag_137\n        /* \"#utility.yul\":4143:4147   */\n      dup2\n        /* \"#utility.yul\":4017:4148   */\n      tag_92\n      jump\t// in\n    tag_137:\n        /* \"#utility.yul\":4009:4148   */\n      swap1\n      pop\n        /* \"#utility.yul\":3736:4155   */\n      swap2\n      swap1\n      pop\n      jump\t// out\n        /* \"#utility.yul\":4161:4603   */\n    tag_48:\n        /* \"#utility.yul\":4310:4314   */\n      0x00\n        /* \"#utility.yul\":4348:4350   */\n      0x60\n        /* \"#utility.yul\":4337:4346   */\n      dup3\n        /* \"#utility.yul\":4333:4351   */\n      add\n        /* \"#utility.yul\":4325:4351   */\n      swap1\n      pop\n        /* \"#utility.yul\":4361:4432   */\n      tag_139\n        /* \"#utility.yul\":4429:4430   */\n      0x00\n        /* \"#utility.yul\":4418:4427   */\n      dup4\n        /* \"#utility.yul\":4414:4431   */\n      add\n        /* \"#utility.yul\":4405:4411   */\n      dup7\n        /* \"#utility.yul\":4361:4432   */\n      tag_89\n      jump\t// in\n    tag_139:\n        /* \"#utility.yul\":4442:4514   */\n      tag_140\n        /* \"#utility.yul\":4510:4512   */\n      0x20\n        /* \"#utility.yul\":4499:4508   */\n      dup4\n        /* \"#utility.yul\":4495:4513   */\n      add\n        /* \"#utility.yul\":4486:4492   */\n      dup6\n        /* \"#utility.yul\":4442:4514   */\n      tag_89\n      jump\t// in\n    tag_140:\n        /* \"#utility.yul\":4524:4596   */\n      tag_141\n        /* \"#utility.yul\":4592:4594   */\n      0x40\n        /* \"#utility.yul\":4581:4590   */\n      dup4\n        /* \"#utility.yul\":4577:4595   */\n      add\n        /* \"#utility.yul\":4568:4574   */\n      dup5\n        /* \"#utility.yul\":4524:4596   */\n      tag_89\n      jump\t// in\n    tag_141:\n        /* \"#utility.yul\":4161:4603   */\n      swap5\n      swap4\n      pop\n      pop\n      pop\n      pop\n      jump\t// out\n        /* \"#utility.yul\":4609:4752   */\n    tag_93:\n        /* \"#utility.yul\":4666:4671   */\n      0x00\n        /* \"#utility.yul\":4697:4703   */\n      dup2\n        /* \"#utility.yul\":4691:4704   */\n      mload\n        /* \"#utility.yul\":4682:4704   */\n      swap1\n      pop\n        /* \"#utility.yul\":4713:4746   */\n      tag_143\n        /* \"#utility.yul\":4740:4745   */\n      dup2\n        /* \"#utility.yul\":4713:4746   */\n      tag_87\n      jump\t// in\n    tag_143:\n        /* \"#utility.yul\":4609:4752   */\n      swap3\n      swap2\n      pop\n      pop\n      jump\t// out\n        /* \"#utility.yul\":4758:5109   */\n    tag_52:\n        /* \"#utility.yul\":4828:4834   */\n      0x00\n        /* \"#utility.yul\":4877:4879   */\n      0x20\n        /* \"#utility.yul\":4865:4874   */\n      dup3\n        /* \"#utility.yul\":4856:4863   */\n      dup5\n        /* \"#utility.yul\":4852:4875   */\n      sub\n        /* \"#utility.yul\":4848:4880   */\n      slt\n        /* \"#utility.yul\":4845:4964   */\n      iszero\n      tag_145\n      jumpi\n        /* \"#utility.yul\":4883:4962   */\n      tag_146\n      tag_82\n      jump\t// in\n    tag_146:\n        /* \"#utility.yul\":4845:4964   */\n    tag_145:\n        /* \"#utility.yul\":5003:5004   */\n      0x00\n        /* \"#utility.yul\":5028:5092   */\n      tag_147\n        /* \"#utility.yul\":5084:5091   */\n      dup5\n        /* \"#utility.yul\":5075:5081   */\n      dup3\n        /* \"#utility.yul\":5064:5073   */\n      dup6\n        /* \"#utility.yul\":5060:5082   */\n      add\n        /* \"#utility.yul\":5028:5092   */\n      tag_93\n      jump\t// in\n    tag_147:\n        /* \"#utility.yul\":5018:5092   */\n      swap2\n      pop\n        /* \"#utility.yul\":4974:5102   */\n      pop\n        /* \"#utility.yul\":4758:5109   */\n      swap3\n      swap2\n      pop\n      pop\n      jump\t// out\n\n    auxdata: 0xa26469706673582212202e3cac421de41a5cffc8664663a4a34158173267b12e75f0140c87715f3714ad64736f6c634300081e0033\n}\n",
				"bytecode": {
					"linkReferences": {},
					"object": "608060405234801561000f575f5ffd5b50604051610ad6380380610ad683398181016040528101906100319190610217565b335f73ffffffffffffffffffffffffffffffffffffffff168173ffffffffffffffffffffffffffffffffffffffff16036100a2575f6040517f1e4fbdf70000000000000000000000000000000000000000000000000000000081526004016100999190610251565b60405180910390fd5b6100b1816100f860201b60201c565b508060015f6101000a81548173ffffffffffffffffffffffffffffffffffffffff021916908373ffffffffffffffffffffffffffffffffffffffff1602179055505061026a565b5f5f5f9054906101000a900473ffffffffffffffffffffffffffffffffffffffff169050815f5f6101000a81548173ffffffffffffffffffffffffffffffffffffffff021916908373ffffffffffffffffffffffffffffffffffffffff1602179055508173ffffffffffffffffffffffffffffffffffffffff168173ffffffffffffffffffffffffffffffffffffffff167f8be0079c531659141344cd1fd0a4f28419497f9722a3daafe3b4186f6b6457e060405160405180910390a35050565b5f5ffd5b5f73ffffffffffffffffffffffffffffffffffffffff82169050919050565b5f6101e6826101bd565b9050919050565b6101f6816101dc565b8114610200575f5ffd5b50565b5f81519050610211816101ed565b92915050565b5f6020828403121561022c5761022b6101b9565b5b5f61023984828501610203565b91505092915050565b61024b816101dc565b82525050565b5f6020820190506102645f830184610242565b92915050565b61085f806102775f395ff3fe608060405234801561000f575f5ffd5b5060043610610086575f3560e01c80638da5cb5b116100595780638da5cb5b146100fe5780638dce6f141461011c578063d00de47a14610138578063f2fde38b1461015657610086565b806334f363051461008a578063461b1d62146100a8578063715018a6146100c45780637d65fcda146100ce575b5f5ffd5b610092610172565b60405161009f919061060c565b60405180910390f35b6100c260048036038101906100bd9190610686565b610197565b005b6100cc61031c565b005b6100e860048036038101906100e391906106ea565b61032f565b6040516100f59190610724565b60405180910390f35b610106610344565b604051610113919061060c565b60405180910390f35b610136600480360381019061013191906106ea565b61036b565b005b6101406103b6565b60405161014d9190610724565b60405180910390f35b610170600480360381019061016b91906106ea565b6103fa565b005b60015f9054906101000a900473ffffffffffffffffffffffffffffffffffffffff1681565b61019f61047e565b5f73ffffffffffffffffffffffffffffffffffffffff1660015f9054906101000a900473ffffffffffffffffffffffffffffffffffffffff1673ffffffffffffffffffffffffffffffffffffffff160361022e576040517f08c379a000000000000000000000000000000000000000000000000000000000815260040161022590610797565b60405180910390fd5b5f60015f9054906101000a900473ffffffffffffffffffffffffffffffffffffffff1690505f8173ffffffffffffffffffffffffffffffffffffffff166380c15c518686866040518463ffffffff1660e01b8152600401610291939291906107b5565b602060405180830381865afa1580156102ac573d5f5f3e3d5ffd5b505050506040513d601f19601f820116820180604052508101906102d091906107fe565b90508060025f8873ffffffffffffffffffffffffffffffffffffffff1673ffffffffffffffffffffffffffffffffffffffff1681526020019081526020015f2081905550505050505050565b61032461047e565b61032d5f610505565b565b6002602052805f5260405f205f915090505481565b5f5f5f9054906101000a900473ffffffffffffffffffffffffffffffffffffffff16905090565b61037361047e565b8060015f6101000a81548173ffffffffffffffffffffffffffffffffffffffff021916908373ffffffffffffffffffffffffffffffffffffffff16021790555050565b5f60025f3373ffffffffffffffffffffffffffffffffffffffff1673ffffffffffffffffffffffffffffffffffffffff1681526020019081526020015f2054905090565b61040261047e565b5f73ffffffffffffffffffffffffffffffffffffffff168173ffffffffffffffffffffffffffffffffffffffff1603610472575f6040517f1e4fbdf7000000000000000000000000000000000000000000000000000000008152600401610469919061060c565b60405180910390fd5b61047b81610505565b50565b6104866105c6565b73ffffffffffffffffffffffffffffffffffffffff166104a4610344565b73ffffffffffffffffffffffffffffffffffffffff1614610503576104c76105c6565b6040517f118cdaa70000000000000000000000000000000000000000000000000000000081526004016104fa919061060c565b60405180910390fd5b565b5f5f5f9054906101000a900473ffffffffffffffffffffffffffffffffffffffff169050815f5f6101000a81548173ffffffffffffffffffffffffffffffffffffffff021916908373ffffffffffffffffffffffffffffffffffffffff1602179055508173ffffffffffffffffffffffffffffffffffffffff168173ffffffffffffffffffffffffffffffffffffffff167f8be0079c531659141344cd1fd0a4f28419497f9722a3daafe3b4186f6b6457e060405160405180910390a35050565b5f33905090565b5f73ffffffffffffffffffffffffffffffffffffffff82169050919050565b5f6105f6826105cd565b9050919050565b610606816105ec565b82525050565b5f60208201905061061f5f8301846105fd565b92915050565b5f5ffd5b610632816105ec565b811461063c575f5ffd5b50565b5f8135905061064d81610629565b92915050565b5f819050919050565b61066581610653565b811461066f575f5ffd5b50565b5f813590506106808161065c565b92915050565b5f5f5f5f6080858703121561069e5761069d610625565b5b5f6106ab8782880161063f565b94505060206106bc87828801610672565b93505060406106cd87828801610672565b92505060606106de87828801610672565b91505092959194509250565b5f602082840312156106ff576106fe610625565b5b5f61070c8482850161063f565b91505092915050565b61071e81610653565b82525050565b5f6020820190506107375f830184610715565b92915050565b5f82825260208201905092915050565b7f43616c63756c61646f7261206e6f20636f6e66696775726164610000000000005f82015250565b5f610781601a8361073d565b915061078c8261074d565b602082019050919050565b5f6020820190508181035f8301526107ae81610775565b9050919050565b5f6060820190506107c85f830186610715565b6107d56020830185610715565b6107e26040830184610715565b949350505050565b5f815190506107f88161065c565b92915050565b5f6020828403121561081357610812610625565b5b5f610820848285016107ea565b9150509291505056fea26469706673582212202e3cac421de41a5cffc8664663a4a34158173267b12e75f0140c87715f3714ad64736f6c634300081e0033",
					"opcodes": "PUSH1 0x80 PUSH1 0x40 MSTORE CALLVALUE DUP1 ISZERO PUSH2 0xF JUMPI PUSH0 PUSH0 REVERT JUMPDEST POP PUSH1 0x40 MLOAD PUSH2 0xAD6 CODESIZE SUB DUP1 PUSH2 0xAD6 DUP4 CODECOPY DUP2 DUP2 ADD PUSH1 0x40 MSTORE DUP2 ADD SWAP1 PUSH2 0x31 SWAP2 SWAP1 PUSH2 0x217 JUMP JUMPDEST CALLER PUSH0 PUSH20 0xFFFFFFFFFFFFFFFFFFFFFFFFFFFFFFFFFFFFFFFF AND DUP2 PUSH20 0xFFFFFFFFFFFFFFFFFFFFFFFFFFFFFFFFFFFFFFFF AND SUB PUSH2 0xA2 JUMPI PUSH0 PUSH1 0x40 MLOAD PUSH32 0x1E4FBDF700000000000000000000000000000000000000000000000000000000 DUP2 MSTORE PUSH1 0x4 ADD PUSH2 0x99 SWAP2 SWAP1 PUSH2 0x251 JUMP JUMPDEST PUSH1 0x40 MLOAD DUP1 SWAP2 SUB SWAP1 REVERT JUMPDEST PUSH2 0xB1 DUP2 PUSH2 0xF8 PUSH1 0x20 SHL PUSH1 0x20 SHR JUMP JUMPDEST POP DUP1 PUSH1 0x1 PUSH0 PUSH2 0x100 EXP DUP2 SLOAD DUP2 PUSH20 0xFFFFFFFFFFFFFFFFFFFFFFFFFFFFFFFFFFFFFFFF MUL NOT AND SWAP1 DUP4 PUSH20 0xFFFFFFFFFFFFFFFFFFFFFFFFFFFFFFFFFFFFFFFF AND MUL OR SWAP1 SSTORE POP POP PUSH2 0x26A JUMP JUMPDEST PUSH0 PUSH0 PUSH0 SWAP1 SLOAD SWAP1 PUSH2 0x100 EXP SWAP1 DIV PUSH20 0xFFFFFFFFFFFFFFFFFFFFFFFFFFFFFFFFFFFFFFFF AND SWAP1 POP DUP2 PUSH0 PUSH0 PUSH2 0x100 EXP DUP2 SLOAD DUP2 PUSH20 0xFFFFFFFFFFFFFFFFFFFFFFFFFFFFFFFFFFFFFFFF MUL NOT AND SWAP1 DUP4 PUSH20 0xFFFFFFFFFFFFFFFFFFFFFFFFFFFFFFFFFFFFFFFF AND MUL OR SWAP1 SSTORE POP DUP2 PUSH20 0xFFFFFFFFFFFFFFFFFFFFFFFFFFFFFFFFFFFFFFFF AND DUP2 PUSH20 0xFFFFFFFFFFFFFFFFFFFFFFFFFFFFFFFFFFFFFFFF AND PUSH32 0x8BE0079C531659141344CD1FD0A4F28419497F9722A3DAAFE3B4186F6B6457E0 PUSH1 0x40 MLOAD PUSH1 0x40 MLOAD DUP1 SWAP2 SUB SWAP1 LOG3 POP POP JUMP JUMPDEST PUSH0 PUSH0 REVERT JUMPDEST PUSH0 PUSH20 0xFFFFFFFFFFFFFFFFFFFFFFFFFFFFFFFFFFFFFFFF DUP3 AND SWAP1 POP SWAP2 SWAP1 POP JUMP JUMPDEST PUSH0 PUSH2 0x1E6 DUP3 PUSH2 0x1BD JUMP JUMPDEST SWAP1 POP SWAP2 SWAP1 POP JUMP JUMPDEST PUSH2 0x1F6 DUP2 PUSH2 0x1DC JUMP JUMPDEST DUP2 EQ PUSH2 0x200 JUMPI PUSH0 PUSH0 REVERT JUMPDEST POP JUMP JUMPDEST PUSH0 DUP2 MLOAD SWAP1 POP PUSH2 0x211 DUP2 PUSH2 0x1ED JUMP JUMPDEST SWAP3 SWAP2 POP POP JUMP JUMPDEST PUSH0 PUSH1 0x20 DUP3 DUP5 SUB SLT ISZERO PUSH2 0x22C JUMPI PUSH2 0x22B PUSH2 0x1B9 JUMP JUMPDEST JUMPDEST PUSH0 PUSH2 0x239 DUP5 DUP3 DUP6 ADD PUSH2 0x203 JUMP JUMPDEST SWAP2 POP POP SWAP3 SWAP2 POP POP JUMP JUMPDEST PUSH2 0x24B DUP2 PUSH2 0x1DC JUMP JUMPDEST DUP3 MSTORE POP POP JUMP JUMPDEST PUSH0 PUSH1 0x20 DUP3 ADD SWAP1 POP PUSH2 0x264 PUSH0 DUP4 ADD DUP5 PUSH2 0x242 JUMP JUMPDEST SWAP3 SWAP2 POP POP JUMP JUMPDEST PUSH2 0x85F DUP1 PUSH2 0x277 PUSH0 CODECOPY PUSH0 RETURN INVALID PUSH1 0x80 PUSH1 0x40 MSTORE CALLVALUE DUP1 ISZERO PUSH2 0xF JUMPI PUSH0 PUSH0 REVERT JUMPDEST POP PUSH1 0x4 CALLDATASIZE LT PUSH2 0x86 JUMPI PUSH0 CALLDATALOAD PUSH1 0xE0 SHR DUP1 PUSH4 0x8DA5CB5B GT PUSH2 0x59 JUMPI DUP1 PUSH4 0x8DA5CB5B EQ PUSH2 0xFE JUMPI DUP1 PUSH4 0x8DCE6F14 EQ PUSH2 0x11C JUMPI DUP1 PUSH4 0xD00DE47A EQ PUSH2 0x138 JUMPI DUP1 PUSH4 0xF2FDE38B EQ PUSH2 0x156 JUMPI PUSH2 0x86 JUMP JUMPDEST DUP1 PUSH4 0x34F36305 EQ PUSH2 0x8A JUMPI DUP1 PUSH4 0x461B1D62 EQ PUSH2 0xA8 JUMPI DUP1 PUSH4 0x715018A6 EQ PUSH2 0xC4 JUMPI DUP1 PUSH4 0x7D65FCDA EQ PUSH2 0xCE JUMPI JUMPDEST PUSH0 PUSH0 REVERT JUMPDEST PUSH2 0x92 PUSH2 0x172 JUMP JUMPDEST PUSH1 0x40 MLOAD PUSH2 0x9F SWAP2 SWAP1 PUSH2 0x60C JUMP JUMPDEST PUSH1 0x40 MLOAD DUP1 SWAP2 SUB SWAP1 RETURN JUMPDEST PUSH2 0xC2 PUSH1 0x4 DUP1 CALLDATASIZE SUB DUP2 ADD SWAP1 PUSH2 0xBD SWAP2 SWAP1 PUSH2 0x686 JUMP JUMPDEST PUSH2 0x197 JUMP JUMPDEST STOP JUMPDEST PUSH2 0xCC PUSH2 0x31C JUMP JUMPDEST STOP JUMPDEST PUSH2 0xE8 PUSH1 0x4 DUP1 CALLDATASIZE SUB DUP2 ADD SWAP1 PUSH2 0xE3 SWAP2 SWAP1 PUSH2 0x6EA JUMP JUMPDEST PUSH2 0x32F JUMP JUMPDEST PUSH1 0x40 MLOAD PUSH2 0xF5 SWAP2 SWAP1 PUSH2 0x724 JUMP JUMPDEST PUSH1 0x40 MLOAD DUP1 SWAP2 SUB SWAP1 RETURN JUMPDEST PUSH2 0x106 PUSH2 0x344 JUMP JUMPDEST PUSH1 0x40 MLOAD PUSH2 0x113 SWAP2 SWAP1 PUSH2 0x60C JUMP JUMPDEST PUSH1 0x40 MLOAD DUP1 SWAP2 SUB SWAP1 RETURN JUMPDEST PUSH2 0x136 PUSH1 0x4 DUP1 CALLDATASIZE SUB DUP2 ADD SWAP1 PUSH2 0x131 SWAP2 SWAP1 PUSH2 0x6EA JUMP JUMPDEST PUSH2 0x36B JUMP JUMPDEST STOP JUMPDEST PUSH2 0x140 PUSH2 0x3B6 JUMP JUMPDEST PUSH1 0x40 MLOAD PUSH2 0x14D SWAP2 SWAP1 PUSH2 0x724 JUMP JUMPDEST PUSH1 0x40 MLOAD DUP1 SWAP2 SUB SWAP1 RETURN JUMPDEST PUSH2 0x170 PUSH1 0x4 DUP1 CALLDATASIZE SUB DUP2 ADD SWAP1 PUSH2 0x16B SWAP2 SWAP1 PUSH2 0x6EA JUMP JUMPDEST PUSH2 0x3FA JUMP JUMPDEST STOP JUMPDEST PUSH1 0x1 PUSH0 SWAP1 SLOAD SWAP1 PUSH2 0x100 EXP SWAP1 DIV PUSH20 0xFFFFFFFFFFFFFFFFFFFFFFFFFFFFFFFFFFFFFFFF AND DUP2 JUMP JUMPDEST PUSH2 0x19F PUSH2 0x47E JUMP JUMPDEST PUSH0 PUSH20 0xFFFFFFFFFFFFFFFFFFFFFFFFFFFFFFFFFFFFFFFF AND PUSH1 0x1 PUSH0 SWAP1 SLOAD SWAP1 PUSH2 0x100 EXP SWAP1 DIV PUSH20 0xFFFFFFFFFFFFFFFFFFFFFFFFFFFFFFFFFFFFFFFF AND PUSH20 0xFFFFFFFFFFFFFFFFFFFFFFFFFFFFFFFFFFFFFFFF AND SUB PUSH2 0x22E JUMPI PUSH1 0x40 MLOAD PUSH32 0x8C379A000000000000000000000000000000000000000000000000000000000 DUP2 MSTORE PUSH1 0x4 ADD PUSH2 0x225 SWAP1 PUSH2 0x797 JUMP JUMPDEST PUSH1 0x40 MLOAD DUP1 SWAP2 SUB SWAP1 REVERT JUMPDEST PUSH0 PUSH1 0x1 PUSH0 SWAP1 SLOAD SWAP1 PUSH2 0x100 EXP SWAP1 DIV PUSH20 0xFFFFFFFFFFFFFFFFFFFFFFFFFFFFFFFFFFFFFFFF AND SWAP1 POP PUSH0 DUP2 PUSH20 0xFFFFFFFFFFFFFFFFFFFFFFFFFFFFFFFFFFFFFFFF AND PUSH4 0x80C15C51 DUP7 DUP7 DUP7 PUSH1 0x40 MLOAD DUP5 PUSH4 0xFFFFFFFF AND PUSH1 0xE0 SHL DUP2 MSTORE PUSH1 0x4 ADD PUSH2 0x291 SWAP4 SWAP3 SWAP2 SWAP1 PUSH2 0x7B5 JUMP JUMPDEST PUSH1 0x20 PUSH1 0x40 MLOAD DUP1 DUP4 SUB DUP2 DUP7 GAS STATICCALL ISZERO DUP1 ISZERO PUSH2 0x2AC JUMPI RETURNDATASIZE PUSH0 PUSH0 RETURNDATACOPY RETURNDATASIZE PUSH0 REVERT JUMPDEST POP POP POP POP PUSH1 0x40 MLOAD RETURNDATASIZE PUSH1 0x1F NOT PUSH1 0x1F DUP3 ADD AND DUP3 ADD DUP1 PUSH1 0x40 MSTORE POP DUP2 ADD SWAP1 PUSH2 0x2D0 SWAP2 SWAP1 PUSH2 0x7FE JUMP JUMPDEST SWAP1 POP DUP1 PUSH1 0x2 PUSH0 DUP9 PUSH20 0xFFFFFFFFFFFFFFFFFFFFFFFFFFFFFFFFFFFFFFFF AND PUSH20 0xFFFFFFFFFFFFFFFFFFFFFFFFFFFFFFFFFFFFFFFF AND DUP2 MSTORE PUSH1 0x20 ADD SWAP1 DUP2 MSTORE PUSH1 0x20 ADD PUSH0 KECCAK256 DUP2 SWAP1 SSTORE POP POP POP POP POP POP POP JUMP JUMPDEST PUSH2 0x324 PUSH2 0x47E JUMP JUMPDEST PUSH2 0x32D PUSH0 PUSH2 0x505 JUMP JUMPDEST JUMP JUMPDEST PUSH1 0x2 PUSH1 0x20 MSTORE DUP1 PUSH0 MSTORE PUSH1 0x40 PUSH0 KECCAK256 PUSH0 SWAP2 POP SWAP1 POP SLOAD DUP2 JUMP JUMPDEST PUSH0 PUSH0 PUSH0 SWAP1 SLOAD SWAP1 PUSH2 0x100 EXP SWAP1 DIV PUSH20 0xFFFFFFFFFFFFFFFFFFFFFFFFFFFFFFFFFFFFFFFF AND SWAP1 POP SWAP1 JUMP JUMPDEST PUSH2 0x373 PUSH2 0x47E JUMP JUMPDEST DUP1 PUSH1 0x1 PUSH0 PUSH2 0x100 EXP DUP2 SLOAD DUP2 PUSH20 0xFFFFFFFFFFFFFFFFFFFFFFFFFFFFFFFFFFFFFFFF MUL NOT AND SWAP1 DUP4 PUSH20 0xFFFFFFFFFFFFFFFFFFFFFFFFFFFFFFFFFFFFFFFF AND MUL OR SWAP1 SSTORE POP POP JUMP JUMPDEST PUSH0 PUSH1 0x2 PUSH0 CALLER PUSH20 0xFFFFFFFFFFFFFFFFFFFFFFFFFFFFFFFFFFFFFFFF AND PUSH20 0xFFFFFFFFFFFFFFFFFFFFFFFFFFFFFFFFFFFFFFFF AND DUP2 MSTORE PUSH1 0x20 ADD SWAP1 DUP2 MSTORE PUSH1 0x20 ADD PUSH0 KECCAK256 SLOAD SWAP1 POP SWAP1 JUMP JUMPDEST PUSH2 0x402 PUSH2 0x47E JUMP JUMPDEST PUSH0 PUSH20 0xFFFFFFFFFFFFFFFFFFFFFFFFFFFFFFFFFFFFFFFF AND DUP2 PUSH20 0xFFFFFFFFFFFFFFFFFFFFFFFFFFFFFFFFFFFFFFFF AND SUB PUSH2 0x472 JUMPI PUSH0 PUSH1 0x40 MLOAD PUSH32 0x1E4FBDF700000000000000000000000000000000000000000000000000000000 DUP2 MSTORE PUSH1 0x4 ADD PUSH2 0x469 SWAP2 SWAP1 PUSH2 0x60C JUMP JUMPDEST PUSH1 0x40 MLOAD DUP1 SWAP2 SUB SWAP1 REVERT JUMPDEST PUSH2 0x47B DUP2 PUSH2 0x505 JUMP JUMPDEST POP JUMP JUMPDEST PUSH2 0x486 PUSH2 0x5C6 JUMP JUMPDEST PUSH20 0xFFFFFFFFFFFFFFFFFFFFFFFFFFFFFFFFFFFFFFFF AND PUSH2 0x4A4 PUSH2 0x344 JUMP JUMPDEST PUSH20 0xFFFFFFFFFFFFFFFFFFFFFFFFFFFFFFFFFFFFFFFF AND EQ PUSH2 0x503 JUMPI PUSH2 0x4C7 PUSH2 0x5C6 JUMP JUMPDEST PUSH1 0x40 MLOAD PUSH32 0x118CDAA700000000000000000000000000000000000000000000000000000000 DUP2 MSTORE PUSH1 0x4 ADD PUSH2 0x4FA SWAP2 SWAP1 PUSH2 0x60C JUMP JUMPDEST PUSH1 0x40 MLOAD DUP1 SWAP2 SUB SWAP1 REVERT JUMPDEST JUMP JUMPDEST PUSH0 PUSH0 PUSH0 SWAP1 SLOAD SWAP1 PUSH2 0x100 EXP SWAP1 DIV PUSH20 0xFFFFFFFFFFFFFFFFFFFFFFFFFFFFFFFFFFFFFFFF AND SWAP1 POP DUP2 PUSH0 PUSH0 PUSH2 0x100 EXP DUP2 SLOAD DUP2 PUSH20 0xFFFFFFFFFFFFFFFFFFFFFFFFFFFFFFFFFFFFFFFF MUL NOT AND SWAP1 DUP4 PUSH20 0xFFFFFFFFFFFFFFFFFFFFFFFFFFFFFFFFFFFFFFFF AND MUL OR SWAP1 SSTORE POP DUP2 PUSH20 0xFFFFFFFFFFFFFFFFFFFFFFFFFFFFFFFFFFFFFFFF AND DUP2 PUSH20 0xFFFFFFFFFFFFFFFFFFFFFFFFFFFFFFFFFFFFFFFF AND PUSH32 0x8BE0079C531659141344CD1FD0A4F28419497F9722A3DAAFE3B4186F6B6457E0 PUSH1 0x40 MLOAD PUSH1 0x40 MLOAD DUP1 SWAP2 SUB SWAP1 LOG3 POP POP JUMP JUMPDEST PUSH0 CALLER SWAP1 POP SWAP1 JUMP JUMPDEST PUSH0 PUSH20 0xFFFFFFFFFFFFFFFFFFFFFFFFFFFFFFFFFFFFFFFF DUP3 AND SWAP1 POP SWAP2 SWAP1 POP JUMP JUMPDEST PUSH0 PUSH2 0x5F6 DUP3 PUSH2 0x5CD JUMP JUMPDEST SWAP1 POP SWAP2 SWAP1 POP JUMP JUMPDEST PUSH2 0x606 DUP2 PUSH2 0x5EC JUMP JUMPDEST DUP3 MSTORE POP POP JUMP JUMPDEST PUSH0 PUSH1 0x20 DUP3 ADD SWAP1 POP PUSH2 0x61F PUSH0 DUP4 ADD DUP5 PUSH2 0x5FD JUMP JUMPDEST SWAP3 SWAP2 POP POP JUMP JUMPDEST PUSH0 PUSH0 REVERT JUMPDEST PUSH2 0x632 DUP2 PUSH2 0x5EC JUMP JUMPDEST DUP2 EQ PUSH2 0x63C JUMPI PUSH0 PUSH0 REVERT JUMPDEST POP JUMP JUMPDEST PUSH0 DUP2 CALLDATALOAD SWAP1 POP PUSH2 0x64D DUP2 PUSH2 0x629 JUMP JUMPDEST SWAP3 SWAP2 POP POP JUMP JUMPDEST PUSH0 DUP2 SWAP1 POP SWAP2 SWAP1 POP JUMP JUMPDEST PUSH2 0x665 DUP2 PUSH2 0x653 JUMP JUMPDEST DUP2 EQ PUSH2 0x66F JUMPI PUSH0 PUSH0 REVERT JUMPDEST POP JUMP JUMPDEST PUSH0 DUP2 CALLDATALOAD SWAP1 POP PUSH2 0x680 DUP2 PUSH2 0x65C JUMP JUMPDEST SWAP3 SWAP2 POP POP JUMP JUMPDEST PUSH0 PUSH0 PUSH0 PUSH0 PUSH1 0x80 DUP6 DUP8 SUB SLT ISZERO PUSH2 0x69E JUMPI PUSH2 0x69D PUSH2 0x625 JUMP JUMPDEST JUMPDEST PUSH0 PUSH2 0x6AB DUP8 DUP3 DUP9 ADD PUSH2 0x63F JUMP JUMPDEST SWAP5 POP POP PUSH1 0x20 PUSH2 0x6BC DUP8 DUP3 DUP9 ADD PUSH2 0x672 JUMP JUMPDEST SWAP4 POP POP PUSH1 0x40 PUSH2 0x6CD DUP8 DUP3 DUP9 ADD PUSH2 0x672 JUMP JUMPDEST SWAP3 POP POP PUSH1 0x60 PUSH2 0x6DE DUP8 DUP3 DUP9 ADD PUSH2 0x672 JUMP JUMPDEST SWAP2 POP POP SWAP3 SWAP6 SWAP2 SWAP5 POP SWAP3 POP JUMP JUMPDEST PUSH0 PUSH1 0x20 DUP3 DUP5 SUB SLT ISZERO PUSH2 0x6FF JUMPI PUSH2 0x6FE PUSH2 0x625 JUMP JUMPDEST JUMPDEST PUSH0 PUSH2 0x70C DUP5 DUP3 DUP6 ADD PUSH2 0x63F JUMP JUMPDEST SWAP2 POP POP SWAP3 SWAP2 POP POP JUMP JUMPDEST PUSH2 0x71E DUP2 PUSH2 0x653 JUMP JUMPDEST DUP3 MSTORE POP POP JUMP JUMPDEST PUSH0 PUSH1 0x20 DUP3 ADD SWAP1 POP PUSH2 0x737 PUSH0 DUP4 ADD DUP5 PUSH2 0x715 JUMP JUMPDEST SWAP3 SWAP2 POP POP JUMP JUMPDEST PUSH0 DUP3 DUP3 MSTORE PUSH1 0x20 DUP3 ADD SWAP1 POP SWAP3 SWAP2 POP POP JUMP JUMPDEST PUSH32 0x43616C63756C61646F7261206E6F20636F6E6669677572616461000000000000 PUSH0 DUP3 ADD MSTORE POP JUMP JUMPDEST PUSH0 PUSH2 0x781 PUSH1 0x1A DUP4 PUSH2 0x73D JUMP JUMPDEST SWAP2 POP PUSH2 0x78C DUP3 PUSH2 0x74D JUMP JUMPDEST PUSH1 0x20 DUP3 ADD SWAP1 POP SWAP2 SWAP1 POP JUMP JUMPDEST PUSH0 PUSH1 0x20 DUP3 ADD SWAP1 POP DUP2 DUP2 SUB PUSH0 DUP4 ADD MSTORE PUSH2 0x7AE DUP2 PUSH2 0x775 JUMP JUMPDEST SWAP1 POP SWAP2 SWAP1 POP JUMP JUMPDEST PUSH0 PUSH1 0x60 DUP3 ADD SWAP1 POP PUSH2 0x7C8 PUSH0 DUP4 ADD DUP7 PUSH2 0x715 JUMP JUMPDEST PUSH2 0x7D5 PUSH1 0x20 DUP4 ADD DUP6 PUSH2 0x715 JUMP JUMPDEST PUSH2 0x7E2 PUSH1 0x40 DUP4 ADD DUP5 PUSH2 0x715 JUMP JUMPDEST SWAP5 SWAP4 POP POP POP POP JUMP JUMPDEST PUSH0 DUP2 MLOAD SWAP1 POP PUSH2 0x7F8 DUP2 PUSH2 0x65C JUMP JUMPDEST SWAP3 SWAP2 POP POP JUMP JUMPDEST PUSH0 PUSH1 0x20 DUP3 DUP5 SUB SLT ISZERO PUSH2 0x813 JUMPI PUSH2 0x812 PUSH2 0x625 JUMP JUMPDEST JUMPDEST PUSH0 PUSH2 0x820 DUP5 DUP3 DUP6 ADD PUSH2 0x7EA JUMP JUMPDEST SWAP2 POP POP SWAP3 SWAP2 POP POP JUMP INVALID LOG2 PUSH5 0x6970667358 0x22 SLT KECCAK256 0x2E EXTCODECOPY 0xAC TIMESTAMP SAR RETF BYTE TLOAD SELFDESTRUCT 0xC8 PUSH7 0x4663A4A3415817 ORIGIN PUSH8 0xB12E75F0140C8771 PUSH0 CALLDATACOPY EQ 0xAD PUSH5 0x736F6C6343 STOP ADDMOD 0x1E STOP CALLER "
				},
				"gasEstimates": {
					"creation": {
						"codeDepositCost": "428600",
						"executionCost": "infinite",
						"totalCost": "infinite"
					},
					"external": {
						"actualizarCalculadora(address)": "infinite",
						"addressCalculadora()": "2509",
						"miNotaFinal()": "2563",
						"notasAlumnos(address)": "2869",
						"owner()": "2514",
						"registrarNota(address,uint256,uint256,uint256)": "infinite",
						"renounceOwnership()": "infinite",
						"transferOwnership(address)": "infinite"
					}
				},
				"methodIdentifiers": {
					"actualizarCalculadora(address)": "8dce6f14",
					"addressCalculadora()": "34f36305",
					"miNotaFinal()": "d00de47a",
					"notasAlumnos(address)": "7d65fcda",
					"owner()": "8da5cb5b",
					"registrarNota(address,uint256,uint256,uint256)": "461b1d62",
					"renounceOwnership()": "715018a6",
					"transferOwnership(address)": "f2fde38b"
				}
			},
			"storageLayout": {
				"storage": [
					{
						"astId": 8,
						"contract": "contracts/20_VariosContractos.sol:RegistroNotas",
						"label": "_owner",
						"offset": 0,
						"slot": "0",
						"type": "t_address"
					},
					{
						"astId": 216,
						"contract": "contracts/20_VariosContractos.sol:RegistroNotas",
						"label": "addressCalculadora",
						"offset": 0,
						"slot": "1",
						"type": "t_address"
					},
					{
						"astId": 220,
						"contract": "contracts/20_VariosContractos.sol:RegistroNotas",
						"label": "notasAlumnos",
						"offset": 0,
						"slot": "2",
						"type": "t_mapping(t_address,t_uint256)"
					}
				],
				"types": {
					"t_address": {
						"encoding": "inplace",
						"label": "address",
						"numberOfBytes": "20"
					},
					"t_mapping(t_address,t_uint256)": {
						"encoding": "mapping",
						"key": "t_address",
						"label": "mapping(address => uint256)",
						"numberOfBytes": "32",
						"value": "t_uint256"
					},
					"t_uint256": {
						"encoding": "inplace",
						"label": "uint256",
						"numberOfBytes": "32"
					}
				}
			},
			"userdoc": {
				"kind": "user",
				"methods": {},
				"version": 1
			}
		}
	}
}