{
	"contracts/15_SimplePetAdoption.sol": {
		"SimplePetAdoption": {
			"abi": [
				{
					"inputs": [],
					"stateMutability": "nonpayable",
					"type": "constructor"
				},
				{
					"anonymous": false,
					"inputs": [
						{
							"indexed": false,
							"internalType": "address",
							"name": "adopter",
							"type": "address"
						},
						{
							"indexed": false,
							"internalType": "uint256",
							"name": "id",
							"type": "uint256"
						}
					],
					"name": "PetAdopted",
					"type": "event"
				},
				{
					"anonymous": false,
					"inputs": [
						{
							"indexed": false,
							"internalType": "string",
							"name": "name",
							"type": "string"
						},
						{
							"indexed": false,
							"internalType": "uint256",
							"name": "id",
							"type": "uint256"
						}
					],
					"name": "PetRegistered",
					"type": "event"
				},
				{
					"anonymous": false,
					"inputs": [
						{
							"indexed": false,
							"internalType": "address",
							"name": "adopter",
							"type": "address"
						},
						{
							"indexed": false,
							"internalType": "uint256",
							"name": "id",
							"type": "uint256"
						}
					],
					"name": "PetReturned",
					"type": "event"
				},
				{
					"inputs": [],
					"name": "TIME_LIMIT",
					"outputs": [
						{
							"internalType": "uint256",
							"name": "",
							"type": "uint256"
						}
					],
					"stateMutability": "view",
					"type": "function"
				},
				{
					"inputs": [
						{
							"internalType": "uint256",
							"name": "_id",
							"type": "uint256"
						}
					],
					"name": "adoptPet",
					"outputs": [],
					"stateMutability": "nonpayable",
					"type": "function"
				},
				{
					"inputs": [],
					"name": "countAdopted",
					"outputs": [
						{
							"internalType": "uint256",
							"name": "count",
							"type": "uint256"
						}
					],
					"stateMutability": "view",
					"type": "function"
				},
				{
					"inputs": [],
					"name": "owner",
					"outputs": [
						{
							"internalType": "address",
							"name": "",
							"type": "address"
						}
					],
					"stateMutability": "view",
					"type": "function"
				},
				{
					"inputs": [
						{
							"internalType": "uint256",
							"name": "",
							"type": "uint256"
						}
					],
					"name": "pets",
					"outputs": [
						{
							"internalType": "string",
							"name": "name",
							"type": "string"
						},
						{
							"internalType": "address",
							"name": "adopter",
							"type": "address"
						},
						{
							"internalType": "uint256",
							"name": "timeAdopted",
							"type": "uint256"
						}
					],
					"stateMutability": "view",
					"type": "function"
				},
				{
					"inputs": [
						{
							"internalType": "string",
							"name": "_name",
							"type": "string"
						}
					],
					"name": "registerPet",
					"outputs": [],
					"stateMutability": "nonpayable",
					"type": "function"
				},
				{
					"inputs": [
						{
							"internalType": "uint256",
							"name": "_id",
							"type": "uint256"
						}
					],
					"name": "returnPet",
					"outputs": [],
					"stateMutability": "nonpayable",
					"type": "function"
				}
			],
			"devdoc": {
				"kind": "dev",
				"methods": {},
				"version": 1
			},
			"evm": {
				"assembly": "    /* \"contracts/15_SimplePetAdoption.sol\":72:2453  contract SimplePetAdoption {... */\n  mstore(0x40, 0x80)\n    /* \"contracts/15_SimplePetAdoption.sol\":900:951  constructor() {... */\n  callvalue\n  dup1\n  iszero\n  tag_1\n  jumpi\n  revert(0x00, 0x00)\ntag_1:\n  pop\n    /* \"contracts/15_SimplePetAdoption.sol\":933:943  msg.sender */\n  caller\n    /* \"contracts/15_SimplePetAdoption.sol\":925:930  owner */\n  0x00\n  0x00\n    /* \"contracts/15_SimplePetAdoption.sol\":925:943  owner = msg.sender */\n  0x0100\n  exp\n  dup2\n  sload\n  dup2\n  0xffffffffffffffffffffffffffffffffffffffff\n  mul\n  not\n  and\n  swap1\n  dup4\n  0xffffffffffffffffffffffffffffffffffffffff\n  and\n  mul\n  or\n  swap1\n  sstore\n  pop\n    /* \"contracts/15_SimplePetAdoption.sol\":72:2453  contract SimplePetAdoption {... */\n  dataSize(sub_0)\n  dup1\n  dataOffset(sub_0)\n  0x00\n  codecopy\n  0x00\n  return\nstop\n\nsub_0: assembly {\n        /* \"contracts/15_SimplePetAdoption.sol\":72:2453  contract SimplePetAdoption {... */\n      mstore(0x40, 0x80)\n      callvalue\n      dup1\n      iszero\n      tag_1\n      jumpi\n      revert(0x00, 0x00)\n    tag_1:\n      pop\n      jumpi(tag_2, lt(calldatasize, 0x04))\n      shr(0xe0, calldataload(0x00))\n      dup1\n      0x8da5cb5b\n      gt\n      tag_10\n      jumpi\n      dup1\n      0x8da5cb5b\n      eq\n      tag_6\n      jumpi\n      dup1\n      0xbdb92e8e\n      eq\n      tag_7\n      jumpi\n      dup1\n      0xcfb869bf\n      eq\n      tag_8\n      jumpi\n      dup1\n      0xe0ce2aa9\n      eq\n      tag_9\n      jumpi\n      jump(tag_2)\n    tag_10:\n      dup1\n      0x19b81577\n      eq\n      tag_3\n      jumpi\n      dup1\n      0x680f6522\n      eq\n      tag_4\n      jumpi\n      dup1\n      0x698224ae\n      eq\n      tag_5\n      jumpi\n    tag_2:\n      revert(0x00, 0x00)\n        /* \"contracts/15_SimplePetAdoption.sol\":1251:1585  function adoptPet(uint _id) external onlyNotOwner {... */\n    tag_3:\n      tag_11\n      0x04\n      dup1\n      calldatasize\n      sub\n      dup2\n      add\n      swap1\n      tag_12\n      swap2\n      swap1\n      tag_13\n      jump\t// in\n    tag_12:\n      tag_14\n      jump\t// in\n    tag_11:\n      stop\n        /* \"contracts/15_SimplePetAdoption.sol\":2231:2450  function countAdopted() external view returns (uint count) {... */\n    tag_4:\n      tag_15\n      tag_16\n      jump\t// in\n    tag_15:\n      mload(0x40)\n      tag_17\n      swap2\n      swap1\n      tag_18\n      jump\t// in\n    tag_17:\n      mload(0x40)\n      dup1\n      swap2\n      sub\n      swap1\n      return\n        /* \"contracts/15_SimplePetAdoption.sol\":427:470  uint public constant TIME_LIMIT = 2 minutes */\n    tag_5:\n      tag_19\n      tag_20\n      jump\t// in\n    tag_19:\n      mload(0x40)\n      tag_21\n      swap2\n      swap1\n      tag_18\n      jump\t// in\n    tag_21:\n      mload(0x40)\n      dup1\n      swap2\n      sub\n      swap1\n      return\n        /* \"contracts/15_SimplePetAdoption.sol\":128:148  address public owner */\n    tag_6:\n      tag_22\n      tag_23\n      jump\t// in\n    tag_22:\n      mload(0x40)\n      tag_24\n      swap2\n      swap1\n      tag_25\n      jump\t// in\n    tag_24:\n      mload(0x40)\n      dup1\n      swap2\n      sub\n      swap1\n      return\n        /* \"contracts/15_SimplePetAdoption.sol\":1661:2163  function returnPet(uint _id) external onlyNotOwner {... */\n    tag_7:\n      tag_26\n      0x04\n      dup1\n      calldatasize\n      sub\n      dup2\n      add\n      swap1\n      tag_27\n      swap2\n      swap1\n      tag_13\n      jump\t// in\n    tag_27:\n      tag_28\n      jump\t// in\n    tag_26:\n      stop\n        /* \"contracts/15_SimplePetAdoption.sol\":701:718  Pet[] public pets */\n    tag_8:\n      tag_29\n      0x04\n      dup1\n      calldatasize\n      sub\n      dup2\n      add\n      swap1\n      tag_30\n      swap2\n      swap1\n      tag_13\n      jump\t// in\n    tag_30:\n      tag_31\n      jump\t// in\n    tag_29:\n      mload(0x40)\n      tag_32\n      swap4\n      swap3\n      swap2\n      swap1\n      tag_33\n      jump\t// in\n    tag_32:\n      mload(0x40)\n      dup1\n      swap2\n      sub\n      swap1\n      return\n        /* \"contracts/15_SimplePetAdoption.sol\":1006:1205  function registerPet(string memory _name) external onlyOwner {... */\n    tag_9:\n      tag_34\n      0x04\n      dup1\n      calldatasize\n      sub\n      dup2\n      add\n      swap1\n      tag_35\n      swap2\n      swap1\n      tag_36\n      jump\t// in\n    tag_35:\n      tag_37\n      jump\t// in\n    tag_34:\n      stop\n        /* \"contracts/15_SimplePetAdoption.sol\":1251:1585  function adoptPet(uint _id) external onlyNotOwner {... */\n    tag_14:\n        /* \"contracts/15_SimplePetAdoption.sol\":319:324  owner */\n      0x00\n      0x00\n      swap1\n      sload\n      swap1\n      0x0100\n      exp\n      swap1\n      div\n      0xffffffffffffffffffffffffffffffffffffffff\n      and\n        /* \"contracts/15_SimplePetAdoption.sol\":305:324  msg.sender != owner */\n      0xffffffffffffffffffffffffffffffffffffffff\n      and\n        /* \"contracts/15_SimplePetAdoption.sol\":305:315  msg.sender */\n      caller\n        /* \"contracts/15_SimplePetAdoption.sol\":305:324  msg.sender != owner */\n      0xffffffffffffffffffffffffffffffffffffffff\n      and\n      sub\n        /* \"contracts/15_SimplePetAdoption.sol\":297:348  require(msg.sender != owner, \"Solo para no-owners\") */\n      tag_39\n      jumpi\n      mload(0x40)\n      0x08c379a000000000000000000000000000000000000000000000000000000000\n      dup2\n      mstore\n      0x04\n      add\n      tag_40\n      swap1\n      tag_41\n      jump\t// in\n    tag_40:\n      mload(0x40)\n      dup1\n      swap2\n      sub\n      swap1\n      revert\n    tag_39:\n        /* \"contracts/15_SimplePetAdoption.sol\":1326:1330  pets */\n      0x01\n        /* \"contracts/15_SimplePetAdoption.sol\":1326:1337  pets.length */\n      dup1\n      sload\n      swap1\n      pop\n        /* \"contracts/15_SimplePetAdoption.sol\":1320:1323  _id */\n      dup2\n        /* \"contracts/15_SimplePetAdoption.sol\":1320:1337  _id < pets.length */\n      lt\n        /* \"contracts/15_SimplePetAdoption.sol\":1312:1353  require(_id < pets.length, \"ID invalido\") */\n      tag_43\n      jumpi\n      mload(0x40)\n      0x08c379a000000000000000000000000000000000000000000000000000000000\n      dup2\n      mstore\n      0x04\n      add\n      tag_44\n      swap1\n      tag_45\n      jump\t// in\n    tag_44:\n      mload(0x40)\n      dup1\n      swap2\n      sub\n      swap1\n      revert\n    tag_43:\n        /* \"contracts/15_SimplePetAdoption.sol\":1364:1377  Pet storage p */\n      0x00\n        /* \"contracts/15_SimplePetAdoption.sol\":1380:1384  pets */\n      0x01\n        /* \"contracts/15_SimplePetAdoption.sol\":1385:1388  _id */\n      dup3\n        /* \"contracts/15_SimplePetAdoption.sol\":1380:1389  pets[_id] */\n      dup2\n      sload\n      dup2\n      lt\n      tag_46\n      jumpi\n      tag_47\n      tag_48\n      jump\t// in\n    tag_47:\n    tag_46:\n      swap1\n      0x00\n      mstore\n      keccak256(0x00, 0x20)\n      swap1\n      0x03\n      mul\n      add\n        /* \"contracts/15_SimplePetAdoption.sol\":1364:1389  Pet storage p = pets[_id] */\n      swap1\n      pop\n        /* \"contracts/15_SimplePetAdoption.sol\":1429:1430  0 */\n      0x00\n        /* \"contracts/15_SimplePetAdoption.sol\":1408:1431  p.adopter == address(0) */\n      0xffffffffffffffffffffffffffffffffffffffff\n      and\n        /* \"contracts/15_SimplePetAdoption.sol\":1408:1409  p */\n      dup2\n        /* \"contracts/15_SimplePetAdoption.sol\":1408:1417  p.adopter */\n      0x01\n      add\n      0x00\n      swap1\n      sload\n      swap1\n      0x0100\n      exp\n      swap1\n      div\n      0xffffffffffffffffffffffffffffffffffffffff\n      and\n        /* \"contracts/15_SimplePetAdoption.sol\":1408:1431  p.adopter == address(0) */\n      0xffffffffffffffffffffffffffffffffffffffff\n      and\n      eq\n        /* \"contracts/15_SimplePetAdoption.sol\":1400:1455  require(p.adopter == address(0), \"Mascota ya adoptada\") */\n      tag_50\n      jumpi\n      mload(0x40)\n      0x08c379a000000000000000000000000000000000000000000000000000000000\n      dup2\n      mstore\n      0x04\n      add\n      tag_51\n      swap1\n      tag_52\n      jump\t// in\n    tag_51:\n      mload(0x40)\n      dup1\n      swap2\n      sub\n      swap1\n      revert\n    tag_50:\n        /* \"contracts/15_SimplePetAdoption.sol\":1480:1490  msg.sender */\n      caller\n        /* \"contracts/15_SimplePetAdoption.sol\":1468:1469  p */\n      dup2\n        /* \"contracts/15_SimplePetAdoption.sol\":1468:1477  p.adopter */\n      0x01\n      add\n      0x00\n        /* \"contracts/15_SimplePetAdoption.sol\":1468:1490  p.adopter = msg.sender */\n      0x0100\n      exp\n      dup2\n      sload\n      dup2\n      0xffffffffffffffffffffffffffffffffffffffff\n      mul\n      not\n      and\n      swap1\n      dup4\n      0xffffffffffffffffffffffffffffffffffffffff\n      and\n      mul\n      or\n      swap1\n      sstore\n      pop\n        /* \"contracts/15_SimplePetAdoption.sol\":1517:1532  block.timestamp */\n      timestamp\n        /* \"contracts/15_SimplePetAdoption.sol\":1501:1502  p */\n      dup2\n        /* \"contracts/15_SimplePetAdoption.sol\":1501:1514  p.timeAdopted */\n      0x02\n      add\n        /* \"contracts/15_SimplePetAdoption.sol\":1501:1532  p.timeAdopted = block.timestamp */\n      dup2\n      swap1\n      sstore\n      pop\n        /* \"contracts/15_SimplePetAdoption.sol\":1550:1577  PetAdopted(msg.sender, _id) */\n      0x34fcbadf105a17b03e10d0cbd33a726d0946b5dd79e7ea2038b0c15ccdfd3cc8\n        /* \"contracts/15_SimplePetAdoption.sol\":1561:1571  msg.sender */\n      caller\n        /* \"contracts/15_SimplePetAdoption.sol\":1573:1576  _id */\n      dup4\n        /* \"contracts/15_SimplePetAdoption.sol\":1550:1577  PetAdopted(msg.sender, _id) */\n      mload(0x40)\n      tag_53\n      swap3\n      swap2\n      swap1\n      tag_54\n      jump\t// in\n    tag_53:\n      mload(0x40)\n      dup1\n      swap2\n      sub\n      swap1\n      log1\n        /* \"contracts/15_SimplePetAdoption.sol\":1301:1585  {... */\n      pop\n        /* \"contracts/15_SimplePetAdoption.sol\":1251:1585  function adoptPet(uint _id) external onlyNotOwner {... */\n      pop\n      jump\t// out\n        /* \"contracts/15_SimplePetAdoption.sol\":2231:2450  function countAdopted() external view returns (uint count) {... */\n    tag_16:\n        /* \"contracts/15_SimplePetAdoption.sol\":2278:2288  uint count */\n      0x00\n        /* \"contracts/15_SimplePetAdoption.sol\":2306:2312  uint i */\n      0x00\n        /* \"contracts/15_SimplePetAdoption.sol\":2315:2316  0 */\n      0x00\n        /* \"contracts/15_SimplePetAdoption.sol\":2306:2316  uint i = 0 */\n      swap1\n      pop\n        /* \"contracts/15_SimplePetAdoption.sol\":2301:2443  for (uint i = 0; i < pets.length; i++) {... */\n    tag_56:\n        /* \"contracts/15_SimplePetAdoption.sol\":2322:2326  pets */\n      0x01\n        /* \"contracts/15_SimplePetAdoption.sol\":2322:2333  pets.length */\n      dup1\n      sload\n      swap1\n      pop\n        /* \"contracts/15_SimplePetAdoption.sol\":2318:2319  i */\n      dup2\n        /* \"contracts/15_SimplePetAdoption.sol\":2318:2333  i < pets.length */\n      lt\n        /* \"contracts/15_SimplePetAdoption.sol\":2301:2443  for (uint i = 0; i < pets.length; i++) {... */\n      iszero\n      tag_57\n      jumpi\n        /* \"contracts/15_SimplePetAdoption.sol\":2386:2387  0 */\n      0x00\n        /* \"contracts/15_SimplePetAdoption.sol\":2359:2388  pets[i].adopter != address(0) */\n      0xffffffffffffffffffffffffffffffffffffffff\n      and\n        /* \"contracts/15_SimplePetAdoption.sol\":2359:2363  pets */\n      0x01\n        /* \"contracts/15_SimplePetAdoption.sol\":2364:2365  i */\n      dup3\n        /* \"contracts/15_SimplePetAdoption.sol\":2359:2366  pets[i] */\n      dup2\n      sload\n      dup2\n      lt\n      tag_59\n      jumpi\n      tag_60\n      tag_48\n      jump\t// in\n    tag_60:\n    tag_59:\n      swap1\n      0x00\n      mstore\n      keccak256(0x00, 0x20)\n      swap1\n      0x03\n      mul\n      add\n        /* \"contracts/15_SimplePetAdoption.sol\":2359:2374  pets[i].adopter */\n      0x01\n      add\n      0x00\n      swap1\n      sload\n      swap1\n      0x0100\n      exp\n      swap1\n      div\n      0xffffffffffffffffffffffffffffffffffffffff\n      and\n        /* \"contracts/15_SimplePetAdoption.sol\":2359:2388  pets[i].adopter != address(0) */\n      0xffffffffffffffffffffffffffffffffffffffff\n      and\n      eq\n        /* \"contracts/15_SimplePetAdoption.sol\":2355:2432  if (pets[i].adopter != address(0)) {... */\n      tag_62\n      jumpi\n        /* \"contracts/15_SimplePetAdoption.sol\":2409:2416  count++ */\n      dup2\n      dup1\n      tag_63\n      swap1\n      tag_64\n      jump\t// in\n    tag_63:\n      swap3\n      pop\n      pop\n        /* \"contracts/15_SimplePetAdoption.sol\":2355:2432  if (pets[i].adopter != address(0)) {... */\n    tag_62:\n        /* \"contracts/15_SimplePetAdoption.sol\":2335:2338  i++ */\n      dup1\n      dup1\n      0x01\n      add\n      swap2\n      pop\n      pop\n        /* \"contracts/15_SimplePetAdoption.sol\":2301:2443  for (uint i = 0; i < pets.length; i++) {... */\n      jump(tag_56)\n    tag_57:\n      pop\n        /* \"contracts/15_SimplePetAdoption.sol\":2231:2450  function countAdopted() external view returns (uint count) {... */\n      swap1\n      jump\t// out\n        /* \"contracts/15_SimplePetAdoption.sol\":427:470  uint public constant TIME_LIMIT = 2 minutes */\n    tag_20:\n        /* \"contracts/15_SimplePetAdoption.sol\":461:470  2 minutes */\n      0x78\n        /* \"contracts/15_SimplePetAdoption.sol\":427:470  uint public constant TIME_LIMIT = 2 minutes */\n      dup2\n      jump\t// out\n        /* \"contracts/15_SimplePetAdoption.sol\":128:148  address public owner */\n    tag_23:\n      0x00\n      0x00\n      swap1\n      sload\n      swap1\n      0x0100\n      exp\n      swap1\n      div\n      0xffffffffffffffffffffffffffffffffffffffff\n      and\n      dup2\n      jump\t// out\n        /* \"contracts/15_SimplePetAdoption.sol\":1661:2163  function returnPet(uint _id) external onlyNotOwner {... */\n    tag_28:\n        /* \"contracts/15_SimplePetAdoption.sol\":319:324  owner */\n      0x00\n      0x00\n      swap1\n      sload\n      swap1\n      0x0100\n      exp\n      swap1\n      div\n      0xffffffffffffffffffffffffffffffffffffffff\n      and\n        /* \"contracts/15_SimplePetAdoption.sol\":305:324  msg.sender != owner */\n      0xffffffffffffffffffffffffffffffffffffffff\n      and\n        /* \"contracts/15_SimplePetAdoption.sol\":305:315  msg.sender */\n      caller\n        /* \"contracts/15_SimplePetAdoption.sol\":305:324  msg.sender != owner */\n      0xffffffffffffffffffffffffffffffffffffffff\n      and\n      sub\n        /* \"contracts/15_SimplePetAdoption.sol\":297:348  require(msg.sender != owner, \"Solo para no-owners\") */\n      tag_66\n      jumpi\n      mload(0x40)\n      0x08c379a000000000000000000000000000000000000000000000000000000000\n      dup2\n      mstore\n      0x04\n      add\n      tag_67\n      swap1\n      tag_41\n      jump\t// in\n    tag_67:\n      mload(0x40)\n      dup1\n      swap2\n      sub\n      swap1\n      revert\n    tag_66:\n        /* \"contracts/15_SimplePetAdoption.sol\":1737:1741  pets */\n      0x01\n        /* \"contracts/15_SimplePetAdoption.sol\":1737:1748  pets.length */\n      dup1\n      sload\n      swap1\n      pop\n        /* \"contracts/15_SimplePetAdoption.sol\":1731:1734  _id */\n      dup2\n        /* \"contracts/15_SimplePetAdoption.sol\":1731:1748  _id < pets.length */\n      lt\n        /* \"contracts/15_SimplePetAdoption.sol\":1723:1764  require(_id < pets.length, \"ID invalido\") */\n      tag_69\n      jumpi\n      mload(0x40)\n      0x08c379a000000000000000000000000000000000000000000000000000000000\n      dup2\n      mstore\n      0x04\n      add\n      tag_70\n      swap1\n      tag_45\n      jump\t// in\n    tag_70:\n      mload(0x40)\n      dup1\n      swap2\n      sub\n      swap1\n      revert\n    tag_69:\n        /* \"contracts/15_SimplePetAdoption.sol\":1775:1788  Pet storage p */\n      0x00\n        /* \"contracts/15_SimplePetAdoption.sol\":1791:1795  pets */\n      0x01\n        /* \"contracts/15_SimplePetAdoption.sol\":1796:1799  _id */\n      dup3\n        /* \"contracts/15_SimplePetAdoption.sol\":1791:1800  pets[_id] */\n      dup2\n      sload\n      dup2\n      lt\n      tag_71\n      jumpi\n      tag_72\n      tag_48\n      jump\t// in\n    tag_72:\n    tag_71:\n      swap1\n      0x00\n      mstore\n      keccak256(0x00, 0x20)\n      swap1\n      0x03\n      mul\n      add\n        /* \"contracts/15_SimplePetAdoption.sol\":1775:1800  Pet storage p = pets[_id] */\n      swap1\n      pop\n        /* \"contracts/15_SimplePetAdoption.sol\":1840:1841  0 */\n      0x00\n        /* \"contracts/15_SimplePetAdoption.sol\":1819:1842  p.adopter != address(0) */\n      0xffffffffffffffffffffffffffffffffffffffff\n      and\n        /* \"contracts/15_SimplePetAdoption.sol\":1819:1820  p */\n      dup2\n        /* \"contracts/15_SimplePetAdoption.sol\":1819:1828  p.adopter */\n      0x01\n      add\n      0x00\n      swap1\n      sload\n      swap1\n      0x0100\n      exp\n      swap1\n      div\n      0xffffffffffffffffffffffffffffffffffffffff\n      and\n        /* \"contracts/15_SimplePetAdoption.sol\":1819:1842  p.adopter != address(0) */\n      0xffffffffffffffffffffffffffffffffffffffff\n      and\n      sub\n        /* \"contracts/15_SimplePetAdoption.sol\":1811:1866  require(p.adopter != address(0), \"Mascota no adoptada\") */\n      tag_74\n      jumpi\n      mload(0x40)\n      0x08c379a000000000000000000000000000000000000000000000000000000000\n      dup2\n      mstore\n      0x04\n      add\n      tag_75\n      swap1\n      tag_76\n      jump\t// in\n    tag_75:\n      mload(0x40)\n      dup1\n      swap2\n      sub\n      swap1\n      revert\n    tag_74:\n        /* \"contracts/15_SimplePetAdoption.sol\":1898:1908  msg.sender */\n      caller\n        /* \"contracts/15_SimplePetAdoption.sol\":1885:1908  p.adopter == msg.sender */\n      0xffffffffffffffffffffffffffffffffffffffff\n      and\n        /* \"contracts/15_SimplePetAdoption.sol\":1885:1886  p */\n      dup2\n        /* \"contracts/15_SimplePetAdoption.sol\":1885:1894  p.adopter */\n      0x01\n      add\n      0x00\n      swap1\n      sload\n      swap1\n      0x0100\n      exp\n      swap1\n      div\n      0xffffffffffffffffffffffffffffffffffffffff\n      and\n        /* \"contracts/15_SimplePetAdoption.sol\":1885:1908  p.adopter == msg.sender */\n      0xffffffffffffffffffffffffffffffffffffffff\n      and\n      eq\n        /* \"contracts/15_SimplePetAdoption.sol\":1877:1933  require(p.adopter == msg.sender, \"No eres el adoptante\") */\n      tag_77\n      jumpi\n      mload(0x40)\n      0x08c379a000000000000000000000000000000000000000000000000000000000\n      dup2\n      mstore\n      0x04\n      add\n      tag_78\n      swap1\n      tag_79\n      jump\t// in\n    tag_78:\n      mload(0x40)\n      dup1\n      swap2\n      sub\n      swap1\n      revert\n    tag_77:\n        /* \"contracts/15_SimplePetAdoption.sol\":461:470  2 minutes */\n      0x78\n        /* \"contracts/15_SimplePetAdoption.sol\":1971:1972  p */\n      dup2\n        /* \"contracts/15_SimplePetAdoption.sol\":1971:1984  p.timeAdopted */\n      0x02\n      add\n      sload\n        /* \"contracts/15_SimplePetAdoption.sol\":1971:1997  p.timeAdopted + TIME_LIMIT */\n      tag_80\n      swap2\n      swap1\n      tag_81\n      jump\t// in\n    tag_80:\n        /* \"contracts/15_SimplePetAdoption.sol\":1952:1967  block.timestamp */\n      timestamp\n        /* \"contracts/15_SimplePetAdoption.sol\":1952:1997  block.timestamp <= p.timeAdopted + TIME_LIMIT */\n      gt\n      iszero\n        /* \"contracts/15_SimplePetAdoption.sol\":1944:2017  require(block.timestamp <= p.timeAdopted + TIME_LIMIT, \"Tiempo expirado\") */\n      tag_82\n      jumpi\n      mload(0x40)\n      0x08c379a000000000000000000000000000000000000000000000000000000000\n      dup2\n      mstore\n      0x04\n      add\n      tag_83\n      swap1\n      tag_84\n      jump\t// in\n    tag_83:\n      mload(0x40)\n      dup1\n      swap2\n      sub\n      swap1\n      revert\n    tag_82:\n        /* \"contracts/15_SimplePetAdoption.sol\":2030:2042  address prev */\n      0x00\n        /* \"contracts/15_SimplePetAdoption.sol\":2045:2046  p */\n      dup2\n        /* \"contracts/15_SimplePetAdoption.sol\":2045:2054  p.adopter */\n      0x01\n      add\n      0x00\n      swap1\n      sload\n      swap1\n      0x0100\n      exp\n      swap1\n      div\n      0xffffffffffffffffffffffffffffffffffffffff\n      and\n        /* \"contracts/15_SimplePetAdoption.sol\":2030:2054  address prev = p.adopter */\n      swap1\n      pop\n        /* \"contracts/15_SimplePetAdoption.sol\":2085:2086  0 */\n      0x00\n        /* \"contracts/15_SimplePetAdoption.sol\":2065:2066  p */\n      dup3\n        /* \"contracts/15_SimplePetAdoption.sol\":2065:2074  p.adopter */\n      0x01\n      add\n      0x00\n        /* \"contracts/15_SimplePetAdoption.sol\":2065:2087  p.adopter = address(0) */\n      0x0100\n      exp\n      dup2\n      sload\n      dup2\n      0xffffffffffffffffffffffffffffffffffffffff\n      mul\n      not\n      and\n      swap1\n      dup4\n      0xffffffffffffffffffffffffffffffffffffffff\n      and\n      mul\n      or\n      swap1\n      sstore\n      pop\n        /* \"contracts/15_SimplePetAdoption.sol\":2114:2115  0 */\n      0x00\n        /* \"contracts/15_SimplePetAdoption.sol\":2098:2099  p */\n      dup3\n        /* \"contracts/15_SimplePetAdoption.sol\":2098:2111  p.timeAdopted */\n      0x02\n      add\n        /* \"contracts/15_SimplePetAdoption.sol\":2098:2115  p.timeAdopted = 0 */\n      dup2\n      swap1\n      sstore\n      pop\n        /* \"contracts/15_SimplePetAdoption.sol\":2133:2155  PetReturned(prev, _id) */\n      0xa34db802bb4565905a6f6a3088fd2a40a06aaff101a9b08b6ac63cf720ce3438\n        /* \"contracts/15_SimplePetAdoption.sol\":2145:2149  prev */\n      dup2\n        /* \"contracts/15_SimplePetAdoption.sol\":2151:2154  _id */\n      dup5\n        /* \"contracts/15_SimplePetAdoption.sol\":2133:2155  PetReturned(prev, _id) */\n      mload(0x40)\n      tag_85\n      swap3\n      swap2\n      swap1\n      tag_54\n      jump\t// in\n    tag_85:\n      mload(0x40)\n      dup1\n      swap2\n      sub\n      swap1\n      log1\n        /* \"contracts/15_SimplePetAdoption.sol\":1712:2163  {... */\n      pop\n      pop\n        /* \"contracts/15_SimplePetAdoption.sol\":1661:2163  function returnPet(uint _id) external onlyNotOwner {... */\n      pop\n      jump\t// out\n        /* \"contracts/15_SimplePetAdoption.sol\":701:718  Pet[] public pets */\n    tag_31:\n      0x01\n      dup2\n      dup2\n      sload\n      dup2\n      lt\n      tag_86\n      jumpi\n      0x00\n      dup1\n      revert\n    tag_86:\n      swap1\n      0x00\n      mstore\n      keccak256(0x00, 0x20)\n      swap1\n      0x03\n      mul\n      add\n      0x00\n      swap2\n      pop\n      swap1\n      pop\n      dup1\n      0x00\n      add\n      dup1\n      sload\n      tag_88\n      swap1\n      tag_89\n      jump\t// in\n    tag_88:\n      dup1\n      0x1f\n      add\n      0x20\n      dup1\n      swap2\n      div\n      mul\n      0x20\n      add\n      mload(0x40)\n      swap1\n      dup2\n      add\n      0x40\n      mstore\n      dup1\n      swap3\n      swap2\n      swap1\n      dup2\n      dup2\n      mstore\n      0x20\n      add\n      dup3\n      dup1\n      sload\n      tag_90\n      swap1\n      tag_89\n      jump\t// in\n    tag_90:\n      dup1\n      iszero\n      tag_91\n      jumpi\n      dup1\n      0x1f\n      lt\n      tag_92\n      jumpi\n      0x0100\n      dup1\n      dup4\n      sload\n      div\n      mul\n      dup4\n      mstore\n      swap2\n      0x20\n      add\n      swap2\n      jump(tag_91)\n    tag_92:\n      dup3\n      add\n      swap2\n      swap1\n      0x00\n      mstore\n      keccak256(0x00, 0x20)\n      swap1\n    tag_93:\n      dup2\n      sload\n      dup2\n      mstore\n      swap1\n      0x01\n      add\n      swap1\n      0x20\n      add\n      dup1\n      dup4\n      gt\n      tag_93\n      jumpi\n      dup3\n      swap1\n      sub\n      0x1f\n      and\n      dup3\n      add\n      swap2\n    tag_91:\n      pop\n      pop\n      pop\n      pop\n      pop\n      swap1\n      dup1\n      0x01\n      add\n      0x00\n      swap1\n      sload\n      swap1\n      0x0100\n      exp\n      swap1\n      div\n      0xffffffffffffffffffffffffffffffffffffffff\n      and\n      swap1\n      dup1\n      0x02\n      add\n      sload\n      swap1\n      pop\n      dup4\n      jump\t// out\n        /* \"contracts/15_SimplePetAdoption.sol\":1006:1205  function registerPet(string memory _name) external onlyOwner {... */\n    tag_37:\n        /* \"contracts/15_SimplePetAdoption.sol\":211:216  owner */\n      0x00\n      0x00\n      swap1\n      sload\n      swap1\n      0x0100\n      exp\n      swap1\n      div\n      0xffffffffffffffffffffffffffffffffffffffff\n      and\n        /* \"contracts/15_SimplePetAdoption.sol\":197:216  msg.sender == owner */\n      0xffffffffffffffffffffffffffffffffffffffff\n      and\n        /* \"contracts/15_SimplePetAdoption.sol\":197:207  msg.sender */\n      caller\n        /* \"contracts/15_SimplePetAdoption.sol\":197:216  msg.sender == owner */\n      0xffffffffffffffffffffffffffffffffffffffff\n      and\n      eq\n        /* \"contracts/15_SimplePetAdoption.sol\":189:234  require(msg.sender == owner, \"Solo el owner\") */\n      tag_95\n      jumpi\n      mload(0x40)\n      0x08c379a000000000000000000000000000000000000000000000000000000000\n      dup2\n      mstore\n      0x04\n      add\n      tag_96\n      swap1\n      tag_97\n      jump\t// in\n    tag_96:\n      mload(0x40)\n      dup1\n      swap2\n      sub\n      swap1\n      revert\n    tag_95:\n        /* \"contracts/15_SimplePetAdoption.sol\":1078:1082  pets */\n      0x01\n        /* \"contracts/15_SimplePetAdoption.sol\":1088:1143  Pet({name: _name, adopter: address(0), timeAdopted: 0}) */\n      mload(0x40)\n      dup1\n      0x60\n      add\n      0x40\n      mstore\n      dup1\n        /* \"contracts/15_SimplePetAdoption.sol\":1099:1104  _name */\n      dup4\n        /* \"contracts/15_SimplePetAdoption.sol\":1088:1143  Pet({name: _name, adopter: address(0), timeAdopted: 0}) */\n      dup2\n      mstore\n      0x20\n      add\n        /* \"contracts/15_SimplePetAdoption.sol\":1123:1124  0 */\n      0x00\n        /* \"contracts/15_SimplePetAdoption.sol\":1088:1143  Pet({name: _name, adopter: address(0), timeAdopted: 0}) */\n      0xffffffffffffffffffffffffffffffffffffffff\n      and\n      dup2\n      mstore\n      0x20\n      add\n        /* \"contracts/15_SimplePetAdoption.sol\":1140:1141  0 */\n      0x00\n        /* \"contracts/15_SimplePetAdoption.sol\":1088:1143  Pet({name: _name, adopter: address(0), timeAdopted: 0}) */\n      dup2\n      mstore\n      pop\n        /* \"contracts/15_SimplePetAdoption.sol\":1078:1144  pets.push(Pet({name: _name, adopter: address(0), timeAdopted: 0})) */\n      swap1\n      dup1\n      0x01\n      dup2\n      sload\n      add\n      dup1\n      dup3\n      sstore\n      dup1\n      swap2\n      pop\n      pop\n      0x01\n      swap1\n      sub\n      swap1\n      0x00\n      mstore\n      keccak256(0x00, 0x20)\n      swap1\n      0x03\n      mul\n      add\n      0x00\n      swap1\n      swap2\n      swap1\n      swap2\n      swap1\n      swap2\n      pop\n      0x00\n      dup3\n      add\n      mload\n      dup2\n      0x00\n      add\n      swap1\n      dup2\n      tag_100\n      swap2\n      swap1\n      tag_101\n      jump\t// in\n    tag_100:\n      pop\n      0x20\n      dup3\n      add\n      mload\n      dup2\n      0x01\n      add\n      exp(0x0100, 0x00)\n      dup2\n      sload\n      dup2\n      0xffffffffffffffffffffffffffffffffffffffff\n      mul\n      not\n      and\n      swap1\n      dup4\n      0xffffffffffffffffffffffffffffffffffffffff\n      and\n      mul\n      or\n      swap1\n      sstore\n      pop\n      0x40\n      dup3\n      add\n      mload\n      dup2\n      0x02\n      add\n      sstore\n      pop\n      pop\n        /* \"contracts/15_SimplePetAdoption.sol\":1160:1197  PetRegistered(_name, pets.length - 1) */\n      0x1941c38e8c58c67971f5cf6f3e58dcb9e6e74456306322a325b2ac6660bd1a51\n        /* \"contracts/15_SimplePetAdoption.sol\":1174:1179  _name */\n      dup2\n        /* \"contracts/15_SimplePetAdoption.sol\":1195:1196  1 */\n      0x01\n        /* \"contracts/15_SimplePetAdoption.sol\":1181:1185  pets */\n      dup1\n        /* \"contracts/15_SimplePetAdoption.sol\":1181:1192  pets.length */\n      dup1\n      sload\n      swap1\n      pop\n        /* \"contracts/15_SimplePetAdoption.sol\":1181:1196  pets.length - 1 */\n      tag_102\n      swap2\n      swap1\n      tag_103\n      jump\t// in\n    tag_102:\n        /* \"contracts/15_SimplePetAdoption.sol\":1160:1197  PetRegistered(_name, pets.length - 1) */\n      mload(0x40)\n      tag_104\n      swap3\n      swap2\n      swap1\n      tag_105\n      jump\t// in\n    tag_104:\n      mload(0x40)\n      dup1\n      swap2\n      sub\n      swap1\n      log1\n        /* \"contracts/15_SimplePetAdoption.sol\":1006:1205  function registerPet(string memory _name) external onlyOwner {... */\n      pop\n      jump\t// out\n        /* \"#utility.yul\":7:82   */\n    tag_106:\n        /* \"#utility.yul\":40:46   */\n      0x00\n        /* \"#utility.yul\":73:75   */\n      0x40\n        /* \"#utility.yul\":67:76   */\n      mload\n        /* \"#utility.yul\":57:76   */\n      swap1\n      pop\n        /* \"#utility.yul\":7:82   */\n      swap1\n      jump\t// out\n        /* \"#utility.yul\":88:205   */\n    tag_107:\n        /* \"#utility.yul\":197:198   */\n      0x00\n        /* \"#utility.yul\":194:195   */\n      0x00\n        /* \"#utility.yul\":187:199   */\n      revert\n        /* \"#utility.yul\":211:328   */\n    tag_108:\n        /* \"#utility.yul\":320:321   */\n      0x00\n        /* \"#utility.yul\":317:318   */\n      0x00\n        /* \"#utility.yul\":310:322   */\n      revert\n        /* \"#utility.yul\":334:411   */\n    tag_109:\n        /* \"#utility.yul\":371:378   */\n      0x00\n        /* \"#utility.yul\":400:405   */\n      dup2\n        /* \"#utility.yul\":389:405   */\n      swap1\n      pop\n        /* \"#utility.yul\":334:411   */\n      swap2\n      swap1\n      pop\n      jump\t// out\n        /* \"#utility.yul\":417:539   */\n    tag_110:\n        /* \"#utility.yul\":490:514   */\n      tag_167\n        /* \"#utility.yul\":508:513   */\n      dup2\n        /* \"#utility.yul\":490:514   */\n      tag_109\n      jump\t// in\n    tag_167:\n        /* \"#utility.yul\":483:488   */\n      dup2\n        /* \"#utility.yul\":480:515   */\n      eq\n        /* \"#utility.yul\":470:533   */\n      tag_168\n      jumpi\n        /* \"#utility.yul\":529:530   */\n      0x00\n        /* \"#utility.yul\":526:527   */\n      0x00\n        /* \"#utility.yul\":519:531   */\n      revert\n        /* \"#utility.yul\":470:533   */\n    tag_168:\n        /* \"#utility.yul\":417:539   */\n      pop\n      jump\t// out\n        /* \"#utility.yul\":545:684   */\n    tag_111:\n        /* \"#utility.yul\":591:596   */\n      0x00\n        /* \"#utility.yul\":629:635   */\n      dup2\n        /* \"#utility.yul\":616:636   */\n      calldataload\n        /* \"#utility.yul\":607:636   */\n      swap1\n      pop\n        /* \"#utility.yul\":645:678   */\n      tag_170\n        /* \"#utility.yul\":672:677   */\n      dup2\n        /* \"#utility.yul\":645:678   */\n      tag_110\n      jump\t// in\n    tag_170:\n        /* \"#utility.yul\":545:684   */\n      swap3\n      swap2\n      pop\n      pop\n      jump\t// out\n        /* \"#utility.yul\":690:1019   */\n    tag_13:\n        /* \"#utility.yul\":749:755   */\n      0x00\n        /* \"#utility.yul\":798:800   */\n      0x20\n        /* \"#utility.yul\":786:795   */\n      dup3\n        /* \"#utility.yul\":777:784   */\n      dup5\n        /* \"#utility.yul\":773:796   */\n      sub\n        /* \"#utility.yul\":769:801   */\n      slt\n        /* \"#utility.yul\":766:885   */\n      iszero\n      tag_172\n      jumpi\n        /* \"#utility.yul\":804:883   */\n      tag_173\n      tag_107\n      jump\t// in\n    tag_173:\n        /* \"#utility.yul\":766:885   */\n    tag_172:\n        /* \"#utility.yul\":924:925   */\n      0x00\n        /* \"#utility.yul\":949:1002   */\n      tag_174\n        /* \"#utility.yul\":994:1001   */\n      dup5\n        /* \"#utility.yul\":985:991   */\n      dup3\n        /* \"#utility.yul\":974:983   */\n      dup6\n        /* \"#utility.yul\":970:992   */\n      add\n        /* \"#utility.yul\":949:1002   */\n      tag_111\n      jump\t// in\n    tag_174:\n        /* \"#utility.yul\":939:1002   */\n      swap2\n      pop\n        /* \"#utility.yul\":895:1012   */\n      pop\n        /* \"#utility.yul\":690:1019   */\n      swap3\n      swap2\n      pop\n      pop\n      jump\t// out\n        /* \"#utility.yul\":1025:1143   */\n    tag_112:\n        /* \"#utility.yul\":1112:1136   */\n      tag_176\n        /* \"#utility.yul\":1130:1135   */\n      dup2\n        /* \"#utility.yul\":1112:1136   */\n      tag_109\n      jump\t// in\n    tag_176:\n        /* \"#utility.yul\":1107:1110   */\n      dup3\n        /* \"#utility.yul\":1100:1137   */\n      mstore\n        /* \"#utility.yul\":1025:1143   */\n      pop\n      pop\n      jump\t// out\n        /* \"#utility.yul\":1149:1371   */\n    tag_18:\n        /* \"#utility.yul\":1242:1246   */\n      0x00\n        /* \"#utility.yul\":1280:1282   */\n      0x20\n        /* \"#utility.yul\":1269:1278   */\n      dup3\n        /* \"#utility.yul\":1265:1283   */\n      add\n        /* \"#utility.yul\":1257:1283   */\n      swap1\n      pop\n        /* \"#utility.yul\":1293:1364   */\n      tag_178\n        /* \"#utility.yul\":1361:1362   */\n      0x00\n        /* \"#utility.yul\":1350:1359   */\n      dup4\n        /* \"#utility.yul\":1346:1363   */\n      add\n        /* \"#utility.yul\":1337:1343   */\n      dup5\n        /* \"#utility.yul\":1293:1364   */\n      tag_112\n      jump\t// in\n    tag_178:\n        /* \"#utility.yul\":1149:1371   */\n      swap3\n      swap2\n      pop\n      pop\n      jump\t// out\n        /* \"#utility.yul\":1377:1503   */\n    tag_113:\n        /* \"#utility.yul\":1414:1421   */\n      0x00\n        /* \"#utility.yul\":1454:1496   */\n      0xffffffffffffffffffffffffffffffffffffffff\n        /* \"#utility.yul\":1447:1452   */\n      dup3\n        /* \"#utility.yul\":1443:1497   */\n      and\n        /* \"#utility.yul\":1432:1497   */\n      swap1\n      pop\n        /* \"#utility.yul\":1377:1503   */\n      swap2\n      swap1\n      pop\n      jump\t// out\n        /* \"#utility.yul\":1509:1605   */\n    tag_114:\n        /* \"#utility.yul\":1546:1553   */\n      0x00\n        /* \"#utility.yul\":1575:1599   */\n      tag_181\n        /* \"#utility.yul\":1593:1598   */\n      dup3\n        /* \"#utility.yul\":1575:1599   */\n      tag_113\n      jump\t// in\n    tag_181:\n        /* \"#utility.yul\":1564:1599   */\n      swap1\n      pop\n        /* \"#utility.yul\":1509:1605   */\n      swap2\n      swap1\n      pop\n      jump\t// out\n        /* \"#utility.yul\":1611:1729   */\n    tag_115:\n        /* \"#utility.yul\":1698:1722   */\n      tag_183\n        /* \"#utility.yul\":1716:1721   */\n      dup2\n        /* \"#utility.yul\":1698:1722   */\n      tag_114\n      jump\t// in\n    tag_183:\n        /* \"#utility.yul\":1693:1696   */\n      dup3\n        /* \"#utility.yul\":1686:1723   */\n      mstore\n        /* \"#utility.yul\":1611:1729   */\n      pop\n      pop\n      jump\t// out\n        /* \"#utility.yul\":1735:1957   */\n    tag_25:\n        /* \"#utility.yul\":1828:1832   */\n      0x00\n        /* \"#utility.yul\":1866:1868   */\n      0x20\n        /* \"#utility.yul\":1855:1864   */\n      dup3\n        /* \"#utility.yul\":1851:1869   */\n      add\n        /* \"#utility.yul\":1843:1869   */\n      swap1\n      pop\n        /* \"#utility.yul\":1879:1950   */\n      tag_185\n        /* \"#utility.yul\":1947:1948   */\n      0x00\n        /* \"#utility.yul\":1936:1945   */\n      dup4\n        /* \"#utility.yul\":1932:1949   */\n      add\n        /* \"#utility.yul\":1923:1929   */\n      dup5\n        /* \"#utility.yul\":1879:1950   */\n      tag_115\n      jump\t// in\n    tag_185:\n        /* \"#utility.yul\":1735:1957   */\n      swap3\n      swap2\n      pop\n      pop\n      jump\t// out\n        /* \"#utility.yul\":1963:2062   */\n    tag_116:\n        /* \"#utility.yul\":2015:2021   */\n      0x00\n        /* \"#utility.yul\":2049:2054   */\n      dup2\n        /* \"#utility.yul\":2043:2055   */\n      mload\n        /* \"#utility.yul\":2033:2055   */\n      swap1\n      pop\n        /* \"#utility.yul\":1963:2062   */\n      swap2\n      swap1\n      pop\n      jump\t// out\n        /* \"#utility.yul\":2068:2237   */\n    tag_117:\n        /* \"#utility.yul\":2152:2163   */\n      0x00\n        /* \"#utility.yul\":2186:2192   */\n      dup3\n        /* \"#utility.yul\":2181:2184   */\n      dup3\n        /* \"#utility.yul\":2174:2193   */\n      mstore\n        /* \"#utility.yul\":2226:2230   */\n      0x20\n        /* \"#utility.yul\":2221:2224   */\n      dup3\n        /* \"#utility.yul\":2217:2231   */\n      add\n        /* \"#utility.yul\":2202:2231   */\n      swap1\n      pop\n        /* \"#utility.yul\":2068:2237   */\n      swap3\n      swap2\n      pop\n      pop\n      jump\t// out\n        /* \"#utility.yul\":2243:2382   */\n    tag_118:\n        /* \"#utility.yul\":2332:2338   */\n      dup3\n        /* \"#utility.yul\":2327:2330   */\n      dup2\n        /* \"#utility.yul\":2322:2325   */\n      dup4\n        /* \"#utility.yul\":2316:2339   */\n      mcopy\n        /* \"#utility.yul\":2373:2374   */\n      0x00\n        /* \"#utility.yul\":2364:2370   */\n      dup4\n        /* \"#utility.yul\":2359:2362   */\n      dup4\n        /* \"#utility.yul\":2355:2371   */\n      add\n        /* \"#utility.yul\":2348:2375   */\n      mstore\n        /* \"#utility.yul\":2243:2382   */\n      pop\n      pop\n      pop\n      jump\t// out\n        /* \"#utility.yul\":2388:2490   */\n    tag_119:\n        /* \"#utility.yul\":2429:2435   */\n      0x00\n        /* \"#utility.yul\":2480:2482   */\n      0x1f\n        /* \"#utility.yul\":2476:2483   */\n      not\n        /* \"#utility.yul\":2471:2473   */\n      0x1f\n        /* \"#utility.yul\":2464:2469   */\n      dup4\n        /* \"#utility.yul\":2460:2474   */\n      add\n        /* \"#utility.yul\":2456:2484   */\n      and\n        /* \"#utility.yul\":2446:2484   */\n      swap1\n      pop\n        /* \"#utility.yul\":2388:2490   */\n      swap2\n      swap1\n      pop\n      jump\t// out\n        /* \"#utility.yul\":2496:2873   */\n    tag_120:\n        /* \"#utility.yul\":2584:2587   */\n      0x00\n        /* \"#utility.yul\":2612:2651   */\n      tag_191\n        /* \"#utility.yul\":2645:2650   */\n      dup3\n        /* \"#utility.yul\":2612:2651   */\n      tag_116\n      jump\t// in\n    tag_191:\n        /* \"#utility.yul\":2667:2738   */\n      tag_192\n        /* \"#utility.yul\":2731:2737   */\n      dup2\n        /* \"#utility.yul\":2726:2729   */\n      dup6\n        /* \"#utility.yul\":2667:2738   */\n      tag_117\n      jump\t// in\n    tag_192:\n        /* \"#utility.yul\":2660:2738   */\n      swap4\n      pop\n        /* \"#utility.yul\":2747:2812   */\n      tag_193\n        /* \"#utility.yul\":2805:2811   */\n      dup2\n        /* \"#utility.yul\":2800:2803   */\n      dup6\n        /* \"#utility.yul\":2793:2797   */\n      0x20\n        /* \"#utility.yul\":2786:2791   */\n      dup7\n        /* \"#utility.yul\":2782:2798   */\n      add\n        /* \"#utility.yul\":2747:2812   */\n      tag_118\n      jump\t// in\n    tag_193:\n        /* \"#utility.yul\":2837:2866   */\n      tag_194\n        /* \"#utility.yul\":2859:2865   */\n      dup2\n        /* \"#utility.yul\":2837:2866   */\n      tag_119\n      jump\t// in\n    tag_194:\n        /* \"#utility.yul\":2832:2835   */\n      dup5\n        /* \"#utility.yul\":2828:2867   */\n      add\n        /* \"#utility.yul\":2821:2867   */\n      swap2\n      pop\n        /* \"#utility.yul\":2588:2873   */\n      pop\n        /* \"#utility.yul\":2496:2873   */\n      swap3\n      swap2\n      pop\n      pop\n      jump\t// out\n        /* \"#utility.yul\":2879:3412   */\n    tag_33:\n        /* \"#utility.yul\":3048:3052   */\n      0x00\n        /* \"#utility.yul\":3086:3088   */\n      0x60\n        /* \"#utility.yul\":3075:3084   */\n      dup3\n        /* \"#utility.yul\":3071:3089   */\n      add\n        /* \"#utility.yul\":3063:3089   */\n      swap1\n      pop\n        /* \"#utility.yul\":3135:3144   */\n      dup2\n        /* \"#utility.yul\":3129:3133   */\n      dup2\n        /* \"#utility.yul\":3125:3145   */\n      sub\n        /* \"#utility.yul\":3121:3122   */\n      0x00\n        /* \"#utility.yul\":3110:3119   */\n      dup4\n        /* \"#utility.yul\":3106:3123   */\n      add\n        /* \"#utility.yul\":3099:3146   */\n      mstore\n        /* \"#utility.yul\":3163:3241   */\n      tag_196\n        /* \"#utility.yul\":3236:3240   */\n      dup2\n        /* \"#utility.yul\":3227:3233   */\n      dup7\n        /* \"#utility.yul\":3163:3241   */\n      tag_120\n      jump\t// in\n    tag_196:\n        /* \"#utility.yul\":3155:3241   */\n      swap1\n      pop\n        /* \"#utility.yul\":3251:3323   */\n      tag_197\n        /* \"#utility.yul\":3319:3321   */\n      0x20\n        /* \"#utility.yul\":3308:3317   */\n      dup4\n        /* \"#utility.yul\":3304:3322   */\n      add\n        /* \"#utility.yul\":3295:3301   */\n      dup6\n        /* \"#utility.yul\":3251:3323   */\n      tag_115\n      jump\t// in\n    tag_197:\n        /* \"#utility.yul\":3333:3405   */\n      tag_198\n        /* \"#utility.yul\":3401:3403   */\n      0x40\n        /* \"#utility.yul\":3390:3399   */\n      dup4\n        /* \"#utility.yul\":3386:3404   */\n      add\n        /* \"#utility.yul\":3377:3383   */\n      dup5\n        /* \"#utility.yul\":3333:3405   */\n      tag_112\n      jump\t// in\n    tag_198:\n        /* \"#utility.yul\":2879:3412   */\n      swap5\n      swap4\n      pop\n      pop\n      pop\n      pop\n      jump\t// out\n        /* \"#utility.yul\":3418:3535   */\n    tag_121:\n        /* \"#utility.yul\":3527:3528   */\n      0x00\n        /* \"#utility.yul\":3524:3525   */\n      0x00\n        /* \"#utility.yul\":3517:3529   */\n      revert\n        /* \"#utility.yul\":3541:3658   */\n    tag_122:\n        /* \"#utility.yul\":3650:3651   */\n      0x00\n        /* \"#utility.yul\":3647:3648   */\n      0x00\n        /* \"#utility.yul\":3640:3652   */\n      revert\n        /* \"#utility.yul\":3664:3844   */\n    tag_123:\n        /* \"#utility.yul\":3712:3789   */\n      0x4e487b7100000000000000000000000000000000000000000000000000000000\n        /* \"#utility.yul\":3709:3710   */\n      0x00\n        /* \"#utility.yul\":3702:3790   */\n      mstore\n        /* \"#utility.yul\":3809:3813   */\n      0x41\n        /* \"#utility.yul\":3806:3807   */\n      0x04\n        /* \"#utility.yul\":3799:3814   */\n      mstore\n        /* \"#utility.yul\":3833:3837   */\n      0x24\n        /* \"#utility.yul\":3830:3831   */\n      0x00\n        /* \"#utility.yul\":3823:3838   */\n      revert\n        /* \"#utility.yul\":3850:4131   */\n    tag_124:\n        /* \"#utility.yul\":3933:3960   */\n      tag_203\n        /* \"#utility.yul\":3955:3959   */\n      dup3\n        /* \"#utility.yul\":3933:3960   */\n      tag_119\n      jump\t// in\n    tag_203:\n        /* \"#utility.yul\":3925:3931   */\n      dup2\n        /* \"#utility.yul\":3921:3961   */\n      add\n        /* \"#utility.yul\":4063:4069   */\n      dup2\n        /* \"#utility.yul\":4051:4061   */\n      dup2\n        /* \"#utility.yul\":4048:4070   */\n      lt\n        /* \"#utility.yul\":4027:4045   */\n      0xffffffffffffffff\n        /* \"#utility.yul\":4015:4025   */\n      dup3\n        /* \"#utility.yul\":4012:4046   */\n      gt\n        /* \"#utility.yul\":4009:4071   */\n      or\n        /* \"#utility.yul\":4006:4094   */\n      iszero\n      tag_204\n      jumpi\n        /* \"#utility.yul\":4074:4092   */\n      tag_205\n      tag_123\n      jump\t// in\n    tag_205:\n        /* \"#utility.yul\":4006:4094   */\n    tag_204:\n        /* \"#utility.yul\":4114:4124   */\n      dup1\n        /* \"#utility.yul\":4110:4112   */\n      0x40\n        /* \"#utility.yul\":4103:4125   */\n      mstore\n        /* \"#utility.yul\":3893:4131   */\n      pop\n        /* \"#utility.yul\":3850:4131   */\n      pop\n      pop\n      jump\t// out\n        /* \"#utility.yul\":4137:4266   */\n    tag_125:\n        /* \"#utility.yul\":4171:4177   */\n      0x00\n        /* \"#utility.yul\":4198:4218   */\n      tag_207\n      tag_106\n      jump\t// in\n    tag_207:\n        /* \"#utility.yul\":4188:4218   */\n      swap1\n      pop\n        /* \"#utility.yul\":4227:4260   */\n      tag_208\n        /* \"#utility.yul\":4255:4259   */\n      dup3\n        /* \"#utility.yul\":4247:4253   */\n      dup3\n        /* \"#utility.yul\":4227:4260   */\n      tag_124\n      jump\t// in\n    tag_208:\n        /* \"#utility.yul\":4137:4266   */\n      swap2\n      swap1\n      pop\n      jump\t// out\n        /* \"#utility.yul\":4272:4580   */\n    tag_126:\n        /* \"#utility.yul\":4334:4338   */\n      0x00\n        /* \"#utility.yul\":4424:4442   */\n      0xffffffffffffffff\n        /* \"#utility.yul\":4416:4422   */\n      dup3\n        /* \"#utility.yul\":4413:4443   */\n      gt\n        /* \"#utility.yul\":4410:4466   */\n      iszero\n      tag_210\n      jumpi\n        /* \"#utility.yul\":4446:4464   */\n      tag_211\n      tag_123\n      jump\t// in\n    tag_211:\n        /* \"#utility.yul\":4410:4466   */\n    tag_210:\n        /* \"#utility.yul\":4484:4513   */\n      tag_212\n        /* \"#utility.yul\":4506:4512   */\n      dup3\n        /* \"#utility.yul\":4484:4513   */\n      tag_119\n      jump\t// in\n    tag_212:\n        /* \"#utility.yul\":4476:4513   */\n      swap1\n      pop\n        /* \"#utility.yul\":4568:4572   */\n      0x20\n        /* \"#utility.yul\":4562:4566   */\n      dup2\n        /* \"#utility.yul\":4558:4573   */\n      add\n        /* \"#utility.yul\":4550:4573   */\n      swap1\n      pop\n        /* \"#utility.yul\":4272:4580   */\n      swap2\n      swap1\n      pop\n      jump\t// out\n        /* \"#utility.yul\":4586:4734   */\n    tag_127:\n        /* \"#utility.yul\":4684:4690   */\n      dup3\n        /* \"#utility.yul\":4679:4682   */\n      dup2\n        /* \"#utility.yul\":4674:4677   */\n      dup4\n        /* \"#utility.yul\":4661:4691   */\n      calldatacopy\n        /* \"#utility.yul\":4725:4726   */\n      0x00\n        /* \"#utility.yul\":4716:4722   */\n      dup4\n        /* \"#utility.yul\":4711:4714   */\n      dup4\n        /* \"#utility.yul\":4707:4723   */\n      add\n        /* \"#utility.yul\":4700:4727   */\n      mstore\n        /* \"#utility.yul\":4586:4734   */\n      pop\n      pop\n      pop\n      jump\t// out\n        /* \"#utility.yul\":4740:5165   */\n    tag_128:\n        /* \"#utility.yul\":4818:4823   */\n      0x00\n        /* \"#utility.yul\":4843:4909   */\n      tag_215\n        /* \"#utility.yul\":4859:4908   */\n      tag_216\n        /* \"#utility.yul\":4901:4907   */\n      dup5\n        /* \"#utility.yul\":4859:4908   */\n      tag_126\n      jump\t// in\n    tag_216:\n        /* \"#utility.yul\":4843:4909   */\n      tag_125\n      jump\t// in\n    tag_215:\n        /* \"#utility.yul\":4834:4909   */\n      swap1\n      pop\n        /* \"#utility.yul\":4932:4938   */\n      dup3\n        /* \"#utility.yul\":4925:4930   */\n      dup2\n        /* \"#utility.yul\":4918:4939   */\n      mstore\n        /* \"#utility.yul\":4970:4974   */\n      0x20\n        /* \"#utility.yul\":4963:4968   */\n      dup2\n        /* \"#utility.yul\":4959:4975   */\n      add\n        /* \"#utility.yul\":5008:5011   */\n      dup5\n        /* \"#utility.yul\":4999:5005   */\n      dup5\n        /* \"#utility.yul\":4994:4997   */\n      dup5\n        /* \"#utility.yul\":4990:5006   */\n      add\n        /* \"#utility.yul\":4987:5012   */\n      gt\n        /* \"#utility.yul\":4984:5096   */\n      iszero\n      tag_217\n      jumpi\n        /* \"#utility.yul\":5015:5094   */\n      tag_218\n      tag_122\n      jump\t// in\n    tag_218:\n        /* \"#utility.yul\":4984:5096   */\n    tag_217:\n        /* \"#utility.yul\":5105:5159   */\n      tag_219\n        /* \"#utility.yul\":5152:5158   */\n      dup5\n        /* \"#utility.yul\":5147:5150   */\n      dup3\n        /* \"#utility.yul\":5142:5145   */\n      dup6\n        /* \"#utility.yul\":5105:5159   */\n      tag_127\n      jump\t// in\n    tag_219:\n        /* \"#utility.yul\":4824:5165   */\n      pop\n        /* \"#utility.yul\":4740:5165   */\n      swap4\n      swap3\n      pop\n      pop\n      pop\n      jump\t// out\n        /* \"#utility.yul\":5185:5525   */\n    tag_129:\n        /* \"#utility.yul\":5241:5246   */\n      0x00\n        /* \"#utility.yul\":5290:5293   */\n      dup3\n        /* \"#utility.yul\":5283:5287   */\n      0x1f\n        /* \"#utility.yul\":5275:5281   */\n      dup4\n        /* \"#utility.yul\":5271:5288   */\n      add\n        /* \"#utility.yul\":5267:5294   */\n      slt\n        /* \"#utility.yul\":5257:5379   */\n      tag_221\n      jumpi\n        /* \"#utility.yul\":5298:5377   */\n      tag_222\n      tag_121\n      jump\t// in\n    tag_222:\n        /* \"#utility.yul\":5257:5379   */\n    tag_221:\n        /* \"#utility.yul\":5415:5421   */\n      dup2\n        /* \"#utility.yul\":5402:5422   */\n      calldataload\n        /* \"#utility.yul\":5440:5519   */\n      tag_223\n        /* \"#utility.yul\":5515:5518   */\n      dup5\n        /* \"#utility.yul\":5507:5513   */\n      dup3\n        /* \"#utility.yul\":5500:5504   */\n      0x20\n        /* \"#utility.yul\":5492:5498   */\n      dup7\n        /* \"#utility.yul\":5488:5505   */\n      add\n        /* \"#utility.yul\":5440:5519   */\n      tag_128\n      jump\t// in\n    tag_223:\n        /* \"#utility.yul\":5431:5519   */\n      swap2\n      pop\n        /* \"#utility.yul\":5247:5525   */\n      pop\n        /* \"#utility.yul\":5185:5525   */\n      swap3\n      swap2\n      pop\n      pop\n      jump\t// out\n        /* \"#utility.yul\":5531:6040   */\n    tag_36:\n        /* \"#utility.yul\":5600:5606   */\n      0x00\n        /* \"#utility.yul\":5649:5651   */\n      0x20\n        /* \"#utility.yul\":5637:5646   */\n      dup3\n        /* \"#utility.yul\":5628:5635   */\n      dup5\n        /* \"#utility.yul\":5624:5647   */\n      sub\n        /* \"#utility.yul\":5620:5652   */\n      slt\n        /* \"#utility.yul\":5617:5736   */\n      iszero\n      tag_225\n      jumpi\n        /* \"#utility.yul\":5655:5734   */\n      tag_226\n      tag_107\n      jump\t// in\n    tag_226:\n        /* \"#utility.yul\":5617:5736   */\n    tag_225:\n        /* \"#utility.yul\":5803:5804   */\n      0x00\n        /* \"#utility.yul\":5792:5801   */\n      dup3\n        /* \"#utility.yul\":5788:5805   */\n      add\n        /* \"#utility.yul\":5775:5806   */\n      calldataload\n        /* \"#utility.yul\":5833:5851   */\n      0xffffffffffffffff\n        /* \"#utility.yul\":5825:5831   */\n      dup2\n        /* \"#utility.yul\":5822:5852   */\n      gt\n        /* \"#utility.yul\":5819:5936   */\n      iszero\n      tag_227\n      jumpi\n        /* \"#utility.yul\":5855:5934   */\n      tag_228\n      tag_108\n      jump\t// in\n    tag_228:\n        /* \"#utility.yul\":5819:5936   */\n    tag_227:\n        /* \"#utility.yul\":5960:6023   */\n      tag_229\n        /* \"#utility.yul\":6015:6022   */\n      dup5\n        /* \"#utility.yul\":6006:6012   */\n      dup3\n        /* \"#utility.yul\":5995:6004   */\n      dup6\n        /* \"#utility.yul\":5991:6013   */\n      add\n        /* \"#utility.yul\":5960:6023   */\n      tag_129\n      jump\t// in\n    tag_229:\n        /* \"#utility.yul\":5950:6023   */\n      swap2\n      pop\n        /* \"#utility.yul\":5746:6033   */\n      pop\n        /* \"#utility.yul\":5531:6040   */\n      swap3\n      swap2\n      pop\n      pop\n      jump\t// out\n        /* \"#utility.yul\":6046:6215   */\n    tag_130:\n        /* \"#utility.yul\":6186:6207   */\n      0x536f6c6f2070617261206e6f2d6f776e65727300000000000000000000000000\n        /* \"#utility.yul\":6182:6183   */\n      0x00\n        /* \"#utility.yul\":6174:6180   */\n      dup3\n        /* \"#utility.yul\":6170:6184   */\n      add\n        /* \"#utility.yul\":6163:6208   */\n      mstore\n        /* \"#utility.yul\":6046:6215   */\n      pop\n      jump\t// out\n        /* \"#utility.yul\":6221:6587   */\n    tag_131:\n        /* \"#utility.yul\":6363:6366   */\n      0x00\n        /* \"#utility.yul\":6384:6451   */\n      tag_232\n        /* \"#utility.yul\":6448:6450   */\n      0x13\n        /* \"#utility.yul\":6443:6446   */\n      dup4\n        /* \"#utility.yul\":6384:6451   */\n      tag_117\n      jump\t// in\n    tag_232:\n        /* \"#utility.yul\":6377:6451   */\n      swap2\n      pop\n        /* \"#utility.yul\":6460:6553   */\n      tag_233\n        /* \"#utility.yul\":6549:6552   */\n      dup3\n        /* \"#utility.yul\":6460:6553   */\n      tag_130\n      jump\t// in\n    tag_233:\n        /* \"#utility.yul\":6578:6580   */\n      0x20\n        /* \"#utility.yul\":6573:6576   */\n      dup3\n        /* \"#utility.yul\":6569:6581   */\n      add\n        /* \"#utility.yul\":6562:6581   */\n      swap1\n      pop\n        /* \"#utility.yul\":6221:6587   */\n      swap2\n      swap1\n      pop\n      jump\t// out\n        /* \"#utility.yul\":6593:7012   */\n    tag_41:\n        /* \"#utility.yul\":6759:6763   */\n      0x00\n        /* \"#utility.yul\":6797:6799   */\n      0x20\n        /* \"#utility.yul\":6786:6795   */\n      dup3\n        /* \"#utility.yul\":6782:6800   */\n      add\n        /* \"#utility.yul\":6774:6800   */\n      swap1\n      pop\n        /* \"#utility.yul\":6846:6855   */\n      dup2\n        /* \"#utility.yul\":6840:6844   */\n      dup2\n        /* \"#utility.yul\":6836:6856   */\n      sub\n        /* \"#utility.yul\":6832:6833   */\n      0x00\n        /* \"#utility.yul\":6821:6830   */\n      dup4\n        /* \"#utility.yul\":6817:6834   */\n      add\n        /* \"#utility.yul\":6810:6857   */\n      mstore\n        /* \"#utility.yul\":6874:7005   */\n      tag_235\n        /* \"#utility.yul\":7000:7004   */\n      dup2\n        /* \"#utility.yul\":6874:7005   */\n      tag_131\n      jump\t// in\n    tag_235:\n        /* \"#utility.yul\":6866:7005   */\n      swap1\n      pop\n        /* \"#utility.yul\":6593:7012   */\n      swap2\n      swap1\n      pop\n      jump\t// out\n        /* \"#utility.yul\":7018:7179   */\n    tag_132:\n        /* \"#utility.yul\":7158:7171   */\n      0x494420696e76616c69646f000000000000000000000000000000000000000000\n        /* \"#utility.yul\":7154:7155   */\n      0x00\n        /* \"#utility.yul\":7146:7152   */\n      dup3\n        /* \"#utility.yul\":7142:7156   */\n      add\n        /* \"#utility.yul\":7135:7172   */\n      mstore\n        /* \"#utility.yul\":7018:7179   */\n      pop\n      jump\t// out\n        /* \"#utility.yul\":7185:7551   */\n    tag_133:\n        /* \"#utility.yul\":7327:7330   */\n      0x00\n        /* \"#utility.yul\":7348:7415   */\n      tag_238\n        /* \"#utility.yul\":7412:7414   */\n      0x0b\n        /* \"#utility.yul\":7407:7410   */\n      dup4\n        /* \"#utility.yul\":7348:7415   */\n      tag_117\n      jump\t// in\n    tag_238:\n        /* \"#utility.yul\":7341:7415   */\n      swap2\n      pop\n        /* \"#utility.yul\":7424:7517   */\n      tag_239\n        /* \"#utility.yul\":7513:7516   */\n      dup3\n        /* \"#utility.yul\":7424:7517   */\n      tag_132\n      jump\t// in\n    tag_239:\n        /* \"#utility.yul\":7542:7544   */\n      0x20\n        /* \"#utility.yul\":7537:7540   */\n      dup3\n        /* \"#utility.yul\":7533:7545   */\n      add\n        /* \"#utility.yul\":7526:7545   */\n      swap1\n      pop\n        /* \"#utility.yul\":7185:7551   */\n      swap2\n      swap1\n      pop\n      jump\t// out\n        /* \"#utility.yul\":7557:7976   */\n    tag_45:\n        /* \"#utility.yul\":7723:7727   */\n      0x00\n        /* \"#utility.yul\":7761:7763   */\n      0x20\n        /* \"#utility.yul\":7750:7759   */\n      dup3\n        /* \"#utility.yul\":7746:7764   */\n      add\n        /* \"#utility.yul\":7738:7764   */\n      swap1\n      pop\n        /* \"#utility.yul\":7810:7819   */\n      dup2\n        /* \"#utility.yul\":7804:7808   */\n      dup2\n        /* \"#utility.yul\":7800:7820   */\n      sub\n        /* \"#utility.yul\":7796:7797   */\n      0x00\n        /* \"#utility.yul\":7785:7794   */\n      dup4\n        /* \"#utility.yul\":7781:7798   */\n      add\n        /* \"#utility.yul\":7774:7821   */\n      mstore\n        /* \"#utility.yul\":7838:7969   */\n      tag_241\n        /* \"#utility.yul\":7964:7968   */\n      dup2\n        /* \"#utility.yul\":7838:7969   */\n      tag_133\n      jump\t// in\n    tag_241:\n        /* \"#utility.yul\":7830:7969   */\n      swap1\n      pop\n        /* \"#utility.yul\":7557:7976   */\n      swap2\n      swap1\n      pop\n      jump\t// out\n        /* \"#utility.yul\":7982:8162   */\n    tag_48:\n        /* \"#utility.yul\":8030:8107   */\n      0x4e487b7100000000000000000000000000000000000000000000000000000000\n        /* \"#utility.yul\":8027:8028   */\n      0x00\n        /* \"#utility.yul\":8020:8108   */\n      mstore\n        /* \"#utility.yul\":8127:8131   */\n      0x32\n        /* \"#utility.yul\":8124:8125   */\n      0x04\n        /* \"#utility.yul\":8117:8132   */\n      mstore\n        /* \"#utility.yul\":8151:8155   */\n      0x24\n        /* \"#utility.yul\":8148:8149   */\n      0x00\n        /* \"#utility.yul\":8141:8156   */\n      revert\n        /* \"#utility.yul\":8168:8337   */\n    tag_134:\n        /* \"#utility.yul\":8308:8329   */\n      0x4d6173636f74612079612061646f707461646100000000000000000000000000\n        /* \"#utility.yul\":8304:8305   */\n      0x00\n        /* \"#utility.yul\":8296:8302   */\n      dup3\n        /* \"#utility.yul\":8292:8306   */\n      add\n        /* \"#utility.yul\":8285:8330   */\n      mstore\n        /* \"#utility.yul\":8168:8337   */\n      pop\n      jump\t// out\n        /* \"#utility.yul\":8343:8709   */\n    tag_135:\n        /* \"#utility.yul\":8485:8488   */\n      0x00\n        /* \"#utility.yul\":8506:8573   */\n      tag_245\n        /* \"#utility.yul\":8570:8572   */\n      0x13\n        /* \"#utility.yul\":8565:8568   */\n      dup4\n        /* \"#utility.yul\":8506:8573   */\n      tag_117\n      jump\t// in\n    tag_245:\n        /* \"#utility.yul\":8499:8573   */\n      swap2\n      pop\n        /* \"#utility.yul\":8582:8675   */\n      tag_246\n        /* \"#utility.yul\":8671:8674   */\n      dup3\n        /* \"#utility.yul\":8582:8675   */\n      tag_134\n      jump\t// in\n    tag_246:\n        /* \"#utility.yul\":8700:8702   */\n      0x20\n        /* \"#utility.yul\":8695:8698   */\n      dup3\n        /* \"#utility.yul\":8691:8703   */\n      add\n        /* \"#utility.yul\":8684:8703   */\n      swap1\n      pop\n        /* \"#utility.yul\":8343:8709   */\n      swap2\n      swap1\n      pop\n      jump\t// out\n        /* \"#utility.yul\":8715:9134   */\n    tag_52:\n        /* \"#utility.yul\":8881:8885   */\n      0x00\n        /* \"#utility.yul\":8919:8921   */\n      0x20\n        /* \"#utility.yul\":8908:8917   */\n      dup3\n        /* \"#utility.yul\":8904:8922   */\n      add\n        /* \"#utility.yul\":8896:8922   */\n      swap1\n      pop\n        /* \"#utility.yul\":8968:8977   */\n      dup2\n        /* \"#utility.yul\":8962:8966   */\n      dup2\n        /* \"#utility.yul\":8958:8978   */\n      sub\n        /* \"#utility.yul\":8954:8955   */\n      0x00\n        /* \"#utility.yul\":8943:8952   */\n      dup4\n        /* \"#utility.yul\":8939:8956   */\n      add\n        /* \"#utility.yul\":8932:8979   */\n      mstore\n        /* \"#utility.yul\":8996:9127   */\n      tag_248\n        /* \"#utility.yul\":9122:9126   */\n      dup2\n        /* \"#utility.yul\":8996:9127   */\n      tag_135\n      jump\t// in\n    tag_248:\n        /* \"#utility.yul\":8988:9127   */\n      swap1\n      pop\n        /* \"#utility.yul\":8715:9134   */\n      swap2\n      swap1\n      pop\n      jump\t// out\n        /* \"#utility.yul\":9140:9472   */\n    tag_54:\n        /* \"#utility.yul\":9261:9265   */\n      0x00\n        /* \"#utility.yul\":9299:9301   */\n      0x40\n        /* \"#utility.yul\":9288:9297   */\n      dup3\n        /* \"#utility.yul\":9284:9302   */\n      add\n        /* \"#utility.yul\":9276:9302   */\n      swap1\n      pop\n        /* \"#utility.yul\":9312:9383   */\n      tag_250\n        /* \"#utility.yul\":9380:9381   */\n      0x00\n        /* \"#utility.yul\":9369:9378   */\n      dup4\n        /* \"#utility.yul\":9365:9382   */\n      add\n        /* \"#utility.yul\":9356:9362   */\n      dup6\n        /* \"#utility.yul\":9312:9383   */\n      tag_115\n      jump\t// in\n    tag_250:\n        /* \"#utility.yul\":9393:9465   */\n      tag_251\n        /* \"#utility.yul\":9461:9463   */\n      0x20\n        /* \"#utility.yul\":9450:9459   */\n      dup4\n        /* \"#utility.yul\":9446:9464   */\n      add\n        /* \"#utility.yul\":9437:9443   */\n      dup5\n        /* \"#utility.yul\":9393:9465   */\n      tag_112\n      jump\t// in\n    tag_251:\n        /* \"#utility.yul\":9140:9472   */\n      swap4\n      swap3\n      pop\n      pop\n      pop\n      jump\t// out\n        /* \"#utility.yul\":9478:9658   */\n    tag_136:\n        /* \"#utility.yul\":9526:9603   */\n      0x4e487b7100000000000000000000000000000000000000000000000000000000\n        /* \"#utility.yul\":9523:9524   */\n      0x00\n        /* \"#utility.yul\":9516:9604   */\n      mstore\n        /* \"#utility.yul\":9623:9627   */\n      0x11\n        /* \"#utility.yul\":9620:9621   */\n      0x04\n        /* \"#utility.yul\":9613:9628   */\n      mstore\n        /* \"#utility.yul\":9647:9651   */\n      0x24\n        /* \"#utility.yul\":9644:9645   */\n      0x00\n        /* \"#utility.yul\":9637:9652   */\n      revert\n        /* \"#utility.yul\":9664:9897   */\n    tag_64:\n        /* \"#utility.yul\":9703:9706   */\n      0x00\n        /* \"#utility.yul\":9726:9750   */\n      tag_254\n        /* \"#utility.yul\":9744:9749   */\n      dup3\n        /* \"#utility.yul\":9726:9750   */\n      tag_109\n      jump\t// in\n    tag_254:\n        /* \"#utility.yul\":9717:9750   */\n      swap2\n      pop\n        /* \"#utility.yul\":9772:9838   */\n      0xffffffffffffffffffffffffffffffffffffffffffffffffffffffffffffffff\n        /* \"#utility.yul\":9765:9770   */\n      dup3\n        /* \"#utility.yul\":9762:9839   */\n      sub\n        /* \"#utility.yul\":9759:9862   */\n      tag_255\n      jumpi\n        /* \"#utility.yul\":9842:9860   */\n      tag_256\n      tag_136\n      jump\t// in\n    tag_256:\n        /* \"#utility.yul\":9759:9862   */\n    tag_255:\n        /* \"#utility.yul\":9889:9890   */\n      0x01\n        /* \"#utility.yul\":9882:9887   */\n      dup3\n        /* \"#utility.yul\":9878:9891   */\n      add\n        /* \"#utility.yul\":9871:9891   */\n      swap1\n      pop\n        /* \"#utility.yul\":9664:9897   */\n      swap2\n      swap1\n      pop\n      jump\t// out\n        /* \"#utility.yul\":9903:10072   */\n    tag_137:\n        /* \"#utility.yul\":10043:10064   */\n      0x4d6173636f7461206e6f2061646f707461646100000000000000000000000000\n        /* \"#utility.yul\":10039:10040   */\n      0x00\n        /* \"#utility.yul\":10031:10037   */\n      dup3\n        /* \"#utility.yul\":10027:10041   */\n      add\n        /* \"#utility.yul\":10020:10065   */\n      mstore\n        /* \"#utility.yul\":9903:10072   */\n      pop\n      jump\t// out\n        /* \"#utility.yul\":10078:10444   */\n    tag_138:\n        /* \"#utility.yul\":10220:10223   */\n      0x00\n        /* \"#utility.yul\":10241:10308   */\n      tag_259\n        /* \"#utility.yul\":10305:10307   */\n      0x13\n        /* \"#utility.yul\":10300:10303   */\n      dup4\n        /* \"#utility.yul\":10241:10308   */\n      tag_117\n      jump\t// in\n    tag_259:\n        /* \"#utility.yul\":10234:10308   */\n      swap2\n      pop\n        /* \"#utility.yul\":10317:10410   */\n      tag_260\n        /* \"#utility.yul\":10406:10409   */\n      dup3\n        /* \"#utility.yul\":10317:10410   */\n      tag_137\n      jump\t// in\n    tag_260:\n        /* \"#utility.yul\":10435:10437   */\n      0x20\n        /* \"#utility.yul\":10430:10433   */\n      dup3\n        /* \"#utility.yul\":10426:10438   */\n      add\n        /* \"#utility.yul\":10419:10438   */\n      swap1\n      pop\n        /* \"#utility.yul\":10078:10444   */\n      swap2\n      swap1\n      pop\n      jump\t// out\n        /* \"#utility.yul\":10450:10869   */\n    tag_76:\n        /* \"#utility.yul\":10616:10620   */\n      0x00\n        /* \"#utility.yul\":10654:10656   */\n      0x20\n        /* \"#utility.yul\":10643:10652   */\n      dup3\n        /* \"#utility.yul\":10639:10657   */\n      add\n        /* \"#utility.yul\":10631:10657   */\n      swap1\n      pop\n        /* \"#utility.yul\":10703:10712   */\n      dup2\n        /* \"#utility.yul\":10697:10701   */\n      dup2\n        /* \"#utility.yul\":10693:10713   */\n      sub\n        /* \"#utility.yul\":10689:10690   */\n      0x00\n        /* \"#utility.yul\":10678:10687   */\n      dup4\n        /* \"#utility.yul\":10674:10691   */\n      add\n        /* \"#utility.yul\":10667:10714   */\n      mstore\n        /* \"#utility.yul\":10731:10862   */\n      tag_262\n        /* \"#utility.yul\":10857:10861   */\n      dup2\n        /* \"#utility.yul\":10731:10862   */\n      tag_138\n      jump\t// in\n    tag_262:\n        /* \"#utility.yul\":10723:10862   */\n      swap1\n      pop\n        /* \"#utility.yul\":10450:10869   */\n      swap2\n      swap1\n      pop\n      jump\t// out\n        /* \"#utility.yul\":10875:11045   */\n    tag_139:\n        /* \"#utility.yul\":11015:11037   */\n      0x4e6f206572657320656c2061646f7074616e7465000000000000000000000000\n        /* \"#utility.yul\":11011:11012   */\n      0x00\n        /* \"#utility.yul\":11003:11009   */\n      dup3\n        /* \"#utility.yul\":10999:11013   */\n      add\n        /* \"#utility.yul\":10992:11038   */\n      mstore\n        /* \"#utility.yul\":10875:11045   */\n      pop\n      jump\t// out\n        /* \"#utility.yul\":11051:11417   */\n    tag_140:\n        /* \"#utility.yul\":11193:11196   */\n      0x00\n        /* \"#utility.yul\":11214:11281   */\n      tag_265\n        /* \"#utility.yul\":11278:11280   */\n      0x14\n        /* \"#utility.yul\":11273:11276   */\n      dup4\n        /* \"#utility.yul\":11214:11281   */\n      tag_117\n      jump\t// in\n    tag_265:\n        /* \"#utility.yul\":11207:11281   */\n      swap2\n      pop\n        /* \"#utility.yul\":11290:11383   */\n      tag_266\n        /* \"#utility.yul\":11379:11382   */\n      dup3\n        /* \"#utility.yul\":11290:11383   */\n      tag_139\n      jump\t// in\n    tag_266:\n        /* \"#utility.yul\":11408:11410   */\n      0x20\n        /* \"#utility.yul\":11403:11406   */\n      dup3\n        /* \"#utility.yul\":11399:11411   */\n      add\n        /* \"#utility.yul\":11392:11411   */\n      swap1\n      pop\n        /* \"#utility.yul\":11051:11417   */\n      swap2\n      swap1\n      pop\n      jump\t// out\n        /* \"#utility.yul\":11423:11842   */\n    tag_79:\n        /* \"#utility.yul\":11589:11593   */\n      0x00\n        /* \"#utility.yul\":11627:11629   */\n      0x20\n        /* \"#utility.yul\":11616:11625   */\n      dup3\n        /* \"#utility.yul\":11612:11630   */\n      add\n        /* \"#utility.yul\":11604:11630   */\n      swap1\n      pop\n        /* \"#utility.yul\":11676:11685   */\n      dup2\n        /* \"#utility.yul\":11670:11674   */\n      dup2\n        /* \"#utility.yul\":11666:11686   */\n      sub\n        /* \"#utility.yul\":11662:11663   */\n      0x00\n        /* \"#utility.yul\":11651:11660   */\n      dup4\n        /* \"#utility.yul\":11647:11664   */\n      add\n        /* \"#utility.yul\":11640:11687   */\n      mstore\n        /* \"#utility.yul\":11704:11835   */\n      tag_268\n        /* \"#utility.yul\":11830:11834   */\n      dup2\n        /* \"#utility.yul\":11704:11835   */\n      tag_140\n      jump\t// in\n    tag_268:\n        /* \"#utility.yul\":11696:11835   */\n      swap1\n      pop\n        /* \"#utility.yul\":11423:11842   */\n      swap2\n      swap1\n      pop\n      jump\t// out\n        /* \"#utility.yul\":11848:12039   */\n    tag_81:\n        /* \"#utility.yul\":11888:11891   */\n      0x00\n        /* \"#utility.yul\":11907:11927   */\n      tag_270\n        /* \"#utility.yul\":11925:11926   */\n      dup3\n        /* \"#utility.yul\":11907:11927   */\n      tag_109\n      jump\t// in\n    tag_270:\n        /* \"#utility.yul\":11902:11927   */\n      swap2\n      pop\n        /* \"#utility.yul\":11941:11961   */\n      tag_271\n        /* \"#utility.yul\":11959:11960   */\n      dup4\n        /* \"#utility.yul\":11941:11961   */\n      tag_109\n      jump\t// in\n    tag_271:\n        /* \"#utility.yul\":11936:11961   */\n      swap3\n      pop\n        /* \"#utility.yul\":11984:11985   */\n      dup3\n        /* \"#utility.yul\":11981:11982   */\n      dup3\n        /* \"#utility.yul\":11977:11986   */\n      add\n        /* \"#utility.yul\":11970:11986   */\n      swap1\n      pop\n        /* \"#utility.yul\":12005:12008   */\n      dup1\n        /* \"#utility.yul\":12002:12003   */\n      dup3\n        /* \"#utility.yul\":11999:12009   */\n      gt\n        /* \"#utility.yul\":11996:12032   */\n      iszero\n      tag_272\n      jumpi\n        /* \"#utility.yul\":12012:12030   */\n      tag_273\n      tag_136\n      jump\t// in\n    tag_273:\n        /* \"#utility.yul\":11996:12032   */\n    tag_272:\n        /* \"#utility.yul\":11848:12039   */\n      swap3\n      swap2\n      pop\n      pop\n      jump\t// out\n        /* \"#utility.yul\":12045:12210   */\n    tag_141:\n        /* \"#utility.yul\":12185:12202   */\n      0x5469656d706f20657870697261646f0000000000000000000000000000000000\n        /* \"#utility.yul\":12181:12182   */\n      0x00\n        /* \"#utility.yul\":12173:12179   */\n      dup3\n        /* \"#utility.yul\":12169:12183   */\n      add\n        /* \"#utility.yul\":12162:12203   */\n      mstore\n        /* \"#utility.yul\":12045:12210   */\n      pop\n      jump\t// out\n        /* \"#utility.yul\":12216:12582   */\n    tag_142:\n        /* \"#utility.yul\":12358:12361   */\n      0x00\n        /* \"#utility.yul\":12379:12446   */\n      tag_276\n        /* \"#utility.yul\":12443:12445   */\n      0x0f\n        /* \"#utility.yul\":12438:12441   */\n      dup4\n        /* \"#utility.yul\":12379:12446   */\n      tag_117\n      jump\t// in\n    tag_276:\n        /* \"#utility.yul\":12372:12446   */\n      swap2\n      pop\n        /* \"#utility.yul\":12455:12548   */\n      tag_277\n        /* \"#utility.yul\":12544:12547   */\n      dup3\n        /* \"#utility.yul\":12455:12548   */\n      tag_141\n      jump\t// in\n    tag_277:\n        /* \"#utility.yul\":12573:12575   */\n      0x20\n        /* \"#utility.yul\":12568:12571   */\n      dup3\n        /* \"#utility.yul\":12564:12576   */\n      add\n        /* \"#utility.yul\":12557:12576   */\n      swap1\n      pop\n        /* \"#utility.yul\":12216:12582   */\n      swap2\n      swap1\n      pop\n      jump\t// out\n        /* \"#utility.yul\":12588:13007   */\n    tag_84:\n        /* \"#utility.yul\":12754:12758   */\n      0x00\n        /* \"#utility.yul\":12792:12794   */\n      0x20\n        /* \"#utility.yul\":12781:12790   */\n      dup3\n        /* \"#utility.yul\":12777:12795   */\n      add\n        /* \"#utility.yul\":12769:12795   */\n      swap1\n      pop\n        /* \"#utility.yul\":12841:12850   */\n      dup2\n        /* \"#utility.yul\":12835:12839   */\n      dup2\n        /* \"#utility.yul\":12831:12851   */\n      sub\n        /* \"#utility.yul\":12827:12828   */\n      0x00\n        /* \"#utility.yul\":12816:12825   */\n      dup4\n        /* \"#utility.yul\":12812:12829   */\n      add\n        /* \"#utility.yul\":12805:12852   */\n      mstore\n        /* \"#utility.yul\":12869:13000   */\n      tag_279\n        /* \"#utility.yul\":12995:12999   */\n      dup2\n        /* \"#utility.yul\":12869:13000   */\n      tag_142\n      jump\t// in\n    tag_279:\n        /* \"#utility.yul\":12861:13000   */\n      swap1\n      pop\n        /* \"#utility.yul\":12588:13007   */\n      swap2\n      swap1\n      pop\n      jump\t// out\n        /* \"#utility.yul\":13013:13193   */\n    tag_143:\n        /* \"#utility.yul\":13061:13138   */\n      0x4e487b7100000000000000000000000000000000000000000000000000000000\n        /* \"#utility.yul\":13058:13059   */\n      0x00\n        /* \"#utility.yul\":13051:13139   */\n      mstore\n        /* \"#utility.yul\":13158:13162   */\n      0x22\n        /* \"#utility.yul\":13155:13156   */\n      0x04\n        /* \"#utility.yul\":13148:13163   */\n      mstore\n        /* \"#utility.yul\":13182:13186   */\n      0x24\n        /* \"#utility.yul\":13179:13180   */\n      0x00\n        /* \"#utility.yul\":13172:13187   */\n      revert\n        /* \"#utility.yul\":13199:13519   */\n    tag_89:\n        /* \"#utility.yul\":13243:13249   */\n      0x00\n        /* \"#utility.yul\":13280:13281   */\n      0x02\n        /* \"#utility.yul\":13274:13278   */\n      dup3\n        /* \"#utility.yul\":13270:13282   */\n      div\n        /* \"#utility.yul\":13260:13282   */\n      swap1\n      pop\n        /* \"#utility.yul\":13327:13328   */\n      0x01\n        /* \"#utility.yul\":13321:13325   */\n      dup3\n        /* \"#utility.yul\":13317:13329   */\n      and\n        /* \"#utility.yul\":13348:13366   */\n      dup1\n        /* \"#utility.yul\":13338:13419   */\n      tag_282\n      jumpi\n        /* \"#utility.yul\":13404:13408   */\n      0x7f\n        /* \"#utility.yul\":13396:13402   */\n      dup3\n        /* \"#utility.yul\":13392:13409   */\n      and\n        /* \"#utility.yul\":13382:13409   */\n      swap2\n      pop\n        /* \"#utility.yul\":13338:13419   */\n    tag_282:\n        /* \"#utility.yul\":13466:13468   */\n      0x20\n        /* \"#utility.yul\":13458:13464   */\n      dup3\n        /* \"#utility.yul\":13455:13469   */\n      lt\n        /* \"#utility.yul\":13435:13453   */\n      dup2\n        /* \"#utility.yul\":13432:13470   */\n      sub\n        /* \"#utility.yul\":13429:13513   */\n      tag_283\n      jumpi\n        /* \"#utility.yul\":13485:13503   */\n      tag_284\n      tag_143\n      jump\t// in\n    tag_284:\n        /* \"#utility.yul\":13429:13513   */\n    tag_283:\n        /* \"#utility.yul\":13250:13519   */\n      pop\n        /* \"#utility.yul\":13199:13519   */\n      swap2\n      swap1\n      pop\n      jump\t// out\n        /* \"#utility.yul\":13525:13688   */\n    tag_144:\n        /* \"#utility.yul\":13665:13680   */\n      0x536f6c6f20656c206f776e657200000000000000000000000000000000000000\n        /* \"#utility.yul\":13661:13662   */\n      0x00\n        /* \"#utility.yul\":13653:13659   */\n      dup3\n        /* \"#utility.yul\":13649:13663   */\n      add\n        /* \"#utility.yul\":13642:13681   */\n      mstore\n        /* \"#utility.yul\":13525:13688   */\n      pop\n      jump\t// out\n        /* \"#utility.yul\":13694:14060   */\n    tag_145:\n        /* \"#utility.yul\":13836:13839   */\n      0x00\n        /* \"#utility.yul\":13857:13924   */\n      tag_287\n        /* \"#utility.yul\":13921:13923   */\n      0x0d\n        /* \"#utility.yul\":13916:13919   */\n      dup4\n        /* \"#utility.yul\":13857:13924   */\n      tag_117\n      jump\t// in\n    tag_287:\n        /* \"#utility.yul\":13850:13924   */\n      swap2\n      pop\n        /* \"#utility.yul\":13933:14026   */\n      tag_288\n        /* \"#utility.yul\":14022:14025   */\n      dup3\n        /* \"#utility.yul\":13933:14026   */\n      tag_144\n      jump\t// in\n    tag_288:\n        /* \"#utility.yul\":14051:14053   */\n      0x20\n        /* \"#utility.yul\":14046:14049   */\n      dup3\n        /* \"#utility.yul\":14042:14054   */\n      add\n        /* \"#utility.yul\":14035:14054   */\n      swap1\n      pop\n        /* \"#utility.yul\":13694:14060   */\n      swap2\n      swap1\n      pop\n      jump\t// out\n        /* \"#utility.yul\":14066:14485   */\n    tag_97:\n        /* \"#utility.yul\":14232:14236   */\n      0x00\n        /* \"#utility.yul\":14270:14272   */\n      0x20\n        /* \"#utility.yul\":14259:14268   */\n      dup3\n        /* \"#utility.yul\":14255:14273   */\n      add\n        /* \"#utility.yul\":14247:14273   */\n      swap1\n      pop\n        /* \"#utility.yul\":14319:14328   */\n      dup2\n        /* \"#utility.yul\":14313:14317   */\n      dup2\n        /* \"#utility.yul\":14309:14329   */\n      sub\n        /* \"#utility.yul\":14305:14306   */\n      0x00\n        /* \"#utility.yul\":14294:14303   */\n      dup4\n        /* \"#utility.yul\":14290:14307   */\n      add\n        /* \"#utility.yul\":14283:14330   */\n      mstore\n        /* \"#utility.yul\":14347:14478   */\n      tag_290\n        /* \"#utility.yul\":14473:14477   */\n      dup2\n        /* \"#utility.yul\":14347:14478   */\n      tag_145\n      jump\t// in\n    tag_290:\n        /* \"#utility.yul\":14339:14478   */\n      swap1\n      pop\n        /* \"#utility.yul\":14066:14485   */\n      swap2\n      swap1\n      pop\n      jump\t// out\n        /* \"#utility.yul\":14491:14632   */\n    tag_146:\n        /* \"#utility.yul\":14540:14544   */\n      0x00\n        /* \"#utility.yul\":14563:14566   */\n      dup2\n        /* \"#utility.yul\":14555:14566   */\n      swap1\n      pop\n        /* \"#utility.yul\":14586:14589   */\n      dup2\n        /* \"#utility.yul\":14583:14584   */\n      0x00\n        /* \"#utility.yul\":14576:14590   */\n      mstore\n        /* \"#utility.yul\":14620:14624   */\n      0x20\n        /* \"#utility.yul\":14617:14618   */\n      0x00\n        /* \"#utility.yul\":14607:14625   */\n      keccak256\n        /* \"#utility.yul\":14599:14625   */\n      swap1\n      pop\n        /* \"#utility.yul\":14491:14632   */\n      swap2\n      swap1\n      pop\n      jump\t// out\n        /* \"#utility.yul\":14638:14731   */\n    tag_147:\n        /* \"#utility.yul\":14675:14681   */\n      0x00\n        /* \"#utility.yul\":14722:14724   */\n      0x20\n        /* \"#utility.yul\":14717:14719   */\n      0x1f\n        /* \"#utility.yul\":14710:14715   */\n      dup4\n        /* \"#utility.yul\":14706:14720   */\n      add\n        /* \"#utility.yul\":14702:14725   */\n      div\n        /* \"#utility.yul\":14692:14725   */\n      swap1\n      pop\n        /* \"#utility.yul\":14638:14731   */\n      swap2\n      swap1\n      pop\n      jump\t// out\n        /* \"#utility.yul\":14737:14844   */\n    tag_148:\n        /* \"#utility.yul\":14781:14789   */\n      0x00\n        /* \"#utility.yul\":14831:14836   */\n      dup3\n        /* \"#utility.yul\":14825:14829   */\n      dup3\n        /* \"#utility.yul\":14821:14837   */\n      shl\n        /* \"#utility.yul\":14800:14837   */\n      swap1\n      pop\n        /* \"#utility.yul\":14737:14844   */\n      swap3\n      swap2\n      pop\n      pop\n      jump\t// out\n        /* \"#utility.yul\":14850:15243   */\n    tag_149:\n        /* \"#utility.yul\":14919:14925   */\n      0x00\n        /* \"#utility.yul\":14969:14970   */\n      0x08\n        /* \"#utility.yul\":14957:14967   */\n      dup4\n        /* \"#utility.yul\":14953:14971   */\n      mul\n        /* \"#utility.yul\":14992:15089   */\n      tag_295\n        /* \"#utility.yul\":15022:15088   */\n      0xffffffffffffffffffffffffffffffffffffffffffffffffffffffffffffffff\n        /* \"#utility.yul\":15011:15020   */\n      dup3\n        /* \"#utility.yul\":14992:15089   */\n      tag_148\n      jump\t// in\n    tag_295:\n        /* \"#utility.yul\":15110:15149   */\n      tag_296\n        /* \"#utility.yul\":15140:15148   */\n      dup7\n        /* \"#utility.yul\":15129:15138   */\n      dup4\n        /* \"#utility.yul\":15110:15149   */\n      tag_148\n      jump\t// in\n    tag_296:\n        /* \"#utility.yul\":15098:15149   */\n      swap6\n      pop\n        /* \"#utility.yul\":15182:15186   */\n      dup1\n        /* \"#utility.yul\":15178:15187   */\n      not\n        /* \"#utility.yul\":15171:15176   */\n      dup5\n        /* \"#utility.yul\":15167:15188   */\n      and\n        /* \"#utility.yul\":15158:15188   */\n      swap4\n      pop\n        /* \"#utility.yul\":15231:15235   */\n      dup1\n        /* \"#utility.yul\":15221:15229   */\n      dup7\n        /* \"#utility.yul\":15217:15236   */\n      and\n        /* \"#utility.yul\":15210:15215   */\n      dup5\n        /* \"#utility.yul\":15207:15237   */\n      or\n        /* \"#utility.yul\":15197:15237   */\n      swap3\n      pop\n        /* \"#utility.yul\":14926:15243   */\n      pop\n      pop\n        /* \"#utility.yul\":14850:15243   */\n      swap4\n      swap3\n      pop\n      pop\n      pop\n      jump\t// out\n        /* \"#utility.yul\":15249:15309   */\n    tag_150:\n        /* \"#utility.yul\":15277:15280   */\n      0x00\n        /* \"#utility.yul\":15298:15303   */\n      dup2\n        /* \"#utility.yul\":15291:15303   */\n      swap1\n      pop\n        /* \"#utility.yul\":15249:15309   */\n      swap2\n      swap1\n      pop\n      jump\t// out\n        /* \"#utility.yul\":15315:15457   */\n    tag_151:\n        /* \"#utility.yul\":15365:15374   */\n      0x00\n        /* \"#utility.yul\":15398:15451   */\n      tag_299\n        /* \"#utility.yul\":15416:15450   */\n      tag_300\n        /* \"#utility.yul\":15425:15449   */\n      tag_301\n        /* \"#utility.yul\":15443:15448   */\n      dup5\n        /* \"#utility.yul\":15425:15449   */\n      tag_109\n      jump\t// in\n    tag_301:\n        /* \"#utility.yul\":15416:15450   */\n      tag_150\n      jump\t// in\n    tag_300:\n        /* \"#utility.yul\":15398:15451   */\n      tag_109\n      jump\t// in\n    tag_299:\n        /* \"#utility.yul\":15385:15451   */\n      swap1\n      pop\n        /* \"#utility.yul\":15315:15457   */\n      swap2\n      swap1\n      pop\n      jump\t// out\n        /* \"#utility.yul\":15463:15538   */\n    tag_152:\n        /* \"#utility.yul\":15506:15509   */\n      0x00\n        /* \"#utility.yul\":15527:15532   */\n      dup2\n        /* \"#utility.yul\":15520:15532   */\n      swap1\n      pop\n        /* \"#utility.yul\":15463:15538   */\n      swap2\n      swap1\n      pop\n      jump\t// out\n        /* \"#utility.yul\":15544:15813   */\n    tag_153:\n        /* \"#utility.yul\":15654:15693   */\n      tag_304\n        /* \"#utility.yul\":15685:15692   */\n      dup4\n        /* \"#utility.yul\":15654:15693   */\n      tag_151\n      jump\t// in\n    tag_304:\n        /* \"#utility.yul\":15715:15806   */\n      tag_305\n        /* \"#utility.yul\":15764:15805   */\n      tag_306\n        /* \"#utility.yul\":15788:15804   */\n      dup3\n        /* \"#utility.yul\":15764:15805   */\n      tag_152\n      jump\t// in\n    tag_306:\n        /* \"#utility.yul\":15756:15762   */\n      dup5\n        /* \"#utility.yul\":15749:15753   */\n      dup5\n        /* \"#utility.yul\":15743:15754   */\n      sload\n        /* \"#utility.yul\":15715:15806   */\n      tag_149\n      jump\t// in\n    tag_305:\n        /* \"#utility.yul\":15709:15713   */\n      dup3\n        /* \"#utility.yul\":15702:15807   */\n      sstore\n        /* \"#utility.yul\":15620:15813   */\n      pop\n        /* \"#utility.yul\":15544:15813   */\n      pop\n      pop\n      pop\n      jump\t// out\n        /* \"#utility.yul\":15819:15892   */\n    tag_154:\n        /* \"#utility.yul\":15864:15867   */\n      0x00\n        /* \"#utility.yul\":15885:15886   */\n      0x00\n        /* \"#utility.yul\":15878:15886   */\n      swap1\n      pop\n        /* \"#utility.yul\":15819:15892   */\n      swap1\n      jump\t// out\n        /* \"#utility.yul\":15898:16087   */\n    tag_155:\n        /* \"#utility.yul\":15975:16007   */\n      tag_309\n      tag_154\n      jump\t// in\n    tag_309:\n        /* \"#utility.yul\":16016:16081   */\n      tag_310\n        /* \"#utility.yul\":16074:16080   */\n      dup2\n        /* \"#utility.yul\":16066:16072   */\n      dup5\n        /* \"#utility.yul\":16060:16064   */\n      dup5\n        /* \"#utility.yul\":16016:16081   */\n      tag_153\n      jump\t// in\n    tag_310:\n        /* \"#utility.yul\":15951:16087   */\n      pop\n        /* \"#utility.yul\":15898:16087   */\n      pop\n      pop\n      jump\t// out\n        /* \"#utility.yul\":16093:16279   */\n    tag_156:\n        /* \"#utility.yul\":16153:16273   */\n    tag_312:\n        /* \"#utility.yul\":16170:16173   */\n      dup2\n        /* \"#utility.yul\":16163:16168   */\n      dup2\n        /* \"#utility.yul\":16160:16174   */\n      lt\n        /* \"#utility.yul\":16153:16273   */\n      iszero\n      tag_314\n      jumpi\n        /* \"#utility.yul\":16224:16263   */\n      tag_315\n        /* \"#utility.yul\":16261:16262   */\n      0x00\n        /* \"#utility.yul\":16254:16259   */\n      dup3\n        /* \"#utility.yul\":16224:16263   */\n      tag_155\n      jump\t// in\n    tag_315:\n        /* \"#utility.yul\":16197:16198   */\n      0x01\n        /* \"#utility.yul\":16190:16195   */\n      dup2\n        /* \"#utility.yul\":16186:16199   */\n      add\n        /* \"#utility.yul\":16177:16199   */\n      swap1\n      pop\n        /* \"#utility.yul\":16153:16273   */\n      jump(tag_312)\n    tag_314:\n        /* \"#utility.yul\":16093:16279   */\n      pop\n      pop\n      jump\t// out\n        /* \"#utility.yul\":16285:16828   */\n    tag_157:\n        /* \"#utility.yul\":16386:16388   */\n      0x1f\n        /* \"#utility.yul\":16381:16384   */\n      dup3\n        /* \"#utility.yul\":16378:16389   */\n      gt\n        /* \"#utility.yul\":16375:16821   */\n      iszero\n      tag_317\n      jumpi\n        /* \"#utility.yul\":16420:16458   */\n      tag_318\n        /* \"#utility.yul\":16452:16457   */\n      dup2\n        /* \"#utility.yul\":16420:16458   */\n      tag_146\n      jump\t// in\n    tag_318:\n        /* \"#utility.yul\":16504:16533   */\n      tag_319\n        /* \"#utility.yul\":16522:16532   */\n      dup5\n        /* \"#utility.yul\":16504:16533   */\n      tag_147\n      jump\t// in\n    tag_319:\n        /* \"#utility.yul\":16494:16502   */\n      dup2\n        /* \"#utility.yul\":16490:16534   */\n      add\n        /* \"#utility.yul\":16687:16689   */\n      0x20\n        /* \"#utility.yul\":16675:16685   */\n      dup6\n        /* \"#utility.yul\":16672:16690   */\n      lt\n        /* \"#utility.yul\":16669:16718   */\n      iszero\n      tag_320\n      jumpi\n        /* \"#utility.yul\":16708:16716   */\n      dup2\n        /* \"#utility.yul\":16693:16716   */\n      swap1\n      pop\n        /* \"#utility.yul\":16669:16718   */\n    tag_320:\n        /* \"#utility.yul\":16731:16811   */\n      tag_321\n        /* \"#utility.yul\":16787:16809   */\n      tag_322\n        /* \"#utility.yul\":16805:16808   */\n      dup6\n        /* \"#utility.yul\":16787:16809   */\n      tag_147\n      jump\t// in\n    tag_322:\n        /* \"#utility.yul\":16777:16785   */\n      dup4\n        /* \"#utility.yul\":16773:16810   */\n      add\n        /* \"#utility.yul\":16760:16771   */\n      dup3\n        /* \"#utility.yul\":16731:16811   */\n      tag_156\n      jump\t// in\n    tag_321:\n        /* \"#utility.yul\":16390:16821   */\n      pop\n      pop\n        /* \"#utility.yul\":16375:16821   */\n    tag_317:\n        /* \"#utility.yul\":16285:16828   */\n      pop\n      pop\n      pop\n      jump\t// out\n        /* \"#utility.yul\":16834:16951   */\n    tag_158:\n        /* \"#utility.yul\":16888:16896   */\n      0x00\n        /* \"#utility.yul\":16938:16943   */\n      dup3\n        /* \"#utility.yul\":16932:16936   */\n      dup3\n        /* \"#utility.yul\":16928:16944   */\n      shr\n        /* \"#utility.yul\":16907:16944   */\n      swap1\n      pop\n        /* \"#utility.yul\":16834:16951   */\n      swap3\n      swap2\n      pop\n      pop\n      jump\t// out\n        /* \"#utility.yul\":16957:17126   */\n    tag_159:\n        /* \"#utility.yul\":17001:17007   */\n      0x00\n        /* \"#utility.yul\":17034:17085   */\n      tag_325\n        /* \"#utility.yul\":17082:17083   */\n      0x00\n        /* \"#utility.yul\":17078:17084   */\n      not\n        /* \"#utility.yul\":17070:17075   */\n      dup5\n        /* \"#utility.yul\":17067:17068   */\n      0x08\n        /* \"#utility.yul\":17063:17076   */\n      mul\n        /* \"#utility.yul\":17034:17085   */\n      tag_158\n      jump\t// in\n    tag_325:\n        /* \"#utility.yul\":17030:17086   */\n      not\n        /* \"#utility.yul\":17115:17119   */\n      dup1\n        /* \"#utility.yul\":17109:17113   */\n      dup4\n        /* \"#utility.yul\":17105:17120   */\n      and\n        /* \"#utility.yul\":17095:17120   */\n      swap2\n      pop\n        /* \"#utility.yul\":17008:17126   */\n      pop\n        /* \"#utility.yul\":16957:17126   */\n      swap3\n      swap2\n      pop\n      pop\n      jump\t// out\n        /* \"#utility.yul\":17131:17426   */\n    tag_160:\n        /* \"#utility.yul\":17207:17211   */\n      0x00\n        /* \"#utility.yul\":17353:17382   */\n      tag_327\n        /* \"#utility.yul\":17378:17381   */\n      dup4\n        /* \"#utility.yul\":17372:17376   */\n      dup4\n        /* \"#utility.yul\":17353:17382   */\n      tag_159\n      jump\t// in\n    tag_327:\n        /* \"#utility.yul\":17345:17382   */\n      swap2\n      pop\n        /* \"#utility.yul\":17415:17418   */\n      dup3\n        /* \"#utility.yul\":17412:17413   */\n      0x02\n        /* \"#utility.yul\":17408:17419   */\n      mul\n        /* \"#utility.yul\":17402:17406   */\n      dup3\n        /* \"#utility.yul\":17399:17420   */\n      or\n        /* \"#utility.yul\":17391:17420   */\n      swap1\n      pop\n        /* \"#utility.yul\":17131:17426   */\n      swap3\n      swap2\n      pop\n      pop\n      jump\t// out\n        /* \"#utility.yul\":17431:18826   */\n    tag_101:\n        /* \"#utility.yul\":17548:17585   */\n      tag_329\n        /* \"#utility.yul\":17581:17584   */\n      dup3\n        /* \"#utility.yul\":17548:17585   */\n      tag_116\n      jump\t// in\n    tag_329:\n        /* \"#utility.yul\":17650:17668   */\n      0xffffffffffffffff\n        /* \"#utility.yul\":17642:17648   */\n      dup2\n        /* \"#utility.yul\":17639:17669   */\n      gt\n        /* \"#utility.yul\":17636:17692   */\n      iszero\n      tag_330\n      jumpi\n        /* \"#utility.yul\":17672:17690   */\n      tag_331\n      tag_123\n      jump\t// in\n    tag_331:\n        /* \"#utility.yul\":17636:17692   */\n    tag_330:\n        /* \"#utility.yul\":17716:17754   */\n      tag_332\n        /* \"#utility.yul\":17748:17752   */\n      dup3\n        /* \"#utility.yul\":17742:17753   */\n      sload\n        /* \"#utility.yul\":17716:17754   */\n      tag_89\n      jump\t// in\n    tag_332:\n        /* \"#utility.yul\":17801:17868   */\n      tag_333\n        /* \"#utility.yul\":17861:17867   */\n      dup3\n        /* \"#utility.yul\":17853:17859   */\n      dup3\n        /* \"#utility.yul\":17847:17851   */\n      dup6\n        /* \"#utility.yul\":17801:17868   */\n      tag_157\n      jump\t// in\n    tag_333:\n        /* \"#utility.yul\":17895:17896   */\n      0x00\n        /* \"#utility.yul\":17919:17923   */\n      0x20\n        /* \"#utility.yul\":17906:17923   */\n      swap1\n      pop\n        /* \"#utility.yul\":17951:17953   */\n      0x1f\n        /* \"#utility.yul\":17943:17949   */\n      dup4\n        /* \"#utility.yul\":17940:17954   */\n      gt\n        /* \"#utility.yul\":17968:17969   */\n      0x01\n        /* \"#utility.yul\":17963:18581   */\n      dup2\n      eq\n      tag_335\n      jumpi\n        /* \"#utility.yul\":18625:18626   */\n      0x00\n        /* \"#utility.yul\":18642:18648   */\n      dup5\n        /* \"#utility.yul\":18639:18716   */\n      iszero\n      tag_336\n      jumpi\n        /* \"#utility.yul\":18691:18700   */\n      dup3\n        /* \"#utility.yul\":18686:18689   */\n      dup8\n        /* \"#utility.yul\":18682:18701   */\n      add\n        /* \"#utility.yul\":18676:18702   */\n      mload\n        /* \"#utility.yul\":18667:18702   */\n      swap1\n      pop\n        /* \"#utility.yul\":18639:18716   */\n    tag_336:\n        /* \"#utility.yul\":18742:18809   */\n      tag_337\n        /* \"#utility.yul\":18802:18808   */\n      dup6\n        /* \"#utility.yul\":18795:18800   */\n      dup3\n        /* \"#utility.yul\":18742:18809   */\n      tag_160\n      jump\t// in\n    tag_337:\n        /* \"#utility.yul\":18736:18740   */\n      dup7\n        /* \"#utility.yul\":18729:18810   */\n      sstore\n        /* \"#utility.yul\":18598:18820   */\n      pop\n        /* \"#utility.yul\":17933:18820   */\n      jump(tag_334)\n        /* \"#utility.yul\":17963:18581   */\n    tag_335:\n        /* \"#utility.yul\":18015:18019   */\n      0x1f\n        /* \"#utility.yul\":18011:18020   */\n      not\n        /* \"#utility.yul\":18003:18009   */\n      dup5\n        /* \"#utility.yul\":17999:18021   */\n      and\n        /* \"#utility.yul\":18049:18086   */\n      tag_338\n        /* \"#utility.yul\":18081:18085   */\n      dup7\n        /* \"#utility.yul\":18049:18086   */\n      tag_146\n      jump\t// in\n    tag_338:\n        /* \"#utility.yul\":18108:18109   */\n      0x00\n        /* \"#utility.yul\":18122:18330   */\n    tag_339:\n        /* \"#utility.yul\":18136:18143   */\n      dup3\n        /* \"#utility.yul\":18133:18134   */\n      dup2\n        /* \"#utility.yul\":18130:18144   */\n      lt\n        /* \"#utility.yul\":18122:18330   */\n      iszero\n      tag_341\n      jumpi\n        /* \"#utility.yul\":18215:18224   */\n      dup5\n        /* \"#utility.yul\":18210:18213   */\n      dup10\n        /* \"#utility.yul\":18206:18225   */\n      add\n        /* \"#utility.yul\":18200:18226   */\n      mload\n        /* \"#utility.yul\":18192:18198   */\n      dup3\n        /* \"#utility.yul\":18185:18227   */\n      sstore\n        /* \"#utility.yul\":18266:18267   */\n      0x01\n        /* \"#utility.yul\":18258:18264   */\n      dup3\n        /* \"#utility.yul\":18254:18268   */\n      add\n        /* \"#utility.yul\":18244:18268   */\n      swap2\n      pop\n        /* \"#utility.yul\":18313:18315   */\n      0x20\n        /* \"#utility.yul\":18302:18311   */\n      dup6\n        /* \"#utility.yul\":18298:18316   */\n      add\n        /* \"#utility.yul\":18285:18316   */\n      swap5\n      pop\n        /* \"#utility.yul\":18159:18163   */\n      0x20\n        /* \"#utility.yul\":18156:18157   */\n      dup2\n        /* \"#utility.yul\":18152:18164   */\n      add\n        /* \"#utility.yul\":18147:18164   */\n      swap1\n      pop\n        /* \"#utility.yul\":18122:18330   */\n      jump(tag_339)\n    tag_341:\n        /* \"#utility.yul\":18358:18364   */\n      dup7\n        /* \"#utility.yul\":18349:18356   */\n      dup4\n        /* \"#utility.yul\":18346:18365   */\n      lt\n        /* \"#utility.yul\":18343:18522   */\n      iszero\n      tag_342\n      jumpi\n        /* \"#utility.yul\":18416:18425   */\n      dup5\n        /* \"#utility.yul\":18411:18414   */\n      dup10\n        /* \"#utility.yul\":18407:18426   */\n      add\n        /* \"#utility.yul\":18401:18427   */\n      mload\n        /* \"#utility.yul\":18459:18507   */\n      tag_343\n        /* \"#utility.yul\":18501:18505   */\n      0x1f\n        /* \"#utility.yul\":18493:18499   */\n      dup10\n        /* \"#utility.yul\":18489:18506   */\n      and\n        /* \"#utility.yul\":18478:18487   */\n      dup3\n        /* \"#utility.yul\":18459:18507   */\n      tag_159\n      jump\t// in\n    tag_343:\n        /* \"#utility.yul\":18451:18457   */\n      dup4\n        /* \"#utility.yul\":18444:18508   */\n      sstore\n        /* \"#utility.yul\":18366:18522   */\n      pop\n        /* \"#utility.yul\":18343:18522   */\n    tag_342:\n        /* \"#utility.yul\":18568:18569   */\n      0x01\n        /* \"#utility.yul\":18564:18565   */\n      0x02\n        /* \"#utility.yul\":18556:18562   */\n      dup9\n        /* \"#utility.yul\":18552:18566   */\n      mul\n        /* \"#utility.yul\":18548:18570   */\n      add\n        /* \"#utility.yul\":18542:18546   */\n      dup9\n        /* \"#utility.yul\":18535:18571   */\n      sstore\n        /* \"#utility.yul\":17970:18581   */\n      pop\n      pop\n      pop\n        /* \"#utility.yul\":17933:18820   */\n    tag_334:\n      pop\n        /* \"#utility.yul\":17523:18826   */\n      pop\n      pop\n      pop\n        /* \"#utility.yul\":17431:18826   */\n      pop\n      pop\n      jump\t// out\n        /* \"#utility.yul\":18832:19026   */\n    tag_103:\n        /* \"#utility.yul\":18872:18876   */\n      0x00\n        /* \"#utility.yul\":18892:18912   */\n      tag_345\n        /* \"#utility.yul\":18910:18911   */\n      dup3\n        /* \"#utility.yul\":18892:18912   */\n      tag_109\n      jump\t// in\n    tag_345:\n        /* \"#utility.yul\":18887:18912   */\n      swap2\n      pop\n        /* \"#utility.yul\":18926:18946   */\n      tag_346\n        /* \"#utility.yul\":18944:18945   */\n      dup4\n        /* \"#utility.yul\":18926:18946   */\n      tag_109\n      jump\t// in\n    tag_346:\n        /* \"#utility.yul\":18921:18946   */\n      swap3\n      pop\n        /* \"#utility.yul\":18970:18971   */\n      dup3\n        /* \"#utility.yul\":18967:18968   */\n      dup3\n        /* \"#utility.yul\":18963:18972   */\n      sub\n        /* \"#utility.yul\":18955:18972   */\n      swap1\n      pop\n        /* \"#utility.yul\":18994:18995   */\n      dup2\n        /* \"#utility.yul\":18988:18992   */\n      dup2\n        /* \"#utility.yul\":18985:18996   */\n      gt\n        /* \"#utility.yul\":18982:19019   */\n      iszero\n      tag_347\n      jumpi\n        /* \"#utility.yul\":18999:19017   */\n      tag_348\n      tag_136\n      jump\t// in\n    tag_348:\n        /* \"#utility.yul\":18982:19019   */\n    tag_347:\n        /* \"#utility.yul\":18832:19026   */\n      swap3\n      swap2\n      pop\n      pop\n      jump\t// out\n        /* \"#utility.yul\":19032:19455   */\n    tag_105:\n        /* \"#utility.yul\":19173:19177   */\n      0x00\n        /* \"#utility.yul\":19211:19213   */\n      0x40\n        /* \"#utility.yul\":19200:19209   */\n      dup3\n        /* \"#utility.yul\":19196:19214   */\n      add\n        /* \"#utility.yul\":19188:19214   */\n      swap1\n      pop\n        /* \"#utility.yul\":19260:19269   */\n      dup2\n        /* \"#utility.yul\":19254:19258   */\n      dup2\n        /* \"#utility.yul\":19250:19270   */\n      sub\n        /* \"#utility.yul\":19246:19247   */\n      0x00\n        /* \"#utility.yul\":19235:19244   */\n      dup4\n        /* \"#utility.yul\":19231:19248   */\n      add\n        /* \"#utility.yul\":19224:19271   */\n      mstore\n        /* \"#utility.yul\":19288:19366   */\n      tag_350\n        /* \"#utility.yul\":19361:19365   */\n      dup2\n        /* \"#utility.yul\":19352:19358   */\n      dup6\n        /* \"#utility.yul\":19288:19366   */\n      tag_120\n      jump\t// in\n    tag_350:\n        /* \"#utility.yul\":19280:19366   */\n      swap1\n      pop\n        /* \"#utility.yul\":19376:19448   */\n      tag_351\n        /* \"#utility.yul\":19444:19446   */\n      0x20\n        /* \"#utility.yul\":19433:19442   */\n      dup4\n        /* \"#utility.yul\":19429:19447   */\n      add\n        /* \"#utility.yul\":19420:19426   */\n      dup5\n        /* \"#utility.yul\":19376:19448   */\n      tag_112\n      jump\t// in\n    tag_351:\n        /* \"#utility.yul\":19032:19455   */\n      swap4\n      swap3\n      pop\n      pop\n      pop\n      jump\t// out\n\n    auxdata: 0xa2646970667358221220e1527b5cac706696b4f06f73951c7b7fd66924d6ca6494d912c41973dc4115cc64736f6c634300081e0033\n}\n",
				"bytecode": {
					"linkReferences": {},
					"object": "6080604052348015600e575f5ffd5b50335f5f6101000a81548173ffffffffffffffffffffffffffffffffffffffff021916908373ffffffffffffffffffffffffffffffffffffffff1602179055506114158061005b5f395ff3fe608060405234801561000f575f5ffd5b506004361061007b575f3560e01c80638da5cb5b116100595780638da5cb5b146100d7578063bdb92e8e146100f5578063cfb869bf14610111578063e0ce2aa9146101435761007b565b806319b815771461007f578063680f65221461009b578063698224ae146100b9575b5f5ffd5b61009960048036038101906100949190610a15565b61015f565b005b6100a3610370565b6040516100b09190610a4f565b60405180910390f35b6100c1610418565b6040516100ce9190610a4f565b60405180910390f35b6100df61041d565b6040516100ec9190610aa7565b60405180910390f35b61010f600480360381019061010a9190610a15565b610441565b005b61012b60048036038101906101269190610a15565b61075e565b60405161013a93929190610b30565b60405180910390f35b61015d60048036038101906101589190610c98565b610838565b005b5f5f9054906101000a900473ffffffffffffffffffffffffffffffffffffffff1673ffffffffffffffffffffffffffffffffffffffff163373ffffffffffffffffffffffffffffffffffffffff16036101ed576040517f08c379a00000000000000000000000000000000000000000000000000000000081526004016101e490610d29565b60405180910390fd5b6001805490508110610234576040517f08c379a000000000000000000000000000000000000000000000000000000000815260040161022b90610d91565b60405180910390fd5b5f6001828154811061024957610248610daf565b5b905f5260205f20906003020190505f73ffffffffffffffffffffffffffffffffffffffff16816001015f9054906101000a900473ffffffffffffffffffffffffffffffffffffffff1673ffffffffffffffffffffffffffffffffffffffff16146102e8576040517f08c379a00000000000000000000000000000000000000000000000000000000081526004016102df90610e26565b60405180910390fd5b33816001015f6101000a81548173ffffffffffffffffffffffffffffffffffffffff021916908373ffffffffffffffffffffffffffffffffffffffff1602179055504281600201819055507f34fcbadf105a17b03e10d0cbd33a726d0946b5dd79e7ea2038b0c15ccdfd3cc83383604051610364929190610e44565b60405180910390a15050565b5f5f5f90505b600180549050811015610414575f73ffffffffffffffffffffffffffffffffffffffff16600182815481106103ae576103ad610daf565b5b905f5260205f2090600302016001015f9054906101000a900473ffffffffffffffffffffffffffffffffffffffff1673ffffffffffffffffffffffffffffffffffffffff161461040757818061040390610e98565b9250505b8080600101915050610376565b5090565b607881565b5f5f9054906101000a900473ffffffffffffffffffffffffffffffffffffffff1681565b5f5f9054906101000a900473ffffffffffffffffffffffffffffffffffffffff1673ffffffffffffffffffffffffffffffffffffffff163373ffffffffffffffffffffffffffffffffffffffff16036104cf576040517f08c379a00000000000000000000000000000000000000000000000000000000081526004016104c690610d29565b60405180910390fd5b6001805490508110610516576040517f08c379a000000000000000000000000000000000000000000000000000000000815260040161050d90610d91565b60405180910390fd5b5f6001828154811061052b5761052a610daf565b5b905f5260205f20906003020190505f73ffffffffffffffffffffffffffffffffffffffff16816001015f9054906101000a900473ffffffffffffffffffffffffffffffffffffffff1673ffffffffffffffffffffffffffffffffffffffff16036105ca576040517f08c379a00000000000000000000000000000000000000000000000000000000081526004016105c190610f29565b60405180910390fd5b3373ffffffffffffffffffffffffffffffffffffffff16816001015f9054906101000a900473ffffffffffffffffffffffffffffffffffffffff1673ffffffffffffffffffffffffffffffffffffffff161461065b576040517f08c379a000000000000000000000000000000000000000000000000000000000815260040161065290610f91565b60405180910390fd5b6078816002015461066c9190610faf565b4211156106ae576040517f08c379a00000000000000000000000000000000000000000000000000000000081526004016106a59061102c565b60405180910390fd5b5f816001015f9054906101000a900473ffffffffffffffffffffffffffffffffffffffff1690505f826001015f6101000a81548173ffffffffffffffffffffffffffffffffffffffff021916908373ffffffffffffffffffffffffffffffffffffffff1602179055505f82600201819055507fa34db802bb4565905a6f6a3088fd2a40a06aaff101a9b08b6ac63cf720ce34388184604051610751929190610e44565b60405180910390a1505050565b6001818154811061076d575f80fd5b905f5260205f2090600302015f91509050805f01805461078c90611077565b80601f01602080910402602001604051908101604052809291908181526020018280546107b890611077565b80156108035780601f106107da57610100808354040283529160200191610803565b820191905f5260205f20905b8154815290600101906020018083116107e657829003601f168201915b505050505090806001015f9054906101000a900473ffffffffffffffffffffffffffffffffffffffff16908060020154905083565b5f5f9054906101000a900473ffffffffffffffffffffffffffffffffffffffff1673ffffffffffffffffffffffffffffffffffffffff163373ffffffffffffffffffffffffffffffffffffffff16146108c6576040517f08c379a00000000000000000000000000000000000000000000000000000000081526004016108bd906110f1565b60405180910390fd5b600160405180606001604052808381526020015f73ffffffffffffffffffffffffffffffffffffffff1681526020015f815250908060018154018082558091505060019003905f5260205f2090600302015f909190919091505f820151815f01908161093291906112af565b506020820151816001015f6101000a81548173ffffffffffffffffffffffffffffffffffffffff021916908373ffffffffffffffffffffffffffffffffffffffff1602179055506040820151816002015550507f1941c38e8c58c67971f5cf6f3e58dcb9e6e74456306322a325b2ac6660bd1a5181600180805490506109b8919061137e565b6040516109c69291906113b1565b60405180910390a150565b5f604051905090565b5f5ffd5b5f5ffd5b5f819050919050565b6109f4816109e2565b81146109fe575f5ffd5b50565b5f81359050610a0f816109eb565b92915050565b5f60208284031215610a2a57610a296109da565b5b5f610a3784828501610a01565b91505092915050565b610a49816109e2565b82525050565b5f602082019050610a625f830184610a40565b92915050565b5f73ffffffffffffffffffffffffffffffffffffffff82169050919050565b5f610a9182610a68565b9050919050565b610aa181610a87565b82525050565b5f602082019050610aba5f830184610a98565b92915050565b5f81519050919050565b5f82825260208201905092915050565b8281835e5f83830152505050565b5f601f19601f8301169050919050565b5f610b0282610ac0565b610b0c8185610aca565b9350610b1c818560208601610ada565b610b2581610ae8565b840191505092915050565b5f6060820190508181035f830152610b488186610af8565b9050610b576020830185610a98565b610b646040830184610a40565b949350505050565b5f5ffd5b5f5ffd5b7f4e487b71000000000000000000000000000000000000000000000000000000005f52604160045260245ffd5b610baa82610ae8565b810181811067ffffffffffffffff82111715610bc957610bc8610b74565b5b80604052505050565b5f610bdb6109d1565b9050610be78282610ba1565b919050565b5f67ffffffffffffffff821115610c0657610c05610b74565b5b610c0f82610ae8565b9050602081019050919050565b828183375f83830152505050565b5f610c3c610c3784610bec565b610bd2565b905082815260208101848484011115610c5857610c57610b70565b5b610c63848285610c1c565b509392505050565b5f82601f830112610c7f57610c7e610b6c565b5b8135610c8f848260208601610c2a565b91505092915050565b5f60208284031215610cad57610cac6109da565b5b5f82013567ffffffffffffffff811115610cca57610cc96109de565b5b610cd684828501610c6b565b91505092915050565b7f536f6c6f2070617261206e6f2d6f776e657273000000000000000000000000005f82015250565b5f610d13601383610aca565b9150610d1e82610cdf565b602082019050919050565b5f6020820190508181035f830152610d4081610d07565b9050919050565b7f494420696e76616c69646f0000000000000000000000000000000000000000005f82015250565b5f610d7b600b83610aca565b9150610d8682610d47565b602082019050919050565b5f6020820190508181035f830152610da881610d6f565b9050919050565b7f4e487b71000000000000000000000000000000000000000000000000000000005f52603260045260245ffd5b7f4d6173636f74612079612061646f7074616461000000000000000000000000005f82015250565b5f610e10601383610aca565b9150610e1b82610ddc565b602082019050919050565b5f6020820190508181035f830152610e3d81610e04565b9050919050565b5f604082019050610e575f830185610a98565b610e646020830184610a40565b9392505050565b7f4e487b71000000000000000000000000000000000000000000000000000000005f52601160045260245ffd5b5f610ea2826109e2565b91507fffffffffffffffffffffffffffffffffffffffffffffffffffffffffffffffff8203610ed457610ed3610e6b565b5b600182019050919050565b7f4d6173636f7461206e6f2061646f7074616461000000000000000000000000005f82015250565b5f610f13601383610aca565b9150610f1e82610edf565b602082019050919050565b5f6020820190508181035f830152610f4081610f07565b9050919050565b7f4e6f206572657320656c2061646f7074616e74650000000000000000000000005f82015250565b5f610f7b601483610aca565b9150610f8682610f47565b602082019050919050565b5f6020820190508181035f830152610fa881610f6f565b9050919050565b5f610fb9826109e2565b9150610fc4836109e2565b9250828201905080821115610fdc57610fdb610e6b565b5b92915050565b7f5469656d706f20657870697261646f00000000000000000000000000000000005f82015250565b5f611016600f83610aca565b915061102182610fe2565b602082019050919050565b5f6020820190508181035f8301526110438161100a565b9050919050565b7f4e487b71000000000000000000000000000000000000000000000000000000005f52602260045260245ffd5b5f600282049050600182168061108e57607f821691505b6020821081036110a1576110a061104a565b5b50919050565b7f536f6c6f20656c206f776e6572000000000000000000000000000000000000005f82015250565b5f6110db600d83610aca565b91506110e6826110a7565b602082019050919050565b5f6020820190508181035f830152611108816110cf565b9050919050565b5f819050815f5260205f209050919050565b5f6020601f8301049050919050565b5f82821b905092915050565b5f6008830261116b7fffffffffffffffffffffffffffffffffffffffffffffffffffffffffffffffff82611130565b6111758683611130565b95508019841693508086168417925050509392505050565b5f819050919050565b5f6111b06111ab6111a6846109e2565b61118d565b6109e2565b9050919050565b5f819050919050565b6111c983611196565b6111dd6111d5826111b7565b84845461113c565b825550505050565b5f5f905090565b6111f46111e5565b6111ff8184846111c0565b505050565b5b81811015611222576112175f826111ec565b600181019050611205565b5050565b601f821115611267576112388161110f565b61124184611121565b81016020851015611250578190505b61126461125c85611121565b830182611204565b50505b505050565b5f82821c905092915050565b5f6112875f198460080261126c565b1980831691505092915050565b5f61129f8383611278565b9150826002028217905092915050565b6112b882610ac0565b67ffffffffffffffff8111156112d1576112d0610b74565b5b6112db8254611077565b6112e6828285611226565b5f60209050601f831160018114611317575f8415611305578287015190505b61130f8582611294565b865550611376565b601f1984166113258661110f565b5f5b8281101561134c57848901518255600182019150602085019450602081019050611327565b868310156113695784890151611365601f891682611278565b8355505b6001600288020188555050505b505050505050565b5f611388826109e2565b9150611393836109e2565b92508282039050818111156113ab576113aa610e6b565b5b92915050565b5f6040820190508181035f8301526113c98185610af8565b90506113d86020830184610a40565b939250505056fea2646970667358221220e1527b5cac706696b4f06f73951c7b7fd66924d6ca6494d912c41973dc4115cc64736f6c634300081e0033",
					"opcodes": "PUSH1 0x80 PUSH1 0x40 MSTORE CALLVALUE DUP1 ISZERO PUSH1 0xE JUMPI PUSH0 PUSH0 REVERT JUMPDEST POP CALLER PUSH0 PUSH0 PUSH2 0x100 EXP DUP2 SLOAD DUP2 PUSH20 0xFFFFFFFFFFFFFFFFFFFFFFFFFFFFFFFFFFFFFFFF MUL NOT AND SWAP1 DUP4 PUSH20 0xFFFFFFFFFFFFFFFFFFFFFFFFFFFFFFFFFFFFFFFF AND MUL OR SWAP1 SSTORE POP PUSH2 0x1415 DUP1 PUSH2 0x5B PUSH0 CODECOPY PUSH0 RETURN INVALID PUSH1 0x80 PUSH1 0x40 MSTORE CALLVALUE DUP1 ISZERO PUSH2 0xF JUMPI PUSH0 PUSH0 REVERT JUMPDEST POP PUSH1 0x4 CALLDATASIZE LT PUSH2 0x7B JUMPI PUSH0 CALLDATALOAD PUSH1 0xE0 SHR DUP1 PUSH4 0x8DA5CB5B GT PUSH2 0x59 JUMPI DUP1 PUSH4 0x8DA5CB5B EQ PUSH2 0xD7 JUMPI DUP1 PUSH4 0xBDB92E8E EQ PUSH2 0xF5 JUMPI DUP1 PUSH4 0xCFB869BF EQ PUSH2 0x111 JUMPI DUP1 PUSH4 0xE0CE2AA9 EQ PUSH2 0x143 JUMPI PUSH2 0x7B JUMP JUMPDEST DUP1 PUSH4 0x19B81577 EQ PUSH2 0x7F JUMPI DUP1 PUSH4 0x680F6522 EQ PUSH2 0x9B JUMPI DUP1 PUSH4 0x698224AE EQ PUSH2 0xB9 JUMPI JUMPDEST PUSH0 PUSH0 REVERT JUMPDEST PUSH2 0x99 PUSH1 0x4 DUP1 CALLDATASIZE SUB DUP2 ADD SWAP1 PUSH2 0x94 SWAP2 SWAP1 PUSH2 0xA15 JUMP JUMPDEST PUSH2 0x15F JUMP JUMPDEST STOP JUMPDEST PUSH2 0xA3 PUSH2 0x370 JUMP JUMPDEST PUSH1 0x40 MLOAD PUSH2 0xB0 SWAP2 SWAP1 PUSH2 0xA4F JUMP JUMPDEST PUSH1 0x40 MLOAD DUP1 SWAP2 SUB SWAP1 RETURN JUMPDEST PUSH2 0xC1 PUSH2 0x418 JUMP JUMPDEST PUSH1 0x40 MLOAD PUSH2 0xCE SWAP2 SWAP1 PUSH2 0xA4F JUMP JUMPDEST PUSH1 0x40 MLOAD DUP1 SWAP2 SUB SWAP1 RETURN JUMPDEST PUSH2 0xDF PUSH2 0x41D JUMP JUMPDEST PUSH1 0x40 MLOAD PUSH2 0xEC SWAP2 SWAP1 PUSH2 0xAA7 JUMP JUMPDEST PUSH1 0x40 MLOAD DUP1 SWAP2 SUB SWAP1 RETURN JUMPDEST PUSH2 0x10F PUSH1 0x4 DUP1 CALLDATASIZE SUB DUP2 ADD SWAP1 PUSH2 0x10A SWAP2 SWAP1 PUSH2 0xA15 JUMP JUMPDEST PUSH2 0x441 JUMP JUMPDEST STOP JUMPDEST PUSH2 0x12B PUSH1 0x4 DUP1 CALLDATASIZE SUB DUP2 ADD SWAP1 PUSH2 0x126 SWAP2 SWAP1 PUSH2 0xA15 JUMP JUMPDEST PUSH2 0x75E JUMP JUMPDEST PUSH1 0x40 MLOAD PUSH2 0x13A SWAP4 SWAP3 SWAP2 SWAP1 PUSH2 0xB30 JUMP JUMPDEST PUSH1 0x40 MLOAD DUP1 SWAP2 SUB SWAP1 RETURN JUMPDEST PUSH2 0x15D PUSH1 0x4 DUP1 CALLDATASIZE SUB DUP2 ADD SWAP1 PUSH2 0x158 SWAP2 SWAP1 PUSH2 0xC98 JUMP JUMPDEST PUSH2 0x838 JUMP JUMPDEST STOP JUMPDEST PUSH0 PUSH0 SWAP1 SLOAD SWAP1 PUSH2 0x100 EXP SWAP1 DIV PUSH20 0xFFFFFFFFFFFFFFFFFFFFFFFFFFFFFFFFFFFFFFFF AND PUSH20 0xFFFFFFFFFFFFFFFFFFFFFFFFFFFFFFFFFFFFFFFF AND CALLER PUSH20 0xFFFFFFFFFFFFFFFFFFFFFFFFFFFFFFFFFFFFFFFF AND SUB PUSH2 0x1ED JUMPI PUSH1 0x40 MLOAD PUSH32 0x8C379A000000000000000000000000000000000000000000000000000000000 DUP2 MSTORE PUSH1 0x4 ADD PUSH2 0x1E4 SWAP1 PUSH2 0xD29 JUMP JUMPDEST PUSH1 0x40 MLOAD DUP1 SWAP2 SUB SWAP1 REVERT JUMPDEST PUSH1 0x1 DUP1 SLOAD SWAP1 POP DUP2 LT PUSH2 0x234 JUMPI PUSH1 0x40 MLOAD PUSH32 0x8C379A000000000000000000000000000000000000000000000000000000000 DUP2 MSTORE PUSH1 0x4 ADD PUSH2 0x22B SWAP1 PUSH2 0xD91 JUMP JUMPDEST PUSH1 0x40 MLOAD DUP1 SWAP2 SUB SWAP1 REVERT JUMPDEST PUSH0 PUSH1 0x1 DUP3 DUP2 SLOAD DUP2 LT PUSH2 0x249 JUMPI PUSH2 0x248 PUSH2 0xDAF JUMP JUMPDEST JUMPDEST SWAP1 PUSH0 MSTORE PUSH1 0x20 PUSH0 KECCAK256 SWAP1 PUSH1 0x3 MUL ADD SWAP1 POP PUSH0 PUSH20 0xFFFFFFFFFFFFFFFFFFFFFFFFFFFFFFFFFFFFFFFF AND DUP2 PUSH1 0x1 ADD PUSH0 SWAP1 SLOAD SWAP1 PUSH2 0x100 EXP SWAP1 DIV PUSH20 0xFFFFFFFFFFFFFFFFFFFFFFFFFFFFFFFFFFFFFFFF AND PUSH20 0xFFFFFFFFFFFFFFFFFFFFFFFFFFFFFFFFFFFFFFFF AND EQ PUSH2 0x2E8 JUMPI PUSH1 0x40 MLOAD PUSH32 0x8C379A000000000000000000000000000000000000000000000000000000000 DUP2 MSTORE PUSH1 0x4 ADD PUSH2 0x2DF SWAP1 PUSH2 0xE26 JUMP JUMPDEST PUSH1 0x40 MLOAD DUP1 SWAP2 SUB SWAP1 REVERT JUMPDEST CALLER DUP2 PUSH1 0x1 ADD PUSH0 PUSH2 0x100 EXP DUP2 SLOAD DUP2 PUSH20 0xFFFFFFFFFFFFFFFFFFFFFFFFFFFFFFFFFFFFFFFF MUL NOT AND SWAP1 DUP4 PUSH20 0xFFFFFFFFFFFFFFFFFFFFFFFFFFFFFFFFFFFFFFFF AND MUL OR SWAP1 SSTORE POP TIMESTAMP DUP2 PUSH1 0x2 ADD DUP2 SWAP1 SSTORE POP PUSH32 0x34FCBADF105A17B03E10D0CBD33A726D0946B5DD79E7EA2038B0C15CCDFD3CC8 CALLER DUP4 PUSH1 0x40 MLOAD PUSH2 0x364 SWAP3 SWAP2 SWAP1 PUSH2 0xE44 JUMP JUMPDEST PUSH1 0x40 MLOAD DUP1 SWAP2 SUB SWAP1 LOG1 POP POP JUMP JUMPDEST PUSH0 PUSH0 PUSH0 SWAP1 POP JUMPDEST PUSH1 0x1 DUP1 SLOAD SWAP1 POP DUP2 LT ISZERO PUSH2 0x414 JUMPI PUSH0 PUSH20 0xFFFFFFFFFFFFFFFFFFFFFFFFFFFFFFFFFFFFFFFF AND PUSH1 0x1 DUP3 DUP2 SLOAD DUP2 LT PUSH2 0x3AE JUMPI PUSH2 0x3AD PUSH2 0xDAF JUMP JUMPDEST JUMPDEST SWAP1 PUSH0 MSTORE PUSH1 0x20 PUSH0 KECCAK256 SWAP1 PUSH1 0x3 MUL ADD PUSH1 0x1 ADD PUSH0 SWAP1 SLOAD SWAP1 PUSH2 0x100 EXP SWAP1 DIV PUSH20 0xFFFFFFFFFFFFFFFFFFFFFFFFFFFFFFFFFFFFFFFF AND PUSH20 0xFFFFFFFFFFFFFFFFFFFFFFFFFFFFFFFFFFFFFFFF AND EQ PUSH2 0x407 JUMPI DUP2 DUP1 PUSH2 0x403 SWAP1 PUSH2 0xE98 JUMP JUMPDEST SWAP3 POP POP JUMPDEST DUP1 DUP1 PUSH1 0x1 ADD SWAP2 POP POP PUSH2 0x376 JUMP JUMPDEST POP SWAP1 JUMP JUMPDEST PUSH1 0x78 DUP2 JUMP JUMPDEST PUSH0 PUSH0 SWAP1 SLOAD SWAP1 PUSH2 0x100 EXP SWAP1 DIV PUSH20 0xFFFFFFFFFFFFFFFFFFFFFFFFFFFFFFFFFFFFFFFF AND DUP2 JUMP JUMPDEST PUSH0 PUSH0 SWAP1 SLOAD SWAP1 PUSH2 0x100 EXP SWAP1 DIV PUSH20 0xFFFFFFFFFFFFFFFFFFFFFFFFFFFFFFFFFFFFFFFF AND PUSH20 0xFFFFFFFFFFFFFFFFFFFFFFFFFFFFFFFFFFFFFFFF AND CALLER PUSH20 0xFFFFFFFFFFFFFFFFFFFFFFFFFFFFFFFFFFFFFFFF AND SUB PUSH2 0x4CF JUMPI PUSH1 0x40 MLOAD PUSH32 0x8C379A000000000000000000000000000000000000000000000000000000000 DUP2 MSTORE PUSH1 0x4 ADD PUSH2 0x4C6 SWAP1 PUSH2 0xD29 JUMP JUMPDEST PUSH1 0x40 MLOAD DUP1 SWAP2 SUB SWAP1 REVERT JUMPDEST PUSH1 0x1 DUP1 SLOAD SWAP1 POP DUP2 LT PUSH2 0x516 JUMPI PUSH1 0x40 MLOAD PUSH32 0x8C379A000000000000000000000000000000000000000000000000000000000 DUP2 MSTORE PUSH1 0x4 ADD PUSH2 0x50D SWAP1 PUSH2 0xD91 JUMP JUMPDEST PUSH1 0x40 MLOAD DUP1 SWAP2 SUB SWAP1 REVERT JUMPDEST PUSH0 PUSH1 0x1 DUP3 DUP2 SLOAD DUP2 LT PUSH2 0x52B JUMPI PUSH2 0x52A PUSH2 0xDAF JUMP JUMPDEST JUMPDEST SWAP1 PUSH0 MSTORE PUSH1 0x20 PUSH0 KECCAK256 SWAP1 PUSH1 0x3 MUL ADD SWAP1 POP PUSH0 PUSH20 0xFFFFFFFFFFFFFFFFFFFFFFFFFFFFFFFFFFFFFFFF AND DUP2 PUSH1 0x1 ADD PUSH0 SWAP1 SLOAD SWAP1 PUSH2 0x100 EXP SWAP1 DIV PUSH20 0xFFFFFFFFFFFFFFFFFFFFFFFFFFFFFFFFFFFFFFFF AND PUSH20 0xFFFFFFFFFFFFFFFFFFFFFFFFFFFFFFFFFFFFFFFF AND SUB PUSH2 0x5CA JUMPI PUSH1 0x40 MLOAD PUSH32 0x8C379A000000000000000000000000000000000000000000000000000000000 DUP2 MSTORE PUSH1 0x4 ADD PUSH2 0x5C1 SWAP1 PUSH2 0xF29 JUMP JUMPDEST PUSH1 0x40 MLOAD DUP1 SWAP2 SUB SWAP1 REVERT JUMPDEST CALLER PUSH20 0xFFFFFFFFFFFFFFFFFFFFFFFFFFFFFFFFFFFFFFFF AND DUP2 PUSH1 0x1 ADD PUSH0 SWAP1 SLOAD SWAP1 PUSH2 0x100 EXP SWAP1 DIV PUSH20 0xFFFFFFFFFFFFFFFFFFFFFFFFFFFFFFFFFFFFFFFF AND PUSH20 0xFFFFFFFFFFFFFFFFFFFFFFFFFFFFFFFFFFFFFFFF AND EQ PUSH2 0x65B JUMPI PUSH1 0x40 MLOAD PUSH32 0x8C379A000000000000000000000000000000000000000000000000000000000 DUP2 MSTORE PUSH1 0x4 ADD PUSH2 0x652 SWAP1 PUSH2 0xF91 JUMP JUMPDEST PUSH1 0x40 MLOAD DUP1 SWAP2 SUB SWAP1 REVERT JUMPDEST PUSH1 0x78 DUP2 PUSH1 0x2 ADD SLOAD PUSH2 0x66C SWAP2 SWAP1 PUSH2 0xFAF JUMP JUMPDEST TIMESTAMP GT ISZERO PUSH2 0x6AE JUMPI PUSH1 0x40 MLOAD PUSH32 0x8C379A000000000000000000000000000000000000000000000000000000000 DUP2 MSTORE PUSH1 0x4 ADD PUSH2 0x6A5 SWAP1 PUSH2 0x102C JUMP JUMPDEST PUSH1 0x40 MLOAD DUP1 SWAP2 SUB SWAP1 REVERT JUMPDEST PUSH0 DUP2 PUSH1 0x1 ADD PUSH0 SWAP1 SLOAD SWAP1 PUSH2 0x100 EXP SWAP1 DIV PUSH20 0xFFFFFFFFFFFFFFFFFFFFFFFFFFFFFFFFFFFFFFFF AND SWAP1 POP PUSH0 DUP3 PUSH1 0x1 ADD PUSH0 PUSH2 0x100 EXP DUP2 SLOAD DUP2 PUSH20 0xFFFFFFFFFFFFFFFFFFFFFFFFFFFFFFFFFFFFFFFF MUL NOT AND SWAP1 DUP4 PUSH20 0xFFFFFFFFFFFFFFFFFFFFFFFFFFFFFFFFFFFFFFFF AND MUL OR SWAP1 SSTORE POP PUSH0 DUP3 PUSH1 0x2 ADD DUP2 SWAP1 SSTORE POP PUSH32 0xA34DB802BB4565905A6F6A3088FD2A40A06AAFF101A9B08B6AC63CF720CE3438 DUP2 DUP5 PUSH1 0x40 MLOAD PUSH2 0x751 SWAP3 SWAP2 SWAP1 PUSH2 0xE44 JUMP JUMPDEST PUSH1 0x40 MLOAD DUP1 SWAP2 SUB SWAP1 LOG1 POP POP POP JUMP JUMPDEST PUSH1 0x1 DUP2 DUP2 SLOAD DUP2 LT PUSH2 0x76D JUMPI PUSH0 DUP1 REVERT JUMPDEST SWAP1 PUSH0 MSTORE PUSH1 0x20 PUSH0 KECCAK256 SWAP1 PUSH1 0x3 MUL ADD PUSH0 SWAP2 POP SWAP1 POP DUP1 PUSH0 ADD DUP1 SLOAD PUSH2 0x78C SWAP1 PUSH2 0x1077 JUMP JUMPDEST DUP1 PUSH1 0x1F ADD PUSH1 0x20 DUP1 SWAP2 DIV MUL PUSH1 0x20 ADD PUSH1 0x40 MLOAD SWAP1 DUP2 ADD PUSH1 0x40 MSTORE DUP1 SWAP3 SWAP2 SWAP1 DUP2 DUP2 MSTORE PUSH1 0x20 ADD DUP3 DUP1 SLOAD PUSH2 0x7B8 SWAP1 PUSH2 0x1077 JUMP JUMPDEST DUP1 ISZERO PUSH2 0x803 JUMPI DUP1 PUSH1 0x1F LT PUSH2 0x7DA JUMPI PUSH2 0x100 DUP1 DUP4 SLOAD DIV MUL DUP4 MSTORE SWAP2 PUSH1 0x20 ADD SWAP2 PUSH2 0x803 JUMP JUMPDEST DUP3 ADD SWAP2 SWAP1 PUSH0 MSTORE PUSH1 0x20 PUSH0 KECCAK256 SWAP1 JUMPDEST DUP2 SLOAD DUP2 MSTORE SWAP1 PUSH1 0x1 ADD SWAP1 PUSH1 0x20 ADD DUP1 DUP4 GT PUSH2 0x7E6 JUMPI DUP3 SWAP1 SUB PUSH1 0x1F AND DUP3 ADD SWAP2 JUMPDEST POP POP POP POP POP SWAP1 DUP1 PUSH1 0x1 ADD PUSH0 SWAP1 SLOAD SWAP1 PUSH2 0x100 EXP SWAP1 DIV PUSH20 0xFFFFFFFFFFFFFFFFFFFFFFFFFFFFFFFFFFFFFFFF AND SWAP1 DUP1 PUSH1 0x2 ADD SLOAD SWAP1 POP DUP4 JUMP JUMPDEST PUSH0 PUSH0 SWAP1 SLOAD SWAP1 PUSH2 0x100 EXP SWAP1 DIV PUSH20 0xFFFFFFFFFFFFFFFFFFFFFFFFFFFFFFFFFFFFFFFF AND PUSH20 0xFFFFFFFFFFFFFFFFFFFFFFFFFFFFFFFFFFFFFFFF AND CALLER PUSH20 0xFFFFFFFFFFFFFFFFFFFFFFFFFFFFFFFFFFFFFFFF AND EQ PUSH2 0x8C6 JUMPI PUSH1 0x40 MLOAD PUSH32 0x8C379A000000000000000000000000000000000000000000000000000000000 DUP2 MSTORE PUSH1 0x4 ADD PUSH2 0x8BD SWAP1 PUSH2 0x10F1 JUMP JUMPDEST PUSH1 0x40 MLOAD DUP1 SWAP2 SUB SWAP1 REVERT JUMPDEST PUSH1 0x1 PUSH1 0x40 MLOAD DUP1 PUSH1 0x60 ADD PUSH1 0x40 MSTORE DUP1 DUP4 DUP2 MSTORE PUSH1 0x20 ADD PUSH0 PUSH20 0xFFFFFFFFFFFFFFFFFFFFFFFFFFFFFFFFFFFFFFFF AND DUP2 MSTORE PUSH1 0x20 ADD PUSH0 DUP2 MSTORE POP SWAP1 DUP1 PUSH1 0x1 DUP2 SLOAD ADD DUP1 DUP3 SSTORE DUP1 SWAP2 POP POP PUSH1 0x1 SWAP1 SUB SWAP1 PUSH0 MSTORE PUSH1 0x20 PUSH0 KECCAK256 SWAP1 PUSH1 0x3 MUL ADD PUSH0 SWAP1 SWAP2 SWAP1 SWAP2 SWAP1 SWAP2 POP PUSH0 DUP3 ADD MLOAD DUP2 PUSH0 ADD SWAP1 DUP2 PUSH2 0x932 SWAP2 SWAP1 PUSH2 0x12AF JUMP JUMPDEST POP PUSH1 0x20 DUP3 ADD MLOAD DUP2 PUSH1 0x1 ADD PUSH0 PUSH2 0x100 EXP DUP2 SLOAD DUP2 PUSH20 0xFFFFFFFFFFFFFFFFFFFFFFFFFFFFFFFFFFFFFFFF MUL NOT AND SWAP1 DUP4 PUSH20 0xFFFFFFFFFFFFFFFFFFFFFFFFFFFFFFFFFFFFFFFF AND MUL OR SWAP1 SSTORE POP PUSH1 0x40 DUP3 ADD MLOAD DUP2 PUSH1 0x2 ADD SSTORE POP POP PUSH32 0x1941C38E8C58C67971F5CF6F3E58DCB9E6E74456306322A325B2AC6660BD1A51 DUP2 PUSH1 0x1 DUP1 DUP1 SLOAD SWAP1 POP PUSH2 0x9B8 SWAP2 SWAP1 PUSH2 0x137E JUMP JUMPDEST PUSH1 0x40 MLOAD PUSH2 0x9C6 SWAP3 SWAP2 SWAP1 PUSH2 0x13B1 JUMP JUMPDEST PUSH1 0x40 MLOAD DUP1 SWAP2 SUB SWAP1 LOG1 POP JUMP JUMPDEST PUSH0 PUSH1 0x40 MLOAD SWAP1 POP SWAP1 JUMP JUMPDEST PUSH0 PUSH0 REVERT JUMPDEST PUSH0 PUSH0 REVERT JUMPDEST PUSH0 DUP2 SWAP1 POP SWAP2 SWAP1 POP JUMP JUMPDEST PUSH2 0x9F4 DUP2 PUSH2 0x9E2 JUMP JUMPDEST DUP2 EQ PUSH2 0x9FE JUMPI PUSH0 PUSH0 REVERT JUMPDEST POP JUMP JUMPDEST PUSH0 DUP2 CALLDATALOAD SWAP1 POP PUSH2 0xA0F DUP2 PUSH2 0x9EB JUMP JUMPDEST SWAP3 SWAP2 POP POP JUMP JUMPDEST PUSH0 PUSH1 0x20 DUP3 DUP5 SUB SLT ISZERO PUSH2 0xA2A JUMPI PUSH2 0xA29 PUSH2 0x9DA JUMP JUMPDEST JUMPDEST PUSH0 PUSH2 0xA37 DUP5 DUP3 DUP6 ADD PUSH2 0xA01 JUMP JUMPDEST SWAP2 POP POP SWAP3 SWAP2 POP POP JUMP JUMPDEST PUSH2 0xA49 DUP2 PUSH2 0x9E2 JUMP JUMPDEST DUP3 MSTORE POP POP JUMP JUMPDEST PUSH0 PUSH1 0x20 DUP3 ADD SWAP1 POP PUSH2 0xA62 PUSH0 DUP4 ADD DUP5 PUSH2 0xA40 JUMP JUMPDEST SWAP3 SWAP2 POP POP JUMP JUMPDEST PUSH0 PUSH20 0xFFFFFFFFFFFFFFFFFFFFFFFFFFFFFFFFFFFFFFFF DUP3 AND SWAP1 POP SWAP2 SWAP1 POP JUMP JUMPDEST PUSH0 PUSH2 0xA91 DUP3 PUSH2 0xA68 JUMP JUMPDEST SWAP1 POP SWAP2 SWAP1 POP JUMP JUMPDEST PUSH2 0xAA1 DUP2 PUSH2 0xA87 JUMP JUMPDEST DUP3 MSTORE POP POP JUMP JUMPDEST PUSH0 PUSH1 0x20 DUP3 ADD SWAP1 POP PUSH2 0xABA PUSH0 DUP4 ADD DUP5 PUSH2 0xA98 JUMP JUMPDEST SWAP3 SWAP2 POP POP JUMP JUMPDEST PUSH0 DUP2 MLOAD SWAP1 POP SWAP2 SWAP1 POP JUMP JUMPDEST PUSH0 DUP3 DUP3 MSTORE PUSH1 0x20 DUP3 ADD SWAP1 POP SWAP3 SWAP2 POP POP JUMP JUMPDEST DUP3 DUP2 DUP4 MCOPY PUSH0 DUP4 DUP4 ADD MSTORE POP POP POP JUMP JUMPDEST PUSH0 PUSH1 0x1F NOT PUSH1 0x1F DUP4 ADD AND SWAP1 POP SWAP2 SWAP1 POP JUMP JUMPDEST PUSH0 PUSH2 0xB02 DUP3 PUSH2 0xAC0 JUMP JUMPDEST PUSH2 0xB0C DUP2 DUP6 PUSH2 0xACA JUMP JUMPDEST SWAP4 POP PUSH2 0xB1C DUP2 DUP6 PUSH1 0x20 DUP7 ADD PUSH2 0xADA JUMP JUMPDEST PUSH2 0xB25 DUP2 PUSH2 0xAE8 JUMP JUMPDEST DUP5 ADD SWAP2 POP POP SWAP3 SWAP2 POP POP JUMP JUMPDEST PUSH0 PUSH1 0x60 DUP3 ADD SWAP1 POP DUP2 DUP2 SUB PUSH0 DUP4 ADD MSTORE PUSH2 0xB48 DUP2 DUP7 PUSH2 0xAF8 JUMP JUMPDEST SWAP1 POP PUSH2 0xB57 PUSH1 0x20 DUP4 ADD DUP6 PUSH2 0xA98 JUMP JUMPDEST PUSH2 0xB64 PUSH1 0x40 DUP4 ADD DUP5 PUSH2 0xA40 JUMP JUMPDEST SWAP5 SWAP4 POP POP POP POP JUMP JUMPDEST PUSH0 PUSH0 REVERT JUMPDEST PUSH0 PUSH0 REVERT JUMPDEST PUSH32 0x4E487B7100000000000000000000000000000000000000000000000000000000 PUSH0 MSTORE PUSH1 0x41 PUSH1 0x4 MSTORE PUSH1 0x24 PUSH0 REVERT JUMPDEST PUSH2 0xBAA DUP3 PUSH2 0xAE8 JUMP JUMPDEST DUP2 ADD DUP2 DUP2 LT PUSH8 0xFFFFFFFFFFFFFFFF DUP3 GT OR ISZERO PUSH2 0xBC9 JUMPI PUSH2 0xBC8 PUSH2 0xB74 JUMP JUMPDEST JUMPDEST DUP1 PUSH1 0x40 MSTORE POP POP POP JUMP JUMPDEST PUSH0 PUSH2 0xBDB PUSH2 0x9D1 JUMP JUMPDEST SWAP1 POP PUSH2 0xBE7 DUP3 DUP3 PUSH2 0xBA1 JUMP JUMPDEST SWAP2 SWAP1 POP JUMP JUMPDEST PUSH0 PUSH8 0xFFFFFFFFFFFFFFFF DUP3 GT ISZERO PUSH2 0xC06 JUMPI PUSH2 0xC05 PUSH2 0xB74 JUMP JUMPDEST JUMPDEST PUSH2 0xC0F DUP3 PUSH2 0xAE8 JUMP JUMPDEST SWAP1 POP PUSH1 0x20 DUP2 ADD SWAP1 POP SWAP2 SWAP1 POP JUMP JUMPDEST DUP3 DUP2 DUP4 CALLDATACOPY PUSH0 DUP4 DUP4 ADD MSTORE POP POP POP JUMP JUMPDEST PUSH0 PUSH2 0xC3C PUSH2 0xC37 DUP5 PUSH2 0xBEC JUMP JUMPDEST PUSH2 0xBD2 JUMP JUMPDEST SWAP1 POP DUP3 DUP2 MSTORE PUSH1 0x20 DUP2 ADD DUP5 DUP5 DUP5 ADD GT ISZERO PUSH2 0xC58 JUMPI PUSH2 0xC57 PUSH2 0xB70 JUMP JUMPDEST JUMPDEST PUSH2 0xC63 DUP5 DUP3 DUP6 PUSH2 0xC1C JUMP JUMPDEST POP SWAP4 SWAP3 POP POP POP JUMP JUMPDEST PUSH0 DUP3 PUSH1 0x1F DUP4 ADD SLT PUSH2 0xC7F JUMPI PUSH2 0xC7E PUSH2 0xB6C JUMP JUMPDEST JUMPDEST DUP2 CALLDATALOAD PUSH2 0xC8F DUP5 DUP3 PUSH1 0x20 DUP7 ADD PUSH2 0xC2A JUMP JUMPDEST SWAP2 POP POP SWAP3 SWAP2 POP POP JUMP JUMPDEST PUSH0 PUSH1 0x20 DUP3 DUP5 SUB SLT ISZERO PUSH2 0xCAD JUMPI PUSH2 0xCAC PUSH2 0x9DA JUMP JUMPDEST JUMPDEST PUSH0 DUP3 ADD CALLDATALOAD PUSH8 0xFFFFFFFFFFFFFFFF DUP2 GT ISZERO PUSH2 0xCCA JUMPI PUSH2 0xCC9 PUSH2 0x9DE JUMP JUMPDEST JUMPDEST PUSH2 0xCD6 DUP5 DUP3 DUP6 ADD PUSH2 0xC6B JUMP JUMPDEST SWAP2 POP POP SWAP3 SWAP2 POP POP JUMP JUMPDEST PUSH32 0x536F6C6F2070617261206E6F2D6F776E65727300000000000000000000000000 PUSH0 DUP3 ADD MSTORE POP JUMP JUMPDEST PUSH0 PUSH2 0xD13 PUSH1 0x13 DUP4 PUSH2 0xACA JUMP JUMPDEST SWAP2 POP PUSH2 0xD1E DUP3 PUSH2 0xCDF JUMP JUMPDEST PUSH1 0x20 DUP3 ADD SWAP1 POP SWAP2 SWAP1 POP JUMP JUMPDEST PUSH0 PUSH1 0x20 DUP3 ADD SWAP1 POP DUP2 DUP2 SUB PUSH0 DUP4 ADD MSTORE PUSH2 0xD40 DUP2 PUSH2 0xD07 JUMP JUMPDEST SWAP1 POP SWAP2 SWAP1 POP JUMP JUMPDEST PUSH32 0x494420696E76616C69646F000000000000000000000000000000000000000000 PUSH0 DUP3 ADD MSTORE POP JUMP JUMPDEST PUSH0 PUSH2 0xD7B PUSH1 0xB DUP4 PUSH2 0xACA JUMP JUMPDEST SWAP2 POP PUSH2 0xD86 DUP3 PUSH2 0xD47 JUMP JUMPDEST PUSH1 0x20 DUP3 ADD SWAP1 POP SWAP2 SWAP1 POP JUMP JUMPDEST PUSH0 PUSH1 0x20 DUP3 ADD SWAP1 POP DUP2 DUP2 SUB PUSH0 DUP4 ADD MSTORE PUSH2 0xDA8 DUP2 PUSH2 0xD6F JUMP JUMPDEST SWAP1 POP SWAP2 SWAP1 POP JUMP JUMPDEST PUSH32 0x4E487B7100000000000000000000000000000000000000000000000000000000 PUSH0 MSTORE PUSH1 0x32 PUSH1 0x4 MSTORE PUSH1 0x24 PUSH0 REVERT JUMPDEST PUSH32 0x4D6173636F74612079612061646F707461646100000000000000000000000000 PUSH0 DUP3 ADD MSTORE POP JUMP JUMPDEST PUSH0 PUSH2 0xE10 PUSH1 0x13 DUP4 PUSH2 0xACA JUMP JUMPDEST SWAP2 POP PUSH2 0xE1B DUP3 PUSH2 0xDDC JUMP JUMPDEST PUSH1 0x20 DUP3 ADD SWAP1 POP SWAP2 SWAP1 POP JUMP JUMPDEST PUSH0 PUSH1 0x20 DUP3 ADD SWAP1 POP DUP2 DUP2 SUB PUSH0 DUP4 ADD MSTORE PUSH2 0xE3D DUP2 PUSH2 0xE04 JUMP JUMPDEST SWAP1 POP SWAP2 SWAP1 POP JUMP JUMPDEST PUSH0 PUSH1 0x40 DUP3 ADD SWAP1 POP PUSH2 0xE57 PUSH0 DUP4 ADD DUP6 PUSH2 0xA98 JUMP JUMPDEST PUSH2 0xE64 PUSH1 0x20 DUP4 ADD DUP5 PUSH2 0xA40 JUMP JUMPDEST SWAP4 SWAP3 POP POP POP JUMP JUMPDEST PUSH32 0x4E487B7100000000000000000000000000000000000000000000000000000000 PUSH0 MSTORE PUSH1 0x11 PUSH1 0x4 MSTORE PUSH1 0x24 PUSH0 REVERT JUMPDEST PUSH0 PUSH2 0xEA2 DUP3 PUSH2 0x9E2 JUMP JUMPDEST SWAP2 POP PUSH32 0xFFFFFFFFFFFFFFFFFFFFFFFFFFFFFFFFFFFFFFFFFFFFFFFFFFFFFFFFFFFFFFFF DUP3 SUB PUSH2 0xED4 JUMPI PUSH2 0xED3 PUSH2 0xE6B JUMP JUMPDEST JUMPDEST PUSH1 0x1 DUP3 ADD SWAP1 POP SWAP2 SWAP1 POP JUMP JUMPDEST PUSH32 0x4D6173636F7461206E6F2061646F707461646100000000000000000000000000 PUSH0 DUP3 ADD MSTORE POP JUMP JUMPDEST PUSH0 PUSH2 0xF13 PUSH1 0x13 DUP4 PUSH2 0xACA JUMP JUMPDEST SWAP2 POP PUSH2 0xF1E DUP3 PUSH2 0xEDF JUMP JUMPDEST PUSH1 0x20 DUP3 ADD SWAP1 POP SWAP2 SWAP1 POP JUMP JUMPDEST PUSH0 PUSH1 0x20 DUP3 ADD SWAP1 POP DUP2 DUP2 SUB PUSH0 DUP4 ADD MSTORE PUSH2 0xF40 DUP2 PUSH2 0xF07 JUMP JUMPDEST SWAP1 POP SWAP2 SWAP1 POP JUMP JUMPDEST PUSH32 0x4E6F206572657320656C2061646F7074616E7465000000000000000000000000 PUSH0 DUP3 ADD MSTORE POP JUMP JUMPDEST PUSH0 PUSH2 0xF7B PUSH1 0x14 DUP4 PUSH2 0xACA JUMP JUMPDEST SWAP2 POP PUSH2 0xF86 DUP3 PUSH2 0xF47 JUMP JUMPDEST PUSH1 0x20 DUP3 ADD SWAP1 POP SWAP2 SWAP1 POP JUMP JUMPDEST PUSH0 PUSH1 0x20 DUP3 ADD SWAP1 POP DUP2 DUP2 SUB PUSH0 DUP4 ADD MSTORE PUSH2 0xFA8 DUP2 PUSH2 0xF6F JUMP JUMPDEST SWAP1 POP SWAP2 SWAP1 POP JUMP JUMPDEST PUSH0 PUSH2 0xFB9 DUP3 PUSH2 0x9E2 JUMP JUMPDEST SWAP2 POP PUSH2 0xFC4 DUP4 PUSH2 0x9E2 JUMP JUMPDEST SWAP3 POP DUP3 DUP3 ADD SWAP1 POP DUP1 DUP3 GT ISZERO PUSH2 0xFDC JUMPI PUSH2 0xFDB PUSH2 0xE6B JUMP JUMPDEST JUMPDEST SWAP3 SWAP2 POP POP JUMP JUMPDEST PUSH32 0x5469656D706F20657870697261646F0000000000000000000000000000000000 PUSH0 DUP3 ADD MSTORE POP JUMP JUMPDEST PUSH0 PUSH2 0x1016 PUSH1 0xF DUP4 PUSH2 0xACA JUMP JUMPDEST SWAP2 POP PUSH2 0x1021 DUP3 PUSH2 0xFE2 JUMP JUMPDEST PUSH1 0x20 DUP3 ADD SWAP1 POP SWAP2 SWAP1 POP JUMP JUMPDEST PUSH0 PUSH1 0x20 DUP3 ADD SWAP1 POP DUP2 DUP2 SUB PUSH0 DUP4 ADD MSTORE PUSH2 0x1043 DUP2 PUSH2 0x100A JUMP JUMPDEST SWAP1 POP SWAP2 SWAP1 POP JUMP JUMPDEST PUSH32 0x4E487B7100000000000000000000000000000000000000000000000000000000 PUSH0 MSTORE PUSH1 0x22 PUSH1 0x4 MSTORE PUSH1 0x24 PUSH0 REVERT JUMPDEST PUSH0 PUSH1 0x2 DUP3 DIV SWAP1 POP PUSH1 0x1 DUP3 AND DUP1 PUSH2 0x108E JUMPI PUSH1 0x7F DUP3 AND SWAP2 POP JUMPDEST PUSH1 0x20 DUP3 LT DUP2 SUB PUSH2 0x10A1 JUMPI PUSH2 0x10A0 PUSH2 0x104A JUMP JUMPDEST JUMPDEST POP SWAP2 SWAP1 POP JUMP JUMPDEST PUSH32 0x536F6C6F20656C206F776E657200000000000000000000000000000000000000 PUSH0 DUP3 ADD MSTORE POP JUMP JUMPDEST PUSH0 PUSH2 0x10DB PUSH1 0xD DUP4 PUSH2 0xACA JUMP JUMPDEST SWAP2 POP PUSH2 0x10E6 DUP3 PUSH2 0x10A7 JUMP JUMPDEST PUSH1 0x20 DUP3 ADD SWAP1 POP SWAP2 SWAP1 POP JUMP JUMPDEST PUSH0 PUSH1 0x20 DUP3 ADD SWAP1 POP DUP2 DUP2 SUB PUSH0 DUP4 ADD MSTORE PUSH2 0x1108 DUP2 PUSH2 0x10CF JUMP JUMPDEST SWAP1 POP SWAP2 SWAP1 POP JUMP JUMPDEST PUSH0 DUP2 SWAP1 POP DUP2 PUSH0 MSTORE PUSH1 0x20 PUSH0 KECCAK256 SWAP1 POP SWAP2 SWAP1 POP JUMP JUMPDEST PUSH0 PUSH1 0x20 PUSH1 0x1F DUP4 ADD DIV SWAP1 POP SWAP2 SWAP1 POP JUMP JUMPDEST PUSH0 DUP3 DUP3 SHL SWAP1 POP SWAP3 SWAP2 POP POP JUMP JUMPDEST PUSH0 PUSH1 0x8 DUP4 MUL PUSH2 0x116B PUSH32 0xFFFFFFFFFFFFFFFFFFFFFFFFFFFFFFFFFFFFFFFFFFFFFFFFFFFFFFFFFFFFFFFF DUP3 PUSH2 0x1130 JUMP JUMPDEST PUSH2 0x1175 DUP7 DUP4 PUSH2 0x1130 JUMP JUMPDEST SWAP6 POP DUP1 NOT DUP5 AND SWAP4 POP DUP1 DUP7 AND DUP5 OR SWAP3 POP POP POP SWAP4 SWAP3 POP POP POP JUMP JUMPDEST PUSH0 DUP2 SWAP1 POP SWAP2 SWAP1 POP JUMP JUMPDEST PUSH0 PUSH2 0x11B0 PUSH2 0x11AB PUSH2 0x11A6 DUP5 PUSH2 0x9E2 JUMP JUMPDEST PUSH2 0x118D JUMP JUMPDEST PUSH2 0x9E2 JUMP JUMPDEST SWAP1 POP SWAP2 SWAP1 POP JUMP JUMPDEST PUSH0 DUP2 SWAP1 POP SWAP2 SWAP1 POP JUMP JUMPDEST PUSH2 0x11C9 DUP4 PUSH2 0x1196 JUMP JUMPDEST PUSH2 0x11DD PUSH2 0x11D5 DUP3 PUSH2 0x11B7 JUMP JUMPDEST DUP5 DUP5 SLOAD PUSH2 0x113C JUMP JUMPDEST DUP3 SSTORE POP POP POP POP JUMP JUMPDEST PUSH0 PUSH0 SWAP1 POP SWAP1 JUMP JUMPDEST PUSH2 0x11F4 PUSH2 0x11E5 JUMP JUMPDEST PUSH2 0x11FF DUP2 DUP5 DUP5 PUSH2 0x11C0 JUMP JUMPDEST POP POP POP JUMP JUMPDEST JUMPDEST DUP2 DUP2 LT ISZERO PUSH2 0x1222 JUMPI PUSH2 0x1217 PUSH0 DUP3 PUSH2 0x11EC JUMP JUMPDEST PUSH1 0x1 DUP2 ADD SWAP1 POP PUSH2 0x1205 JUMP JUMPDEST POP POP JUMP JUMPDEST PUSH1 0x1F DUP3 GT ISZERO PUSH2 0x1267 JUMPI PUSH2 0x1238 DUP2 PUSH2 0x110F JUMP JUMPDEST PUSH2 0x1241 DUP5 PUSH2 0x1121 JUMP JUMPDEST DUP2 ADD PUSH1 0x20 DUP6 LT ISZERO PUSH2 0x1250 JUMPI DUP2 SWAP1 POP JUMPDEST PUSH2 0x1264 PUSH2 0x125C DUP6 PUSH2 0x1121 JUMP JUMPDEST DUP4 ADD DUP3 PUSH2 0x1204 JUMP JUMPDEST POP POP JUMPDEST POP POP POP JUMP JUMPDEST PUSH0 DUP3 DUP3 SHR SWAP1 POP SWAP3 SWAP2 POP POP JUMP JUMPDEST PUSH0 PUSH2 0x1287 PUSH0 NOT DUP5 PUSH1 0x8 MUL PUSH2 0x126C JUMP JUMPDEST NOT DUP1 DUP4 AND SWAP2 POP POP SWAP3 SWAP2 POP POP JUMP JUMPDEST PUSH0 PUSH2 0x129F DUP4 DUP4 PUSH2 0x1278 JUMP JUMPDEST SWAP2 POP DUP3 PUSH1 0x2 MUL DUP3 OR SWAP1 POP SWAP3 SWAP2 POP POP JUMP JUMPDEST PUSH2 0x12B8 DUP3 PUSH2 0xAC0 JUMP JUMPDEST PUSH8 0xFFFFFFFFFFFFFFFF DUP2 GT ISZERO PUSH2 0x12D1 JUMPI PUSH2 0x12D0 PUSH2 0xB74 JUMP JUMPDEST JUMPDEST PUSH2 0x12DB DUP3 SLOAD PUSH2 0x1077 JUMP JUMPDEST PUSH2 0x12E6 DUP3 DUP3 DUP6 PUSH2 0x1226 JUMP JUMPDEST PUSH0 PUSH1 0x20 SWAP1 POP PUSH1 0x1F DUP4 GT PUSH1 0x1 DUP2 EQ PUSH2 0x1317 JUMPI PUSH0 DUP5 ISZERO PUSH2 0x1305 JUMPI DUP3 DUP8 ADD MLOAD SWAP1 POP JUMPDEST PUSH2 0x130F DUP6 DUP3 PUSH2 0x1294 JUMP JUMPDEST DUP7 SSTORE POP PUSH2 0x1376 JUMP JUMPDEST PUSH1 0x1F NOT DUP5 AND PUSH2 0x1325 DUP7 PUSH2 0x110F JUMP JUMPDEST PUSH0 JUMPDEST DUP3 DUP2 LT ISZERO PUSH2 0x134C JUMPI DUP5 DUP10 ADD MLOAD DUP3 SSTORE PUSH1 0x1 DUP3 ADD SWAP2 POP PUSH1 0x20 DUP6 ADD SWAP5 POP PUSH1 0x20 DUP2 ADD SWAP1 POP PUSH2 0x1327 JUMP JUMPDEST DUP7 DUP4 LT ISZERO PUSH2 0x1369 JUMPI DUP5 DUP10 ADD MLOAD PUSH2 0x1365 PUSH1 0x1F DUP10 AND DUP3 PUSH2 0x1278 JUMP JUMPDEST DUP4 SSTORE POP JUMPDEST PUSH1 0x1 PUSH1 0x2 DUP9 MUL ADD DUP9 SSTORE POP POP POP JUMPDEST POP POP POP POP POP POP JUMP JUMPDEST PUSH0 PUSH2 0x1388 DUP3 PUSH2 0x9E2 JUMP JUMPDEST SWAP2 POP PUSH2 0x1393 DUP4 PUSH2 0x9E2 JUMP JUMPDEST SWAP3 POP DUP3 DUP3 SUB SWAP1 POP DUP2 DUP2 GT ISZERO PUSH2 0x13AB JUMPI PUSH2 0x13AA PUSH2 0xE6B JUMP JUMPDEST JUMPDEST SWAP3 SWAP2 POP POP JUMP JUMPDEST PUSH0 PUSH1 0x40 DUP3 ADD SWAP1 POP DUP2 DUP2 SUB PUSH0 DUP4 ADD MSTORE PUSH2 0x13C9 DUP2 DUP6 PUSH2 0xAF8 JUMP JUMPDEST SWAP1 POP PUSH2 0x13D8 PUSH1 0x20 DUP4 ADD DUP5 PUSH2 0xA40 JUMP JUMPDEST SWAP4 SWAP3 POP POP POP JUMP INVALID LOG2 PUSH5 0x6970667358 0x22 SLT KECCAK256 RJUMPI 0x527B TLOAD 0xAC PUSH17 0x6696B4F06F73951C7B7FD66924D6CA6494 0xD9 SLT 0xC4 NOT PUSH20 0xDC4115CC64736F6C634300081E00330000000000 "
				},
				"gasEstimates": {
					"creation": {
						"codeDepositCost": "1028200",
						"executionCost": "25329",
						"totalCost": "1053529"
					},
					"external": {
						"TIME_LIMIT()": "370",
						"adoptPet(uint256)": "infinite",
						"countAdopted()": "infinite",
						"owner()": "2507",
						"pets(uint256)": "infinite",
						"registerPet(string)": "infinite",
						"returnPet(uint256)": "infinite"
					}
				},
				"methodIdentifiers": {
					"TIME_LIMIT()": "698224ae",
					"adoptPet(uint256)": "19b81577",
					"countAdopted()": "680f6522",
					"owner()": "8da5cb5b",
					"pets(uint256)": "cfb869bf",
					"registerPet(string)": "e0ce2aa9",
					"returnPet(uint256)": "bdb92e8e"
				}
			},
			"storageLayout": {
				"storage": [
					{
						"astId": 3,
						"contract": "contracts/15_SimplePetAdoption.sol:SimplePetAdoption",
						"label": "owner",
						"offset": 0,
						"slot": "0",
						"type": "t_address"
					},
					{
						"astId": 41,
						"contract": "contracts/15_SimplePetAdoption.sol:SimplePetAdoption",
						"label": "pets",
						"offset": 0,
						"slot": "1",
						"type": "t_array(t_struct(Pet)37_storage)dyn_storage"
					}
				],
				"types": {
					"t_address": {
						"encoding": "inplace",
						"label": "address",
						"numberOfBytes": "20"
					},
					"t_array(t_struct(Pet)37_storage)dyn_storage": {
						"base": "t_struct(Pet)37_storage",
						"encoding": "dynamic_array",
						"label": "struct SimplePetAdoption.Pet[]",
						"numberOfBytes": "32"
					},
					"t_string_storage": {
						"encoding": "bytes",
						"label": "string",
						"numberOfBytes": "32"
					},
					"t_struct(Pet)37_storage": {
						"encoding": "inplace",
						"label": "struct SimplePetAdoption.Pet",
						"members": [
							{
								"astId": 32,
								"contract": "contracts/15_SimplePetAdoption.sol:SimplePetAdoption",
								"label": "name",
								"offset": 0,
								"slot": "0",
								"type": "t_string_storage"
							},
							{
								"astId": 34,
								"contract": "contracts/15_SimplePetAdoption.sol:SimplePetAdoption",
								"label": "adopter",
								"offset": 0,
								"slot": "1",
								"type": "t_address"
							},
							{
								"astId": 36,
								"contract": "contracts/15_SimplePetAdoption.sol:SimplePetAdoption",
								"label": "timeAdopted",
								"offset": 0,
								"slot": "2",
								"type": "t_uint256"
							}
						],
						"numberOfBytes": "96"
					},
					"t_uint256": {
						"encoding": "inplace",
						"label": "uint256",
						"numberOfBytes": "32"
					}
				}
			},
			"userdoc": {
				"kind": "user",
				"methods": {},
				"version": 1
			}
		}
	}
}