{
	"data": {
		"bytecode": {
			"linkReferences": {},
			"object": "6080604052348015600e575f5ffd5b506102968061001c5f395ff3fe608060405234801561000f575f5ffd5b5060043610610029575f3560e01c806380c15c511461002d575b5f5ffd5b610047600480360381019061004291906100ea565b61005d565b6040516100549190610149565b60405180910390f35b5f5f606460508461006e919061018f565b600a8661007b919061018f565b600a88610088919061018f565b61009291906101d0565b61009c91906101d0565b6100a69190610230565b9050809150509392505050565b5f5ffd5b5f819050919050565b6100c9816100b7565b81146100d3575f5ffd5b50565b5f813590506100e4816100c0565b92915050565b5f5f5f60608486031215610101576101006100b3565b5b5f61010e868287016100d6565b935050602061011f868287016100d6565b9250506040610130868287016100d6565b9150509250925092565b610143816100b7565b82525050565b5f60208201905061015c5f83018461013a565b92915050565b7f4e487b71000000000000000000000000000000000000000000000000000000005f52601160045260245ffd5b5f610199826100b7565b91506101a4836100b7565b92508282026101b2816100b7565b915082820484148315176101c9576101c8610162565b5b5092915050565b5f6101da826100b7565b91506101e5836100b7565b92508282019050808211156101fd576101fc610162565b5b92915050565b7f4e487b71000000000000000000000000000000000000000000000000000000005f52601260045260245ffd5b5f61023a826100b7565b9150610245836100b7565b92508261025557610254610203565b5b82820490509291505056fea2646970667358221220f9b712bf0f0f3080386a9041873760189f691f8239df7ab22f962d6c95652a3064736f6c634300081e0033",
			"opcodes": "PUSH1 0x80 PUSH1 0x40 MSTORE CALLVALUE DUP1 ISZERO PUSH1 0xE JUMPI PUSH0 PUSH0 REVERT JUMPDEST POP PUSH2 0x296 DUP1 PUSH2 0x1C PUSH0 CODECOPY PUSH0 RETURN INVALID PUSH1 0x80 PUSH1 0x40 MSTORE CALLVALUE DUP1 ISZERO PUSH2 0xF JUMPI PUSH0 PUSH0 REVERT JUMPDEST POP PUSH1 0x4 CALLDATASIZE LT PUSH2 0x29 JUMPI PUSH0 CALLDATALOAD PUSH1 0xE0 SHR DUP1 PUSH4 0x80C15C51 EQ PUSH2 0x2D JUMPI JUMPDEST PUSH0 PUSH0 REVERT JUMPDEST PUSH2 0x47 PUSH1 0x4 DUP1 CALLDATASIZE SUB DUP2 ADD SWAP1 PUSH2 0x42 SWAP2 SWAP1 PUSH2 0xEA JUMP JUMPDEST PUSH2 0x5D JUMP JUMPDEST PUSH1 0x40 MLOAD PUSH2 0x54 SWAP2 SWAP1 PUSH2 0x149 JUMP JUMPDEST PUSH1 0x40 MLOAD DUP1 SWAP2 SUB SWAP1 RETURN JUMPDEST PUSH0 PUSH0 PUSH1 0x64 PUSH1 0x50 DUP5 PUSH2 0x6E SWAP2 SWAP1 PUSH2 0x18F JUMP JUMPDEST PUSH1 0xA DUP7 PUSH2 0x7B SWAP2 SWAP1 PUSH2 0x18F JUMP JUMPDEST PUSH1 0xA DUP9 PUSH2 0x88 SWAP2 SWAP1 PUSH2 0x18F JUMP JUMPDEST PUSH2 0x92 SWAP2 SWAP1 PUSH2 0x1D0 JUMP JUMPDEST PUSH2 0x9C SWAP2 SWAP1 PUSH2 0x1D0 JUMP JUMPDEST PUSH2 0xA6 SWAP2 SWAP1 PUSH2 0x230 JUMP JUMPDEST SWAP1 POP DUP1 SWAP2 POP POP SWAP4 SWAP3 POP POP POP JUMP JUMPDEST PUSH0 PUSH0 REVERT JUMPDEST PUSH0 DUP2 SWAP1 POP SWAP2 SWAP1 POP JUMP JUMPDEST PUSH2 0xC9 DUP2 PUSH2 0xB7 JUMP JUMPDEST DUP2 EQ PUSH2 0xD3 JUMPI PUSH0 PUSH0 REVERT JUMPDEST POP JUMP JUMPDEST PUSH0 DUP2 CALLDATALOAD SWAP1 POP PUSH2 0xE4 DUP2 PUSH2 0xC0 JUMP JUMPDEST SWAP3 SWAP2 POP POP JUMP JUMPDEST PUSH0 PUSH0 PUSH0 PUSH1 0x60 DUP5 DUP7 SUB SLT ISZERO PUSH2 0x101 JUMPI PUSH2 0x100 PUSH2 0xB3 JUMP JUMPDEST JUMPDEST PUSH0 PUSH2 0x10E DUP7 DUP3 DUP8 ADD PUSH2 0xD6 JUMP JUMPDEST SWAP4 POP POP PUSH1 0x20 PUSH2 0x11F DUP7 DUP3 DUP8 ADD PUSH2 0xD6 JUMP JUMPDEST SWAP3 POP POP PUSH1 0x40 PUSH2 0x130 DUP7 DUP3 DUP8 ADD PUSH2 0xD6 JUMP JUMPDEST SWAP2 POP POP SWAP3 POP SWAP3 POP SWAP3 JUMP JUMPDEST PUSH2 0x143 DUP2 PUSH2 0xB7 JUMP JUMPDEST DUP3 MSTORE POP POP JUMP JUMPDEST PUSH0 PUSH1 0x20 DUP3 ADD SWAP1 POP PUSH2 0x15C PUSH0 DUP4 ADD DUP5 PUSH2 0x13A JUMP JUMPDEST SWAP3 SWAP2 POP POP JUMP JUMPDEST PUSH32 0x4E487B7100000000000000000000000000000000000000000000000000000000 PUSH0 MSTORE PUSH1 0x11 PUSH1 0x4 MSTORE PUSH1 0x24 PUSH0 REVERT JUMPDEST PUSH0 PUSH2 0x199 DUP3 PUSH2 0xB7 JUMP JUMPDEST SWAP2 POP PUSH2 0x1A4 DUP4 PUSH2 0xB7 JUMP JUMPDEST SWAP3 POP DUP3 DUP3 MUL PUSH2 0x1B2 DUP2 PUSH2 0xB7 JUMP JUMPDEST SWAP2 POP DUP3 DUP3 DIV DUP5 EQ DUP4 ISZERO OR PUSH2 0x1C9 JUMPI PUSH2 0x1C8 PUSH2 0x162 JUMP JUMPDEST JUMPDEST POP SWAP3 SWAP2 POP POP JUMP JUMPDEST PUSH0 PUSH2 0x1DA DUP3 PUSH2 0xB7 JUMP JUMPDEST SWAP2 POP PUSH2 0x1E5 DUP4 PUSH2 0xB7 JUMP JUMPDEST SWAP3 POP DUP3 DUP3 ADD SWAP1 POP DUP1 DUP3 GT ISZERO PUSH2 0x1FD JUMPI PUSH2 0x1FC PUSH2 0x162 JUMP JUMPDEST JUMPDEST SWAP3 SWAP2 POP POP JUMP JUMPDEST PUSH32 0x4E487B7100000000000000000000000000000000000000000000000000000000 PUSH0 MSTORE PUSH1 0x12 PUSH1 0x4 MSTORE PUSH1 0x24 PUSH0 REVERT JUMPDEST PUSH0 PUSH2 0x23A DUP3 PUSH2 0xB7 JUMP JUMPDEST SWAP2 POP PUSH2 0x245 DUP4 PUSH2 0xB7 JUMP JUMPDEST SWAP3 POP DUP3 PUSH2 0x255 JUMPI PUSH2 0x254 PUSH2 0x203 JUMP JUMPDEST JUMPDEST DUP3 DUP3 DIV SWAP1 POP SWAP3 SWAP2 POP POP JUMP INVALID LOG2 PUSH5 0x6970667358 0x22 SLT KECCAK256 EXTDELEGATECALL 0xB7 SLT 0xBF 0xF 0xF ADDRESS DUP1 CODESIZE PUSH11 0x9041873760189F691F8239 0xDF PUSH27 0xB22F962D6C95652A3064736F6C634300081E003300000000000000 "
		},
		"gasEstimates": {
			"creation": {
				"codeDepositCost": "132400",
				"executionCost": "175",
				"totalCost": "132575"
			},
			"external": {
				"calcularNotaFinal(uint256,uint256,uint256)": "infinite"
			}
		},
		"methodIdentifiers": {
			"calcularNotaFinal(uint256,uint256,uint256)": "80c15c51"
		}
	},
	"abi": [
		{
			"inputs": [
				{
					"internalType": "uint256",
					"name": "practica",
					"type": "uint256"
				},
				{
					"internalType": "uint256",
					"name": "teoria",
					"type": "uint256"
				},
				{
					"internalType": "uint256",
					"name": "proyecto",
					"type": "uint256"
				}
			],
			"name": "calcularNotaFinal",
			"outputs": [
				{
					"internalType": "uint256",
					"name": "",
					"type": "uint256"
				}
			],
			"stateMutability": "pure",
			"type": "function"
		}
	]
}