{
	"data": {
		"bytecode": {
			"linkReferences": {},
			"object": "6080604052348015600e575f5ffd5b506105f98061001c5f395ff3fe608060405234801561000f575f5ffd5b5060043610610034575f3560e01c80634426efba1461003857806359a7fb0614610069575b5f5ffd5b610052600480360381019061004d919061037a565b610099565b6040516100609291906103b4565b60405180910390f35b610083600480360381019061007e919061037a565b6101b5565b60405161009091906103db565b60405180910390f35b5f5f5f5f90505f5f90505f5f90505f5f90505f600190505b878310806100be57508782105b156101a5575f6002826100d19190610421565b03610136576101156040518060400160405280600d81526020017f53756d61722050617265733a200000000000000000000000000000000000000081525082610259565b8085610121919061047e565b9450828061012e906104b1565b935050610192565b6101756040518060400160405280600f81526020017f53756d617220496d70617265733a20000000000000000000000000000000000081525082610259565b8084610181919061047e565b9350818061018e906104b1565b9250505b808061019d906104b1565b9150506100b1565b8484965096505050505050915091565b5f5f5f90505f600190505f5f90505b8481101561024e575f6002836101da9190610421565b0361023b5761021e6040518060400160405280600781526020017f53756d61723a200000000000000000000000000000000000000000000000000081525083610259565b818361022a919061047e565b92508080610237906104b1565b9150505b8180610246906104b1565b9250506101c4565b829350505050919050565b6102f1828260405160240161026f929190610568565b6040516020818303038152906040527fb60e72cc000000000000000000000000000000000000000000000000000000007bffffffffffffffffffffffffffffffffffffffffffffffffffffffff19166020820180517bffffffffffffffffffffffffffffffffffffffffffffffffffffffff83818316178352505050506102f5565b5050565b61030c8161030461030f61032e565b63ffffffff16565b50565b5f6a636f6e736f6c652e6c6f6790505f5f835160208501845afa505050565b610339819050919050565b610341610596565b565b5f5ffd5b5f819050919050565b61035981610347565b8114610363575f5ffd5b50565b5f8135905061037481610350565b92915050565b5f6020828403121561038f5761038e610343565b5b5f61039c84828501610366565b91505092915050565b6103ae81610347565b82525050565b5f6040820190506103c75f8301856103a5565b6103d460208301846103a5565b9392505050565b5f6020820190506103ee5f8301846103a5565b92915050565b7f4e487b71000000000000000000000000000000000000000000000000000000005f52601260045260245ffd5b5f61042b82610347565b915061043683610347565b925082610446576104456103f4565b5b828206905092915050565b7f4e487b71000000000000000000000000000000000000000000000000000000005f52601160045260245ffd5b5f61048882610347565b915061049383610347565b92508282019050808211156104ab576104aa610451565b5b92915050565b5f6104bb82610347565b91507fffffffffffffffffffffffffffffffffffffffffffffffffffffffffffffffff82036104ed576104ec610451565b5b600182019050919050565b5f81519050919050565b5f82825260208201905092915050565b8281835e5f83830152505050565b5f601f19601f8301169050919050565b5f61053a826104f8565b6105448185610502565b9350610554818560208601610512565b61055d81610520565b840191505092915050565b5f6040820190508181035f8301526105808185610530565b905061058f60208301846103a5565b9392505050565b7f4e487b71000000000000000000000000000000000000000000000000000000005f52605160045260245ffdfea2646970667358221220ca1c7a1c405f94448b794da907a514caaa253e36f8b78702776bd747880dca9b64736f6c634300081e0033",
			"opcodes": "PUSH1 0x80 PUSH1 0x40 MSTORE CALLVALUE DUP1 ISZERO PUSH1 0xE JUMPI PUSH0 PUSH0 REVERT JUMPDEST POP PUSH2 0x5F9 DUP1 PUSH2 0x1C PUSH0 CODECOPY PUSH0 RETURN INVALID PUSH1 0x80 PUSH1 0x40 MSTORE CALLVALUE DUP1 ISZERO PUSH2 0xF JUMPI PUSH0 PUSH0 REVERT JUMPDEST POP PUSH1 0x4 CALLDATASIZE LT PUSH2 0x34 JUMPI PUSH0 CALLDATALOAD PUSH1 0xE0 SHR DUP1 PUSH4 0x4426EFBA EQ PUSH2 0x38 JUMPI DUP1 PUSH4 0x59A7FB06 EQ PUSH2 0x69 JUMPI JUMPDEST PUSH0 PUSH0 REVERT JUMPDEST PUSH2 0x52 PUSH1 0x4 DUP1 CALLDATASIZE SUB DUP2 ADD SWAP1 PUSH2 0x4D SWAP2 SWAP1 PUSH2 0x37A JUMP JUMPDEST PUSH2 0x99 JUMP JUMPDEST PUSH1 0x40 MLOAD PUSH2 0x60 SWAP3 SWAP2 SWAP1 PUSH2 0x3B4 JUMP JUMPDEST PUSH1 0x40 MLOAD DUP1 SWAP2 SUB SWAP1 RETURN JUMPDEST PUSH2 0x83 PUSH1 0x4 DUP1 CALLDATASIZE SUB DUP2 ADD SWAP1 PUSH2 0x7E SWAP2 SWAP1 PUSH2 0x37A JUMP JUMPDEST PUSH2 0x1B5 JUMP JUMPDEST PUSH1 0x40 MLOAD PUSH2 0x90 SWAP2 SWAP1 PUSH2 0x3DB JUMP JUMPDEST PUSH1 0x40 MLOAD DUP1 SWAP2 SUB SWAP1 RETURN JUMPDEST PUSH0 PUSH0 PUSH0 PUSH0 SWAP1 POP PUSH0 PUSH0 SWAP1 POP PUSH0 PUSH0 SWAP1 POP PUSH0 PUSH0 SWAP1 POP PUSH0 PUSH1 0x1 SWAP1 POP JUMPDEST DUP8 DUP4 LT DUP1 PUSH2 0xBE JUMPI POP DUP8 DUP3 LT JUMPDEST ISZERO PUSH2 0x1A5 JUMPI PUSH0 PUSH1 0x2 DUP3 PUSH2 0xD1 SWAP2 SWAP1 PUSH2 0x421 JUMP JUMPDEST SUB PUSH2 0x136 JUMPI PUSH2 0x115 PUSH1 0x40 MLOAD DUP1 PUSH1 0x40 ADD PUSH1 0x40 MSTORE DUP1 PUSH1 0xD DUP2 MSTORE PUSH1 0x20 ADD PUSH32 0x53756D61722050617265733A2000000000000000000000000000000000000000 DUP2 MSTORE POP DUP3 PUSH2 0x259 JUMP JUMPDEST DUP1 DUP6 PUSH2 0x121 SWAP2 SWAP1 PUSH2 0x47E JUMP JUMPDEST SWAP5 POP DUP3 DUP1 PUSH2 0x12E SWAP1 PUSH2 0x4B1 JUMP JUMPDEST SWAP4 POP POP PUSH2 0x192 JUMP JUMPDEST PUSH2 0x175 PUSH1 0x40 MLOAD DUP1 PUSH1 0x40 ADD PUSH1 0x40 MSTORE DUP1 PUSH1 0xF DUP2 MSTORE PUSH1 0x20 ADD PUSH32 0x53756D617220496D70617265733A200000000000000000000000000000000000 DUP2 MSTORE POP DUP3 PUSH2 0x259 JUMP JUMPDEST DUP1 DUP5 PUSH2 0x181 SWAP2 SWAP1 PUSH2 0x47E JUMP JUMPDEST SWAP4 POP DUP2 DUP1 PUSH2 0x18E SWAP1 PUSH2 0x4B1 JUMP JUMPDEST SWAP3 POP POP JUMPDEST DUP1 DUP1 PUSH2 0x19D SWAP1 PUSH2 0x4B1 JUMP JUMPDEST SWAP2 POP POP PUSH2 0xB1 JUMP JUMPDEST DUP5 DUP5 SWAP7 POP SWAP7 POP POP POP POP POP POP SWAP2 POP SWAP2 JUMP JUMPDEST PUSH0 PUSH0 PUSH0 SWAP1 POP PUSH0 PUSH1 0x1 SWAP1 POP PUSH0 PUSH0 SWAP1 POP JUMPDEST DUP5 DUP2 LT ISZERO PUSH2 0x24E JUMPI PUSH0 PUSH1 0x2 DUP4 PUSH2 0x1DA SWAP2 SWAP1 PUSH2 0x421 JUMP JUMPDEST SUB PUSH2 0x23B JUMPI PUSH2 0x21E PUSH1 0x40 MLOAD DUP1 PUSH1 0x40 ADD PUSH1 0x40 MSTORE DUP1 PUSH1 0x7 DUP2 MSTORE PUSH1 0x20 ADD PUSH32 0x53756D61723A2000000000000000000000000000000000000000000000000000 DUP2 MSTORE POP DUP4 PUSH2 0x259 JUMP JUMPDEST DUP2 DUP4 PUSH2 0x22A SWAP2 SWAP1 PUSH2 0x47E JUMP JUMPDEST SWAP3 POP DUP1 DUP1 PUSH2 0x237 SWAP1 PUSH2 0x4B1 JUMP JUMPDEST SWAP2 POP POP JUMPDEST DUP2 DUP1 PUSH2 0x246 SWAP1 PUSH2 0x4B1 JUMP JUMPDEST SWAP3 POP POP PUSH2 0x1C4 JUMP JUMPDEST DUP3 SWAP4 POP POP POP POP SWAP2 SWAP1 POP JUMP JUMPDEST PUSH2 0x2F1 DUP3 DUP3 PUSH1 0x40 MLOAD PUSH1 0x24 ADD PUSH2 0x26F SWAP3 SWAP2 SWAP1 PUSH2 0x568 JUMP JUMPDEST PUSH1 0x40 MLOAD PUSH1 0x20 DUP2 DUP4 SUB SUB DUP2 MSTORE SWAP1 PUSH1 0x40 MSTORE PUSH32 0xB60E72CC00000000000000000000000000000000000000000000000000000000 PUSH28 0xFFFFFFFFFFFFFFFFFFFFFFFFFFFFFFFFFFFFFFFFFFFFFFFFFFFFFFFF NOT AND PUSH1 0x20 DUP3 ADD DUP1 MLOAD PUSH28 0xFFFFFFFFFFFFFFFFFFFFFFFFFFFFFFFFFFFFFFFFFFFFFFFFFFFFFFFF DUP4 DUP2 DUP4 AND OR DUP4 MSTORE POP POP POP POP PUSH2 0x2F5 JUMP JUMPDEST POP POP JUMP JUMPDEST PUSH2 0x30C DUP2 PUSH2 0x304 PUSH2 0x30F PUSH2 0x32E JUMP JUMPDEST PUSH4 0xFFFFFFFF AND JUMP JUMPDEST POP JUMP JUMPDEST PUSH0 PUSH11 0x636F6E736F6C652E6C6F67 SWAP1 POP PUSH0 PUSH0 DUP4 MLOAD PUSH1 0x20 DUP6 ADD DUP5 GAS STATICCALL POP POP POP JUMP JUMPDEST PUSH2 0x339 DUP2 SWAP1 POP SWAP2 SWAP1 POP JUMP JUMPDEST PUSH2 0x341 PUSH2 0x596 JUMP JUMPDEST JUMP JUMPDEST PUSH0 PUSH0 REVERT JUMPDEST PUSH0 DUP2 SWAP1 POP SWAP2 SWAP1 POP JUMP JUMPDEST PUSH2 0x359 DUP2 PUSH2 0x347 JUMP JUMPDEST DUP2 EQ PUSH2 0x363 JUMPI PUSH0 PUSH0 REVERT JUMPDEST POP JUMP JUMPDEST PUSH0 DUP2 CALLDATALOAD SWAP1 POP PUSH2 0x374 DUP2 PUSH2 0x350 JUMP JUMPDEST SWAP3 SWAP2 POP POP JUMP JUMPDEST PUSH0 PUSH1 0x20 DUP3 DUP5 SUB SLT ISZERO PUSH2 0x38F JUMPI PUSH2 0x38E PUSH2 0x343 JUMP JUMPDEST JUMPDEST PUSH0 PUSH2 0x39C DUP5 DUP3 DUP6 ADD PUSH2 0x366 JUMP JUMPDEST SWAP2 POP POP SWAP3 SWAP2 POP POP JUMP JUMPDEST PUSH2 0x3AE DUP2 PUSH2 0x347 JUMP JUMPDEST DUP3 MSTORE POP POP JUMP JUMPDEST PUSH0 PUSH1 0x40 DUP3 ADD SWAP1 POP PUSH2 0x3C7 PUSH0 DUP4 ADD DUP6 PUSH2 0x3A5 JUMP JUMPDEST PUSH2 0x3D4 PUSH1 0x20 DUP4 ADD DUP5 PUSH2 0x3A5 JUMP JUMPDEST SWAP4 SWAP3 POP POP POP JUMP JUMPDEST PUSH0 PUSH1 0x20 DUP3 ADD SWAP1 POP PUSH2 0x3EE PUSH0 DUP4 ADD DUP5 PUSH2 0x3A5 JUMP JUMPDEST SWAP3 SWAP2 POP POP JUMP JUMPDEST PUSH32 0x4E487B7100000000000000000000000000000000000000000000000000000000 PUSH0 MSTORE PUSH1 0x12 PUSH1 0x4 MSTORE PUSH1 0x24 PUSH0 REVERT JUMPDEST PUSH0 PUSH2 0x42B DUP3 PUSH2 0x347 JUMP JUMPDEST SWAP2 POP PUSH2 0x436 DUP4 PUSH2 0x347 JUMP JUMPDEST SWAP3 POP DUP3 PUSH2 0x446 JUMPI PUSH2 0x445 PUSH2 0x3F4 JUMP JUMPDEST JUMPDEST DUP3 DUP3 MOD SWAP1 POP SWAP3 SWAP2 POP POP JUMP JUMPDEST PUSH32 0x4E487B7100000000000000000000000000000000000000000000000000000000 PUSH0 MSTORE PUSH1 0x11 PUSH1 0x4 MSTORE PUSH1 0x24 PUSH0 REVERT JUMPDEST PUSH0 PUSH2 0x488 DUP3 PUSH2 0x347 JUMP JUMPDEST SWAP2 POP PUSH2 0x493 DUP4 PUSH2 0x347 JUMP JUMPDEST SWAP3 POP DUP3 DUP3 ADD SWAP1 POP DUP1 DUP3 GT ISZERO PUSH2 0x4AB JUMPI PUSH2 0x4AA PUSH2 0x451 JUMP JUMPDEST JUMPDEST SWAP3 SWAP2 POP POP JUMP JUMPDEST PUSH0 PUSH2 0x4BB DUP3 PUSH2 0x347 JUMP JUMPDEST SWAP2 POP PUSH32 0xFFFFFFFFFFFFFFFFFFFFFFFFFFFFFFFFFFFFFFFFFFFFFFFFFFFFFFFFFFFFFFFF DUP3 SUB PUSH2 0x4ED JUMPI PUSH2 0x4EC PUSH2 0x451 JUMP JUMPDEST JUMPDEST PUSH1 0x1 DUP3 ADD SWAP1 POP SWAP2 SWAP1 POP JUMP JUMPDEST PUSH0 DUP2 MLOAD SWAP1 POP SWAP2 SWAP1 POP JUMP JUMPDEST PUSH0 DUP3 DUP3 MSTORE PUSH1 0x20 DUP3 ADD SWAP1 POP SWAP3 SWAP2 POP POP JUMP JUMPDEST DUP3 DUP2 DUP4 MCOPY PUSH0 DUP4 DUP4 ADD MSTORE POP POP POP JUMP JUMPDEST PUSH0 PUSH1 0x1F NOT PUSH1 0x1F DUP4 ADD AND SWAP1 POP SWAP2 SWAP1 POP JUMP JUMPDEST PUSH0 PUSH2 0x53A DUP3 PUSH2 0x4F8 JUMP JUMPDEST PUSH2 0x544 DUP2 DUP6 PUSH2 0x502 JUMP JUMPDEST SWAP4 POP PUSH2 0x554 DUP2 DUP6 PUSH1 0x20 DUP7 ADD PUSH2 0x512 JUMP JUMPDEST PUSH2 0x55D DUP2 PUSH2 0x520 JUMP JUMPDEST DUP5 ADD SWAP2 POP POP SWAP3 SWAP2 POP POP JUMP JUMPDEST PUSH0 PUSH1 0x40 DUP3 ADD SWAP1 POP DUP2 DUP2 SUB PUSH0 DUP4 ADD MSTORE PUSH2 0x580 DUP2 DUP6 PUSH2 0x530 JUMP JUMPDEST SWAP1 POP PUSH2 0x58F PUSH1 0x20 DUP4 ADD DUP5 PUSH2 0x3A5 JUMP JUMPDEST SWAP4 SWAP3 POP POP POP JUMP JUMPDEST PUSH32 0x4E487B7100000000000000000000000000000000000000000000000000000000 PUSH0 MSTORE PUSH1 0x51 PUSH1 0x4 MSTORE PUSH1 0x24 PUSH0 REVERT INVALID LOG2 PUSH5 0x6970667358 0x22 SLT KECCAK256 0xCA SHR PUSH27 0x1C405F94448B794DA907A514CAAA253E36F8B78702776BD747880D 0xCA SWAP12 PUSH5 0x736F6C6343 STOP ADDMOD 0x1E STOP CALLER "
		},
		"gasEstimates": {
			"creation": {
				"codeDepositCost": "305800",
				"executionCost": "341",
				"totalCost": "306141"
			},
			"external": {
				"sumNumbers(uint256)": "infinite",
				"sumNumeros(uint256)": "infinite"
			}
		},
		"methodIdentifiers": {
			"sumNumbers(uint256)": "59a7fb06",
			"sumNumeros(uint256)": "4426efba"
		}
	},
	"abi": [
		{
			"inputs": [
				{
					"internalType": "uint256",
					"name": "n",
					"type": "uint256"
				}
			],
			"name": "sumNumbers",
			"outputs": [
				{
					"internalType": "uint256",
					"name": "",
					"type": "uint256"
				}
			],
			"stateMutability": "pure",
			"type": "function"
		},
		{
			"inputs": [
				{
					"internalType": "uint256",
					"name": "n",
					"type": "uint256"
				}
			],
			"name": "sumNumeros",
			"outputs": [
				{
					"internalType": "uint256",
					"name": "",
					"type": "uint256"
				},
				{
					"internalType": "uint256",
					"name": "",
					"type": "uint256"
				}
			],
			"stateMutability": "pure",
			"type": "function"
		}
	]
}